:020000040800F2
:1000000000500020A10D00080000000000000000CA
:1000100000000000000000000000000000000000E0
:1000200000000000000000000000000000000000D0
:10003000000000000000000000000000850800082B
:1000400000000000000000000000000000000000B0
:1000500000000000000000000000000000000000A0
:100060000000000000000000000000000000000090
:100070000000000000000000000000000000000080
:100080000000000000000000000000000000000070
:100090000000000000000000000000000000000060
:1000A0000000000000000000000000000000000050
:1000B0000000000000000000000000000000000040
:1000C0000000000000000000000000000000000030
:1000D0000000000000000000000000000000000020
:1000E0000000000000000000000000000000000010
:1000F0000000000000000000000000000000000000
:1001000000000000000000000000000000000000EF
:1001100000000000000000000000000000000000DF
:1001200000000000000000000000000000000000CF
:1001300080F0004002E000BF81F0004142001FBF9C
:100140005FEA410392EA030F7FEA226C7FEA236CA5
:100150006AD04FEA1262D2EB1363C1BFD21841409A
:1001600048404140B8BF5B42192B88BF704710F030
:10017000004F40F4000020F07F4018BF404211F0D3
:10018000004F41F4000121F07F4118BF494292EA3B
:10019000030F3FD0A2F1010241FA03FC10EB0C0067
:1001A000C3F1200301FA03F100F0004302D54942F4
:1001B00060EB4000B0F5000F13D3B0F1807F06D3A1
:1001C00040084FEA310102F10102FE2A51D2B1F199
:1001D000004F40EBC25008BF20F0010040EA03008E
:1001E0007047490040EB0000013A28BFB0F5000F0E
:1001F000EDD2B0FA80FCACF1080CB2EB0C0200FAC4
:100200000CF0AABF00EBC25052421843BCBFD04012
:100210001843704792F0000F81F4000106BF80F48C
:1002200000000132013BB5E74FEA41037FEA226C4F
:1002300018BF7FEA236C21D092EA030F04D092F01A
:10024000000F08BF0846704790EA010F1CBF00204E
:10025000704712F07F4F04D1400028BF40F00040AB
:10026000704712F100723CBF00F50000704700F0CB
:10027000004343F0FE4040F4000070477FEA2262F2
:1002800016BF08467FEA23630146420206BF5FEAC3
:10029000412390EA010F40F4800070474FF00003C3
:1002A00004E000BF10F0004348BF40425FEA000C8A
:1002B00008BF704743F0964301464FF000001CE032
:1002C00050EA010208BF70474FF000030AE000BF88
:1002D00050EA010208BF704711F0004302D54042C6
:1002E00061EB41015FEA010C02BF84460146002038
:1002F00043F0B64308BFA3F18053A3F50003BCFA53
:100300008CF2083AA3EBC25310DB01FA02FC6344FF
:1003100000FA02FCC2F12002BCF1004F20FA02F206
:1003200043EB020008BF20F00100704702F12002F9
:1003300001FA02FCC2F1200250EA4C0021FA02F25A
:1003400043EB020008BF20EADC7070474FF0FF0C5F
:100350001CEAD0521EBF1CEAD15392EA0C0F93EA5A
:100360000C0F6FD01A4480EA010C400218BF5FEAFC
:1003700041211ED04FF0006343EA501043EA51116F
:10038000A0FB01310CF00040B1F5000F3EBF490069
:1003900041EAD3715B0040EA010062F17F02FD2A6D
:1003A0001DD8B3F1004F40EBC25008BF20F0010050
:1003B000704790F0000F0CF0004C08BF49024CEA67
:1003C000502040EA51207F3AC2BFD2F1FF0340EAF9
:1003D000C250704740F400004FF00003013A5DDC6A
:1003E00012F1190FDCBF00F000407047C2F10002AB
:1003F000410021FA02F1C2F1200200FA02FC5FEA98
:10040000310040F1000053EA4C0308BF20EADC70E1
:10041000704792F0000F00F0004C02BF400010F453
:10042000000F013AF9D040EA0C0093F0000F01F000
:10043000004C02BF490011F4000F013BF9D041EA22
:100440000C018FE70CEAD15392EA0C0F18BF93EA24
:100450000C0F0AD030F0004C18BF31F0004CD8D14E
:1004600080EA010000F00040704790F0000F17BFD5
:1004700090F0004F084691F0000F91F0004F14D01B
:1004800092EA0C0F01D142020FD193EA0C0F03D173
:100490004B0218BF084608D180EA010000F0004076
:1004A00040F0FE4040F40000704740F0FE4040F451
:1004B000400070474FF0FF0C1CEAD0521EBF1CEAF0
:1004C000D15392EA0C0F93EA0C0F69D0A2EB03020E
:1004D00080EA010C49024FEA402037D04FF08053A8
:1004E00043EA111143EA10130CF000408B4238BF6D
:1004F0005B0042F17D024FF4000C8B4224BF5B1A7B
:1005000040EA0C00B3EB510F24BFA3EB510340EAC8
:100510005C00B3EB910F24BFA3EB910340EA9C0076
:10052000B3EBD10F24BFA3EBD10340EADC001B01E6
:1005300018BF5FEA1C1CE0D1FD2A3FF650AF8B428A
:1005400040EBC25008BF20F0010070470CF0004C97
:100550004CEA50207F32C2BFD2F1FF0340EAC250C2
:10056000704740F400004FF00003013A37E792F083
:10057000000F00F0004C02BF400010F4000F013AE1
:10058000F9D040EA0C0093F0000F01F0004C02BFDC
:10059000490011F4000F013BF9D041EA0C0195E745
:1005A0000CEAD15392EA0C0F08D142027FF47DAFDE
:1005B00093EA0C0F7FF470AF084676E793EA0C0FCE
:1005C00004D14B023FF44CAF08466EE730F0004CCC
:1005D00018BF31F0004CCAD130F000427FF45CAF5C
:1005E00031F000437FF43CAF5FE700BF4FF0FF3CCA
:1005F00006E000BF4FF0010C02E000BF4FF0010C1D
:100600004DF804CD4FEA40024FEA41037FEA226CE5
:1006100018BF7FEA236C11D001B052EA530C18BF07
:1006200090EA010F58BFB2EB030088BFC81738BF6C
:100630006FEAE17018BF40F0010070477FEA226C5A
:1006400002D15FEA402C05D17FEA236CE4D15FEA56
:10065000412CE1D05DF8040B704700BF844608468A
:100660006146FFE70FB5FFF7C9FF002848BF10F14B
:10067000000F0FBD4DF808EDFFF7F4FF0CBF012090
:1006800000205DF808FB00BF4DF808EDFFF7EAFF1A
:1006900034BF012000205DF808FB00BF4DF808EDD5
:1006A000FFF7E0FF94BF012000205DF808FB00BFCA
:1006B0004DF808EDFFF7D2FF94BF012000205DF850
:1006C00008FB00BF4DF808EDFFF7C8FF34BF01205D
:1006D00000205DF808FB00BF4FEA4002B2F1FE4F78
:1006E0000FD34FF09E03B3EB12620DD94FEA0023F4
:1006F00043F0004310F0004F23FA02F018BF4042CD
:1007000070474FF00000704712F1610F01D14202B3
:1007100005D110F0004008BF6FF0004070474FF067
:100720000000704730B58BB000F05EF800F094F830
:1007300000F0B0F800F06AF900F0AAFA18B1224807
:1007400000F0CEF8FEE7214800F0CAF8204800F09B
:10075000C7F8204800F0C4F81F4D204C01A800F055
:10076000BDFA284600F0BCF80221049800F006F912
:10077000204600F0B5F80221059800F0FFF8204669
:1007800000F0AEF80221069800F0F8F8144800F0E6
:10079000A7F80221079800F0F1F8204600F0A0F831
:1007A0000221089800F0EAF8204600F099F80221AA
:1007B000099800F0E3F80B4800F092F84FF47A70D3
:1007C00000F056F8CAE700BFE40D0008FC0D000871
:1007D000140E0008400E00086C0E0008740E00088D
:1007E000780E0008F80D00080220174A174910601B
:1007F0000A68174B42F480320A6001E0013B02D0E4
:100800000A689003FAD51149124A114B4A600A68E6
:1008100042F080720A6001E0013B02D00A68920156
:10082000FAD50A490A4A4B6823F003034B604B6828
:1008300043F002034B6001E0013A04D04B6803F03F
:100840000C03082BF8D17047002002400010024032
:1008500040420F0000041D004FF0E023002107225A
:100860000248586199611A61704700BF3F19010041
:10087000034A116813685B1A8342FBD3704700BFB9
:1008800000000020024A136801331360704700BF64
:100890000000002010B40C2040F271240E4A0F49D1
:1008A000936943F4804343F004039361D1F804381F
:1008B000A2F5604223F0F00343F0B003C1F804381E
:1008C000C2F80848C2F80C08D2F80C3810BC43F43F
:1008D0000053C2F80C38704700100240000001407D
:1008E000017851B1054AD2F800381B06FBD5C2F891
:1008F000041810F8011F0029F5D17047003001409D
:10090000002809DB11D11B4AD2F800381906FBD5A3
:100910003023C2F804387047164AD2F800381B0654
:10092000FBD52D234042C2F8043830B585B001AC68
:1009300022460021104D8446A5FB00E3DB0803EBB3
:10094000830EA0EB4E003030BCF1090F02F8010B12
:1009500001F101011846EED8064A214411F8010DB3
:10096000D2F800381B06FBD58C42C2F80408F5D13A
:1009700005B030BD00300140CDCCCCCCF8B50D4633
:1009800000210446FFF780FE88BB2046FFF7A4FE47
:100990000646FFF7B5FF002D28DD1A4AD2F80038C9
:1009A0001906FBD52E233046C2F80438FFF77AFC2F
:1009B00001462046FFF7C0FB134E124C013D314665
:1009C000FFF7C4FC0746FFF787FE00F13002D2B202
:1009D000D4F800381B06FBD5C4F80428FFF762FCE6
:1009E00001463846FFF7A8FB013DE8D2F8BD054AAD
:1009F000D2F800381806FBD52D2304F10044C2F8C4
:100A00000438C2E7003001400000204110B4B42097
:100A100024242521154B9A6942F008029A61DA696B
:100A200042F40012DA61124AD2F8003C43F07F43EC
:100A3000C2F8003C0F4BD3F8002442F40042C3F844
:100A40000024D3F8002422F40042C3F80024C3F8A1
:100A50000444C3F81C04C3F82014D3F8002410BCC9
:100A600042F00102C3F80024704700BF00100240AA
:100A70000000014000500040294A10B4D2F8003470
:100A800043F48073C2F80034D2F81434DC07FBD589
:100A90004000C4B22248C2F81044D0F814349A0777
:100AA000FBD5D0F818341E48D0F814341B06FBD5FB
:100AB0001B4AC0F81014D2F814345907FBD5D2F8E9
:100AC0000034174843F48073C2F80034D0F814346B
:100AD000DB07FBD544F001041149C0F81044D1F8FC
:100AE00014349807FBD5D1F81834D1F800340C4AE7
:100AF00023F48063C1F80034D2F814345906FBD5CE
:100B0000D2F81004D2F80034054943F40073C0B29F
:100B1000C2F80034D1F818349B07FBD410BC7047DE
:100B20000050004010B41D4CD4F8003443F48073DE
:100B3000C4F80034D4F81434DB07FBD54000C3B24A
:100B40001648C4F81034D0F814349B07FBD5D0F8FD
:100B500018341248D0F814341C06FBD50F4CC0F8DA
:100B60001014D4F814345807FBD50C48D0F81434BA
:100B70001906FBD50949C0F81024D1F814345A07D6
:100B8000FBD5D1F80034054A43F40073C1F80034B2
:100B9000D2F818349B07FBD410BC704700500040BB
:100BA00030B596461A46394CD4F8005445F4807551
:100BB000C4F80054D4F81434DD07FBD54000C5B2A6
:100BC000324BC4F81054D3F814048407FBD5D3F87F
:100BD00018342E4BD3F814040006FBD5C3F81014B8
:100BE0002A4BD3F814144907FBD5D3F8001427482F
:100BF00041F48071C3F80014D0F81414CC07FBD56D
:100C000045F00105214BC0F81054D3F8141489079E
:100C1000FBD5D3F81834DAB10EF1FF3C1B49541E52
:100C2000CEF1010E62440EEB0C00A0421CD0D1F8B4
:100C3000000440F48060C1F80004D1F814044006B8
:100C4000FBD5D1F81004C0B20CF8010F9445EAD1DD
:100C50000E4AD2F8003443F40073C2F80034D2F8DC
:100C600018349B07FBD430BDD1F8003423F48063E3
:100C7000C1F80034D1F814044506FBD5D1F81004AE
:100C8000C0B20CF8010F9445CDD1E1E7005000400F
:100C900000226B21682010B5FFF744FF7521682002
:100CA000FFF7EAFE682815D1044600221C21FFF751
:100CB00039FF204600221B21FFF734FF2046002287
:100CC0001921FFF72FFF204606221A21FFF72AFFDE
:100CD000002010BD4FF0FF3010BD00BF2DE9F043E4
:100CE00085B004463B216A460E236820FFF758FF73
:100CF00000231A46BDF80000BDF80290C0BA99FA68
:100D0000B9F960F30F0369F31F432360BDF80A309C
:100D1000BDF804805BBABDF8087098FAB8F8238172
:100D20001EB2BDF80C30FFBA68F30F0267F31F4222
:100D30005BBA626063811DB2FFF7B4FA4FF0625193
:100D4000FFF704FBE0604846FFF7ACFA4FF0625152
:100D5000FFF7FCFA20614046FFF7A4FA4FF062511A
:100D6000FFF7F4FA034638466361FFF79BFA0B4935
:100D7000FFF7A0FB03463046A361FFF793FA07494C
:100D8000FFF798FB03462846E361FFF78BFA034918
:100D9000FFF790FB206205B0BDE8F083000003433D
:100DA0000B480C490C4A914205D050F8043B41F8DD
:100DB000043B9142F9D1094809490022884203D0F5
:100DC00040F8042B8842FBD1FFF7ACFCFEE70000A3
:100DD000840E000800000020000000200000002019
:100DE000040000204D50553630353020696E69744E
:100DF000204641494C4544210D0A00004D505536CE
:100E000030353020447269766572205265616479AC
:100E10000D0A0000416363656C2867293A20582C4D
:100E200020592C205A207C204779726F28647073D7
:100E3000293A20582C20592C205A0D0A0000000075
:100E40002D2D2D2D2D2D2D2D2D2D2D2D2D2D2D2DD2
:100E50002D2D2D2D2D2D2D2D2D2D2D2D2D2D2D2DC2
:100E60002D2D2D2D2D2D2D2D0D0A00004163636597
:100E70006C3A20002C20000020207C202047797232
:040E80006F3A2000A5
:040E8400F8B500BFFE
:040E8800F8B500BFFA
:0400000508000000EF
:00000001FF
