:020000040800F2
:1000000000200020D12000086D0900086F090008B9
:100010007109000873090008750900080000000054
:100020000000000000000000000000007709000848
:1000300079090008000000007B0900083D02000863
:1000400000000000000000000000000000000000B0
:1000500000000000000000000000000000000000A0
:100060000000000000000000000000000000000090
:100070000000000000000000000000000000000080
:100080000000000000000000000000000000000070
:100090000000000000000000000000000000000060
:1000A0000000000000000000000000000000000050
:1000B0000000000000000000000000000000000040
:1000C0000000000000000000000000000000000030
:1000D0000000000000000000000000000000000020
:1000E0000000000000000000000000000000000010
:1000F0000000000000000000000000000000000000
:1001000000000000000000000000000000000000EF
:1001100000000000000000000000000000000000DF
:1001200000000000000000000000000000000000CF
:1001300038B50446164D174800F050FC230FE85C14
:1001400000F042FCC4F30363E85C00F03DFCC4F340
:100150000353E85C00F038FCC4F30343E85C00F0B0
:1001600033FCC4F30333E85C00F02EFCC4F3032338
:10017000E85C00F029FCC4F30313E85C04F00F040E
:1001800000F022FC285DBDE8384000F01DBC00BF37
:10019000D0450008943E00080A409A4270B50646D1
:1001A0000C461D460AD1114800F018FC304600F0FC
:1001B00015FC0A2000F008FC002070BD0C4800F07F
:1001C0000DFC304600F00AFC0A4800F007FC284607
:1001D000FFF7AEFF084800F001FC2046FFF7A8FF3C
:1001E0000A2000F0F1FB0120E7E700BF973E00087E
:1001F0009F3E0008A73E0008B53E0008002330B52A
:1002000085B08DF80F3020B9302000F0DDFB05B04F
:1002100030BD0A231C4601A9B0FBF4F504FB15020E
:1002200030325A540246092A284602D9013BF3D2F9
:100230000023C81800F0D2FBE9E70000024A136867
:1002400001331360704700BF5C0000204FF0E023D3
:100250004FF000622DE9F04FC3F8082D1022C14B7A
:10026000C14E1A60336899B043F001033360BF4B4D
:100270000C9333689B0704D40C9B013B0C93002B1D
:10028000F7D1736823F4E0637360736843F48063A9
:100290007360736823F460537360736823F003031F
:1002A0007360B24B0D93736813F00C0F04D00D9B69
:1002B000013B0D93002BF6D100F060FBAC4800F041
:1002C0008DFBAC4800F08AFB4FF0E02340F2E732B0
:1002D0005A6100229A6103221A6100F0A5FBA64828
:1002E00000F07CFB00F0A4FCA44800F077FB00F0D9
:1002F000B9FEA34800F072FBA24800F06FFBA248D1
:1003000000F06CFBA14800F069FBA14800F066FB1F
:100310000423B7691A4639469E48FFF73DFF082374
:1003200000281A4639469C480BBF002401240125A9
:100330000025FFF731FF002840F0468201354FF4D9
:10034000805339461A469548FFF726FF002840F0AB
:100350003D8201354FF40013F1691A469048FFF7CA
:100360001BFF002840F0348201358E4800F036FB38
:100370007668002303228C4806F00C01FFF70CFF7F
:10038000002840F0278201354FF480634FF4E0628B
:1003900031468648FFF700FF002840F01D820135F6
:1003A000834800F01BFB834B4FF070621E6882484D
:1003B0004FF040733146FFF7EFFE002840F00E8209
:1003C00001354FF040534FF0704231467B48FFF704
:1003D000E3FE002840F004820135794B4FF47002AF
:1003E0001F6878484FF440133946FFF7D5FE0028C0
:1003F00040F0F88101354FF040534FF070423946DC
:100400007148FFF7C9FE002840F0EE8101354FF436
:1004100040334FF4702239466C48FFF7BDFE002888
:1004200040F0E481013503230F2231466848FFF78D
:10043000B3FE002840F0DC810135664E664800F0CE
:10044000CDFA24233F2271686448FFF7A5FE0028F7
:1004500040F0D0810135012331681A466048FFF72A
:100460009BFE002840F0C88101355A4EB42340F667
:10047000FF72F1695B48FFF78FFE002840F0BE81F4
:10048000013525233F22316A5748FFF785FE0028B2
:1004900040F0B6810135554800F0A0FA544B55485C
:1004A0001E68042331461A46FFF776FE002840F006
:1004B000A98101354FF4007331461A464E48FFF7C3
:1004C0006BFE002840F0A08101354FF48073314667
:1004D0001A464A48FFF760FE002840F09781013530
:1004E000402331461A464648FFF756FE002840F0A2
:1004F0008F8101352023382231464248FFF74CFED8
:10050000002840F0878101353F4800F067FA294B09
:100510003E48D96801231A46FFF73EFE002840F006
:100520007B8101353A4800F059FA3A4800F056FA12
:100530002846FFF763FE384800F050FA2046FFF7E0
:100540005DFE364800F04AFA2819FFF757FE344896
:1005500000F044FA334800F041FA1E2000F08CFA13
:1005600062E000BF0020024000100240A0860100AF
:10057000553F0008813F0008933F0008B83F00083E
:10058000DE3F0008F83F00081E4000085A400008FF
:1005900099400008B4400008CE400008E840000838
:1005A000034100081E410008354100084841000889
:1005B0005C410008000C01407A41000897410008A6
:1005C00000080140B4410008D1410008EF41000893
:1005D0000F42000800540040304200084D4200081D
:1005E00060420008704200088842000898420008F3
:1005F00000300140B5420008C5420008D44200085E
:10060000E3420008F2420008024300081E430008CB
:100610003343000858430008614300086C43000856
:10062000764300089E430008AE4AAF4B002814BF33
:100630001046184600F0D2F9682000F01DFAAB4AC7
:10064000AB4B002814BF1046184600F0C7F9A94864
:1006500000F0C4F900F054FB0446002840F0DE80AE
:10066000A54800F0BBF9A54800F0B8F900F0E6FB9A
:100670000546002840F0DC80A14800F0AFF9A14910
:10068000A14800F009FFA14800F0A8F900F0E2FC41
:10069000002105209E4A00F053FD022105209D4ABD
:1006A00000F04EFD042105209B4A00F049FD062183
:1006B00005209A4A00F044FD00F0AEFC2C4340F0C7
:1006C000C580974800F08AF9964B974F1D68954E64
:1006D000326833689B1A072B40F2B48011A800F0EF
:1006E00025FC002840F0B0800EA800F077FB002821
:1006F00040F0AA803668701B03F04CF98B4903F078
:10070000A1F9149B169A0793159B00210893119B3E
:100710000B920A93109B0546099303F04FFBDDE90A
:100720000A32DDF84890DDF84CA0DDF838B0DDF88D
:100730003C8000B93D460999079805950491CDF88C
:100740000C800899CDF808B0CDF804A0CDF8009041
:1007500000F0BEFE01F0A4FC754B764A6343934261
:1007600005462ED800F076FC2B4619222421402085
:1007700000F098FD0021704A084600F0E1FC0123DA
:100780002A460021242000F0EFFD07216B4A0020BB
:1007900000F0D6FC01F08CFC0123024607210C205E
:1007A00000F0E2FD0721664A362000F0C9FC01F0A6
:1007B00087FC012302460721422000F0D5FD00F00E
:1007C0002BFC3546013482E70134B8E50134C1E53C
:1007D0000134CAE50134D7E50134E1E50134F0E53F
:1007E0000134FAE5013406E6013410E601341AE674
:1007F000013422E601342EE6013436E6013440E6C7
:10080000013448E6013455E601345EE6013467E61A
:1008100001346FE6013477E6013483E6494800F09D
:10082000DDF8C4F13000C0B200F0CEF8464818E759
:10083000464800F0D3F8C5F13000C0B200F0C4F86B
:1008400041481AE730BF44E72E46BAE7404800F077
:10085000C5F800F0FFFB002105202D4A00F070FCD8
:10086000022105203B4A00F06BFC042105203A4A96
:1008700000F066FC06210520384A00F061FC1922D0
:100880002021402000F0B3FC4022342310460C21EC
:1008900000F067FC2023542219462C2000F061FC54
:1008A0004E2201213E2000F027FC532205213E204C
:1008B00000F022FC572203212A2000F01DFC4522D3
:1008C0000321522000F018FC00F0A6FB244800F0A1
:1008D00085F8244800F082F8234800F07FF830BF04
:1008E000FDE700BFDC3E0008C33E0008253F0008CE
:1008F0000D3F0008B7430008D04300080944000832
:1009000021440008022B073D0000FA425844000829
:10091000804400088E44000898440008A944000858
:10092000B94400085C0000206F12033C6F12833A48
:10093000DF7BEFBD84104208E3440008E844000870
:10094000EB440008EB430008B53F00083B440008B7
:10095000EE44000821450008304500083D450008E8
:100960004C45000873450008A4450008FEE7FEE773
:10097000FEE7FEE7FEE7FEE7FEE7FEE70F4B9A69BC
:1009800042F004029A619A6942F480429A610C4AE8
:10099000536823F0F00343F0B0035360536823F42B
:1009A000706343F4806353604522064BC3F8082804
:1009B00042F20802C3F80C28704700BF0010024042
:1009C0000008014000300140034BD3F80028120614
:1009D000FBD5C3F8040870470030014008B5411E3C
:1009E00011F8010F00B908BDFFF7EEFFF8E70000AE
:1009F000074B084A013B05D15269074B4FF0FF30C6
:100A00001A60704751690142F4D00020704700BF5E
:100A1000A186010000540040600000200220FFF782
:100A2000E7BF0120FFF7E4BF104B9A6942F00802CC
:100A30009A61DA6942F40012DA610D4A136843F0F0
:100A40007F4313600B4B1A6842F400421A601A6825
:100A500022F400421A6024225A60B422DA6125226C
:100A60001A621A6842F001021A60704700100240D0
:100A7000000C01400054004038B5114C0546236875
:100A800043F480732360FFF7CCFF88B96D002561C4
:100A9000FFF7C4FF60B96369A36963695B050AD5A1
:100AA000636923F480636361236843F40073236004
:100AB0004FF0FF3038BD236843F400732360F9E73B
:100AC00000540040F7B51A4C054623680F4643F41E
:100AD000807323601646FFF7A4FF18B14FF0FF3074
:100AE00003B0F0BD6D00EDB22561FFF797FF002860
:100AF000F4D1636980200093A3690093009B276170
:100B0000FFF776FF0028E9D104202661FFF770FF88
:100B10000028E3D1236843F4007323600190019B14
:100B2000772BDDD800BF019B01330193F7E700BFAE
:100B3000005400402DE9F7430546884617461E46F7
:100B4000002B46D0374C236843F480732360FFF7B3
:100B500068FF20B14FF0FF3003B0BDE8F0836D00B7
:100B6000EBB22361FFF75AFF0028F3D16369042039
:100B70000193A3690193019BC4F81080FFF738FF2C
:100B80000028E7D1236843F480732360FFF749FF0F
:100B90000028DFD145F00105EDB22561FFF73EFFEA
:100BA00005460028D6D1012E236814D123F4806392
:100BB0002360636940200193A3690193019B23682B
:100BC00043F400732360FFF713FF0028C2D12369A9
:100BD0003B700020C0E743F4806323606369A6F1A3
:100BE00002080193A3690193019BA84512D163698F
:100BF0005B07FCD5236823F48063236023693B7083
:100C0000236843F4007323600135B54207F10107FF
:100C1000EBD1DEE74020FFF7EBFE00289AD12369F5
:100C20003B70F1E7005400400123FFF783BF000051
:100C3000164B9A6942F00C029A619A6942F480520A
:100C40009A61A3F584331A6822F4700242F43002E8
:100C50001A601A6822F0704242F030421A601A6834
:100C600022F4702242F440321A60094A136823F0D9
:100C70000F0343F0030313604FF44972054B1A60EE
:100C80001A6842F040021A60704700BF001002402C
:100C9000000C0140003001401022014B5A617047A6
:100CA000000801401022014B1A6170470008014002
:100CB0000122014B5A617047000C01400122014B97
:100CC0001A617047000C0140064B9A689207FCD5E8
:100CD000D8609A68D107FCD5DA689A681206FCD405
:100CE000704700BF0030014038B504464518AC429B
:100CF00000D138BD14F8010BFFF7E6FFF7E700005D
:100D000007B50A211E200DF10502FFF78DFFA0BBDC
:100D10000B211E200DF10602FFF786FF80BB0C2180
:100D20001E200DF10702FFF77FFF014658BB9DF81B
:100D30000530482B2AD19DF80630342B26D19DF85A
:100D40000730332B22D170221E20FFF7BBFE00BBE1
:100D5000202201211E20FFF7B5FE0246E0B9104B0C
:100D600010491E2019600221FFF7ACFE002818BFB1
:100D70006FF0060003B05DF804FB4FF0FF30F9E7B9
:100D80006FF00100F6E76FF00200F3E76FF0030089
:100D9000F0E76FF00400EDE76FF00500EAE700BF51
:100DA000000000200040884413B5062304466A462C
:100DB00003211E20FFF7BEFE68B9BDF800305BBA04
:100DC0002380BDF802305BBA6380BDF804305BBAA3
:100DD000A38002B010BD4FF0FF30FAE773B50546AF
:100DE0006846FFF7E1FF044600BB124B1248196842
:100DF00002F0DCFE0646BDF9000002F0CFFD3146F0
:100E000002F020FE2860BDF9040002F0C7FD314663
:100E100002F018FE6860BDF9020002F0BFFD314625
:100E200002F010FEA860204602B070BD4FF0FF3403
:100E3000F9E700BF000000200000C84213B575218B
:100E40000DF107026820FFF7EFFE024648BB9DF850
:100E50000740682C28D16B212046FFF733FE30BBBA
:100E6000072219212046FFF72DFE18BB06221A2162
:100E70002046FFF727FE00BB18221B212046FFF764
:100E800021FEE8B9114A124B1C211A602046182293
:100E9000FFF718FEB8B94FF08A420E4B1A6002B045
:100EA00010BD4FF0FF30FAE76FF00100F7E76FF089
:100EB0000200F4E76FF00300F1E76FF00400EEE7E3
:100EC0006FF00500EBE76FF00600E8E7333383418E
:100ED00004000020080000201FB504460E236A46C7
:100EE0003B216820FFF726FEE8B9BDF800305BBA69
:100EF0002380BDF802305BBA6380BDF804305BBA72
:100F0000A380BDF806305BBAE380BDF808305BBA59
:100F10002381BDF80A305BBA6381BDF80C305BBA3F
:100F2000A38104B010BD4FF0FF30FAE77FB504464F
:100F30006846FFF7D1FF0546002853D12B4BBDF97A
:100F400000001E6802F02AFD314602F02FFE2849FB
:100F500002F078FD2060BDF9020002F01FFD31466D
:100F600002F024FE224902F06DFD6060BDF904002C
:100F700002F014FD314602F019FE1D4902F062FD37
:100F80001C4BA0601E68BDF9080002F007FD314649
:100F900002F00CFE184902F055FDE060BDF90A00B0
:100FA00002F0FCFC314602F001FE134902F04AFD5A
:100FB0002061BDF90C0002F0F1FC314602F0F6FDB3
:100FC0000D4902F03FFD6061BDF9060002F0E6FC4C
:100FD0000A4902F0EBFD0A4902F02CFCA061284608
:100FE00004B070BD4FF0FF35F9E700BF08000020E6
:100FF0000AE81C410400002039FA8E3C0000AA4394
:10100000B81E124210B50446FFF746FE2046BDE862
:101010001040FFF759BE000008B52120FFF7F2FF8E
:101020000020FFF7EFFF7F20FFF7ECFF2220FFF704
:10103000E9FF0020FFF7E6FF0720FFF7E3FFFFF7D8
:1010400031FEBDE808404FF480610148FFF74CBE17
:10105000640000204FF480620021014801F0A4B830
:101060006400002037B5FFF723FE0023134A0093E6
:10107000009B934217D9FFF721FE00230F4A0193EB
:10108000019B934214D900240D4D15F8010B013436
:10109000FFF7B8FF1A2CF8D1FFF7DCFF03B0BDE86B
:1010A0003040FFF7B9BF00BF009B01330093DFE77B
:1010B00000BF019B01330193E2E700BF7FFC0A0000
:1010C000E1450008030630B50FD43F290DD80124AF
:1010D000CB08084D01F0070100EBC31004FA01F141
:1010E0002B5CC9B212B10B432B5430BD23EA010370
:1010F000FAE700BF64000020A2F120035F2B88BF45
:101100002022072910B515D80B4B203A02EB82029A
:101110001A44030600EBC1110CD4084C531E2144A1
:10112000043213F8014F934201F8014B02D0013011
:101130008028F6D110BD00BFFB45000864000020E8
:1011400070B504460E46551E15F8012F0AB1230648
:1011500000D570BD204631460634FFF7CDFFE4B21E
:10116000F2E72DE9F74F1746121A002A9846A3EB2B
:10117000010383EAE37AB4BF4FF0FF3B4FF0010B6A
:10118000002BAAEBE37AB4BF4FF0FF3301230446F0
:101190000D4682EAE279A9EBE2790093A9EB0A060F
:1011A000CAF10003002C0ADAB3EB460F4FEA4602FD
:1011B00019DB9145F6DD009A4E441544F2E722060C
:1011C0000AD4002DF0DBE9B23F2905D80122E0B2B4
:1011D0000193FFF777FF019BA742E5D1A845E3D133
:1011E00003B0BDE8F08FA6EB0A065C44E1E72DE909
:1011F000F04F0024804689461746A24685B001225A
:10120000FEB206EB08035FFA8AF5DBB2009305EB4A
:101210000903DBB2194600980393FFF753FF05EB70
:101220000801CBB2A8EB050B06EB09011846C9B2C1
:101230005FFA8BFB01930291FFF744FF5846029936
:10124000FFF740FF039BA8EB0600A9EB0505194635
:10125000C0B2EDB2A9EB06060290F6B2FFF732FF7C
:1012600029460298FFF72EFF31465846FFF72AFF1E
:1012700031460198FFF726FF29460098FFF722FF25
:10128000002C924404DC04EB4A041444002C03DDDB
:10129000013F7B000133E41A5745B0DA05B0BDE8E1
:1012A000F08F00002DE9F0471E46154604460F4614
:1012B000FFF79DFF2B49304602F0C4FB064601F0C4
:1012C000E3F88146304600F0BFFF0646A81E02F054
:1012D00065FB804606F10040414602F0B3FB06463E
:1012E000384602F05BFB0146304602F0A3FA4FF0AD
:1012F0007C5102F09FFA02F0A7FDC6B2204602F030
:101300004DFB49468246404602F09CFB0146504652
:1013100002F090FA4FF07C5102F08CFA02F094FD4A
:101320003346A61E3946C2B2F6B22046FFF719FF71
:1013300030464E220121FFF7DFFE304653220521C1
:10134000FFF7DAFE601B57220321C0B2053DFFF70D
:10135000D3FE60194522BDE8F0470321C0B2FFF774
:10136000CBBE00BF39FA8E3C2DE9F04F81468A464C
:1013700089B00021104614461F4602F001FD48B313
:1013800004F1004B584602F039FD002580464FF02D
:101390007E564049EBB29F421ED82046002102F003
:1013A000EFFC044618B12D2301248DF81030B8F15C
:1013B000000F19D0434600220A2002A9002B17DD96
:1013C00093FBF0F500FB1533303301F8013B01329C
:1013D0002B46F3E7A346D5E73046019102F032FBF6
:1013E000013506460199D5E7302301228DF80830F2
:1013F000154604AB2344002D43D1144497B3404613
:1014000002F0CCFA0146584602F012FA314602F0D8
:1014100019FB4FF07C5102F00DFA02F0EFFC2E2286
:1014200004F120036B4403F8102C8046304602F090
:10143000E5FC0A2104AB90FBF1F2181998FBF2F3DA
:1014400093FBF1F692FBF1F201FB1633303300F817
:10145000013F6B1C002ADBB208BF01229F4216D15C
:1014600002342C4404F120030DEB03040023514605
:10147000484604AA04F8103CFFF762FE09B0BDE834
:10148000F08F013D02A9495D03F8011BB3E71D463A
:10149000D4E700BF000020414FF07E52064B186099
:1014A000064B1960064B1A600023064A1360064A71
:1014B0001360064A1360704774040020780400200B
:1014C000700400206C0400206804002064040020E4
:1014D0002DE9F04F97B00C930F4B02901B680391CE
:1014E00001930E4B00211B68259800930C4BDDF8EF
:1014F0008880D3F800A00B4B239D249F1C68049286
:1015000002F048FC90B1084B4FF07E50196802F091
:101510004DFB25900AE000BF700400206C04002001
:101520006804002064040020740400200C9908461C
:1015300002F088FA20990646084602F083FA01462E
:10154000304602F077F921990646084602F07AFA09
:101550000146304602F06EF900F0AEFE01464FF053
:101560007E5002F023FB009B002103F100430F900B
:10157000109302F0FBFB002840F06884414640468F
:1015800002F060FA29460646284602F05BFA014658
:10159000304602F04FF939460646384602F052FA14
:1015A0000146304602F046F900F086FE01464FF053
:1015B0007E5002F0FBFA0021064602F0D7FB00281D
:1015C00040F044843146404602F03CFA31468046C1
:1015D000284602F037FA31460546384602F032FA1C
:1015E00001998346084602F025F94146069002F02B
:1015F00029FA29460D90069802F024FA59461190CE
:10160000069802F01FFA00990746084602F012F900
:101610004146099002F016FA51461290504602F0E7
:1016200009F921460790204602F004F90199139028
:10163000084602F007FA00990646019802F002FAFD
:1016400051460E90019802F0FDF900991490084659
:1016500002F0F8F921460890009802F0F3F951469B
:101660000A90504602F0EEF921460590204602F01D
:10167000E9F931460B90404602F0E4F911998146B0
:10168000204602F0DFF90146484602F0D1F839461B
:101690008146504602F0D6F90146484602F0CAF8A3
:1016A00008998146404602F0CDF90146484602F0CD
:1016B000C1F829468146099802F0C4F9514602F062
:1016C000C1F90146484602F0B5F8594681460998E5
:1016D00002F0B8F9214602F0B5F90146484602F099
:1016E000A9F805998146404602F0ACF90146484602
:1016F00002F09EF80B998146404602F0A3F901469C
:10170000484602F095F80D998146204602F09AF974
:1017100031461590284602F095F90146159802F0D9
:1017200089F839461590009802F08CF90146159811
:1017300002F07EF812990746504602F083F90146FE
:10174000384602F077F808990746284602F07AF9F9
:101750000146384602F06CF805990746284602F023
:1017600071F90146384602F065F807990746584670
:1017700002F068F9214602F065F90146384602F0A8
:1017800059F80B990746284602F05CF9014638469D
:1017900002F04EF849460746484602F053F93946EA
:1017A0008146384602F04EF90146484602F042F8BA
:1017B00000F082FD0D9B0746514603F1004002F008
:1017C00041F911998146009802F03CF901464846DA
:1017D00002F030F831468146584602F033F90146AE
:1017E000484602F027F812990646204602F02AF9E8
:1017F0000146304602F01EF808990646584602F0A7
:1018000021F90146304602F013F8079906462846AA
:1018100002F018F9214602F015F90146304602F0AF
:1018200009F805990646584602F00CF9014630467B
:1018300001F0FEFF0B990646584602F003F90146F7
:10184000304601F0F7FF0146064601F0F3FF0A9922
:101850001190084601F0EEFF51468146069802F0CD
:10186000F1F80146484601F0E3FF0F9981460C98D4
:1018700002F0E8F80146484601F0DAFF0E990C90B4
:10188000084601F0D7FF07998146204602F0DAF8B2
:101890000146484601F0CEFF0F998146209802F09C
:1018A000D1F80146484601F0C3FF31460D9050463D
:1018B00002F0C8F8059912904FF07C5001F0B8FF83
:1018C0000B9901F0B5FF394602F0BCF81499814636
:1018D0000A9801F0ADFF314602F0B4F801464846DF
:1018E00001F0A8FF414601F0A3FF21460B9007F14C
:1018F000004002F0A7F831468146009802F0A2F8B5
:1019000051461590009802F09DF8214680460198B6
:1019100002F098F80146404601F08AFF394602F08D
:1019200091F821468046504602F08CF80E9901F05D
:1019300081FF314602F086F80146404601F07AFF09
:10194000294601F075FF39460E90504602F07AF8AC
:10195000089980464FF07C5001F06AFF059901F02C
:1019600067FF314602F06EF80A990546149801F0B7
:1019700061FF394602F066F80146284601F05AFF39
:10198000594601F055FF079B83460C9903F100402F
:1019900002F058F80D990546099802F053F80146EF
:1019A000284601F047FF0B990546129802F04AF8C5
:1019B0000146284601F03CFF15990546484601F0CE
:1019C00039FF0E9902F03EF80146284601F032FF39
:1019D00059460546404602F035F80146284601F0D2
:1019E00029FF08990A90084601F024FF01464FF0AC
:1019F0007E5001F01DFF05990546084601F01AFFCB
:101A00000146284601F014FF0F990546219802F07F
:101A100019F80146284601F00BFF31460890204690
:101A200002F010F831460546019802F00BF81399C0
:101A30000F900C9802F006F80D990646069802F0F1
:101A400001F80146304601F0F5FE4FF081410646AF
:101A5000009801F0F7FF089901F0F4FF01463046C5
:101A600001F0E6FE294606460B9801F0EBFF014621
:101A7000304601F0DFFE0F990646404601F0DAFEDF
:101A80000E9901F0DFFF0146304601F0D3FE1199B7
:101A90008046009801F0D6FF09F100460146304625
:101AA00001F0C6FE594601F0CDFF0146404601F067
:101AB000C1FE39460590384601F0BCFE394600F1BA
:101AC0000048009801F0BEFF39460646019801F033
:101AD000B9FF069B07460C9903F1004001F0B2FFE5
:101AE000139981460D9801F0ADFF0146484601F07B
:101AF000A1FE4FF081418146504601F0A3FF0899B5
:101B000001F0A0FF0146484601F092FE5146814691
:101B1000404601F097FF0F9901F08AFE0B9901F002
:101B200091FF0146484601F085FE31468146284630
:101B300001F080FE0E9901F085FF0146484601F054
:101B400079FE11990546504601F07CFF0146384662
:101B500001F06EFE594601F075FF0146284601F07E
:101B600069FE0C990546099801F06CFF07998146BA
:101B70000D9801F067FF0146484601F05BFE2146E3
:101B80008146404601F05EFF159901F053FE0B9926
:101B900001F058FF0146484601F04CFE39468046A8
:101BA000129801F045FE0E9901F04CFF01464046A7
:101BB00001F040FE31460746584601F043FF01461A
:101BC000384601F037FE0A998146084601F03AFF8F
:101BD00005990646084601F035FF0146304601F0FA
:101BE00029FE29460646284601F02CFF01463046CC
:101BF00001F020FE49460646484601F023FF014613
:101C0000304601F017FE00F057FB01464FF07E50C2
:101C100001F0CCFF0021804602F0A8F8002840F037
:101C20001581854B109902981F6801F00BFF0399ED
:101C30000646504601F006FF0146304601F0F8FD29
:101C400004990646204601F0FDFE0146304601F0AB
:101C5000EFFD4FF07C5101F0F5FE414606460A9833
:101C600001F0F0FE394601F0EDFE0146304601F08C
:101C7000DFFD02990690019801F0E4FE0499064602
:101C8000504601F0DFFE0146304601F0D3FD0399D6
:101C90000646204601F0D6FE0146304601F0C8FD5A
:101CA0004FF07C5101F0CEFE41460646059801F00A
:101CB000C9FE394601F0C6FE0146304601F0B8FDC6
:101CC00003990646019801F0BDFE049983460098E9
:101CD00001F0B8FE0146584601F0AAFD029983467C
:101CE000204601F0AFFE0146584601F0A3FD4FF03B
:101CF0007C5101F0A7FE41468346284601F0A2FE32
:101D0000394601F09FFE0146584601F091FD0499C5
:101D10000546019801F096FE03998346009801F06C
:101D200091FE0146584601F085FD029983465046D2
:101D300001F088FE0146584601F07AFD4FF07C51D3
:101D400001F080FE41468346484601F07BFE39465D
:101D500001F078FE0146584601F06AFD069980467A
:101D6000259801F06FFE019901F064FD31460746A8
:101D7000259801F067FE009901F05CFD29460646B2
:101D8000259801F05FFE514601F054FD4146814621
:101D9000259801F057FE214601F04CFD39460546D5
:101DA000384601F04FFE31460446304601F04AFE07
:101DB0000146204601F03EFD49460446484601F0F2
:101DC00041FE0146204601F035FD294604462846DD
:101DD00001F038FE0146204601F02CFD00F06CFABF
:101DE00001464FF07E5001F0E1FE0021044601F073
:101DF000BDFF002840F096802146384601F022FEC3
:101E000021468046304601F01DFE214607464846E1
:101E100001F018FE21460646284601F013FE03464F
:101E2000064AC2F80080064A1760064A1660064A4B
:101E3000136017B0BDE8F08F780400207004002014
:101E40006C040020680400206404002010990298AB
:101E500001F0F8FD03990546504601F0F3FD0146F7
:101E6000284601F0E5FC04990546204601F0EAFD0C
:101E70000146284601F0DCFC4FF07C5101F0E2FD08
:101E800002990690019801F0DDFD0499054650463F
:101E900001F0D8FD0146284601F0CCFC0399054627
:101EA000204601F0CFFD0146284601F0C1FC4FF06D
:101EB0007C5101F0C7FD03990646019801F0C2FD6F
:101EC00004990546009801F0BDFD0146284601F041
:101ED000AFFC02990546204601F0B4FD01462846B4
:101EE00001F0A8FC4FF07C5101F0ACFD04990546CF
:101EF000019801F0A7FD03998046009801F0A2FD2A
:101F00000146404601F096FC02998046504601F099
:101F100099FD0146404601F08BFC4FF07C5101F0E9
:101F200091FD1BE700234FF07E581E461F4677E7C2
:101F3000524B2DE9F74FD3F800B0514B05461E68C0
:101F4000504B31461F68504B3046D3F8009001F09B
:101F500071FC59468046584601F06CFC31460446F7
:101F6000404601F06FFD82465946204601F06AFD69
:101F7000514601F05FFC4FF07E5101F059FC3946AB
:101F80008346404601F05EFD49468046204601F00A
:101F900059FD0146404601F04DFC594600F0AAF9B2
:101FA00039460190204601F04DFD4946804648469D
:101FB00001F040FC314601F045FD0146404601F08C
:101FC00037FC4FF07E51804601F0EEFE00284ED1E6
:101FD00040462E4901F0DEFE00284BD1404600F07D
:101FE0008DFA83463946384601F024FC5146804636
:101FF0004FF07E5001F01CFC39468246404601F00D
:1020000021FD0146504601F013FC314607462046AB
:1020100001F018FD49460446404601F013FD014613
:10202000204601F007FC394600F064F918490646DD
:10203000019801F007FD16490446584601F002FDDB
:1020400013490746304601F0FDFC002106462046B4
:1020500001F096FE20B120460E4901F0EBFB04464C
:1020600028462C606F60AE6003B0BDE8F08FDFF8EB
:1020700028B0B7E7DFF824B0B4E700BF7004002051
:102080006C0400206804002064040020000080BF6D
:10209000E12E65420000B443DA0FC93FDA0FC9BF31
:1020A0001FB501A8FFF744FF019805B05DF804FBD8
:1020B0001FB501A8FFF73CFF029805B05DF804FBCF
:1020C0001FB501A8FFF734FF039805B05DF804FBC6
:1020D0000A4B1A6844F2040442EA04021A60084BEC
:1020E0001A68F024A243B02422431A60054B45220B
:1020F0001A60054B42F208021A60000018100240F4
:1021000004080140083801400C380140044B1A68AB
:102110004FF080042242FAD0024B4FF02A021A609C
:10212000003801400438014005480649064A884203
:102130001AD052F8043B40F8043B8842F9D1000021
:10214000000000205C000020F04B0008044B1A68DF
:1021500080242242FBD0034B4FF02E021A60000075
:1021600000380140043801400448054900228842F3
:1021700016D040F8042B8842FBD100005C00002000
:102180007C040020044B1A6880242242FBD0034BBD
:102190004FF023021A60000000380140043801406B
:1021A000FEF754F830BFFDE770B5860747D0541EE0
:1021B000002A3ED00346CAB201E0013C39D303F8FD
:1021C000012B9D07F9D1032C2CD9CDB205EB0525A8
:1021D0000F2C1A4605EB054534D9A4F1100C2CF050
:1021E0000F0603F1100EB6444FEA1C1CC2E900555D
:1021F000C2E9025510327245F8D10CF1010214F017
:102200000C0F03EB021204F00F0C13D0ACF104031B
:1022100023F003030433134442F8045B9342FBD1DD
:102220000CF003042CB1C9B21C4403F8011BA342F7
:10223000FBD170BD64461346002CF4D1F9E7034688
:102240001446C0E7A446E1E71A4A20F0004393424F
:1022500019D900B5B3F1FF4F83B005D3014601F0A2
:10226000E7FA03B05DF804FB694600F0C7FC00F034
:102270000302012A11D0022A08D0AAB901990098B4
:1022800000F03AF8EDE7002100F036B80199009827
:1022900000F032F800F10040E3E70199009800F007
:1022A00037FC00F10040DCE701220199009800F0C2
:1022B0002FFCD6E7D80F493F38B5044601F0AAF9FC
:1022C00021460546204601F083FD20B92046002125
:1022D00001F056FD08B9284638BD01F0D5FD212290
:1022E000034600211A60084601F060FC05462846B6
:1022F00038BD00BF00F070BA2DE9F84320F0004669
:10230000B6F1485F054688464BD201F077FD0028BC
:1023100000F0A1802946284601F094FB044650496C
:1023200001F090FB4F4901F085FA214601F08AFB4C
:102330004D4901F07DFA214601F084FB4B4901F043
:1023400079FA214601F07EFB494901F071FA2146F4
:1023500001F078FB474901F06DFA214601F072FB6C
:1023600007464FF07C51204601F06CFB034639468E
:1023700020461C4601F066FB0346414628461D46A2
:1023800001F060FB0146284601F052FA0146204662
:1023900001F04EFA01464FF07E5001F049FABDE8D7
:1023A000F883014601F04EFB04462D4901F04AFB3B
:1023B0002C4901F03FFA214601F044FB2A4901F083
:1023C00037FA214601F03EFB284901F033FA214655
:1023D00001F038FB264901F02BFA214601F032FBCF
:1023E000244901F027FA214601F02CFB224B074635
:1023F0009E42B6D9214B9E4229D806F17F463146EE
:102400004FF07E5001F014FA814620464FF07C5187
:1024100001F018FB314601F00BFA0346394620461D
:102420001C4601F00FFB0346414628461D4601F0BD
:1024300009FB0146284601F0FBF90146204601F060
:10244000F7F90146484601F0F3F9BDE8F883DFF8F3
:1024500030900C4ED9E74FF07E50BDE8F88300BFB6
:102460004ED747ADF6740F317CF29334010DD0375F
:10247000610BB63AABAA2A3D9999993E0000483FB4
:102480000000383F0000903E1B4A20F0004393427A
:102490001AD900B5B3F1FF4F83B005D3014601F05F
:1024A000C7F903B05DF804FB694600F0A7FB00F034
:1024B0000300012814D002280AD0B0B901220199E2
:1024C000009800F025FBECE70022002100F020BB83
:1024D00001220199009800F01BFB00F10040E0E7A9
:1024E00001990098FFF708FFDBE701990098FFF7D3
:1024F00003FF00F10040D4E7D80F493F38B5044648
:1025000000F01CF821460546204601F061FC38B970
:10251000204600F0DDFC4FF07E5101F04FFC08B981
:10252000284638BD01F0B0FC2122034602481A605B
:10253000BDE8384001F030B9DC4700082DE9F84328
:1025400020F00045B5F17E5F044600F0B28000F255
:10255000A880B5F17C5F06460DD2B5F1485F80F0EA
:10256000CE808D4901F066F94FF07E5101F026FCD6
:10257000002840F0C280204600F0AAFC01464FF03F
:102580007E5001F055F94FF07C5101F05BFA0446A2
:10259000824901F057FA824901F04CF9214601F0D5
:1025A00051FA804901F044F9214601F04BFA7E4985
:1025B00001F040F9214601F045FA7C4901F038F973
:1025C000214601F03FFA7A4901F034F9214601F041
:1025D00039FA78498046204601F034FA764901F00C
:1025E00027F9214601F02EFA744901F023F921461A
:1025F00001F028FA724901F01BF9214601F022FA94
:102600004FF07E5101F016F98146204601F002F8A4
:102610006C4B07469D425BD8014620F47F6501F074
:1026200009F9034649464046984601F0BFFA01467B
:10263000404601F007FA25F00F0580462946284656
:1026400001F000FA0146204601F0F2F8294604465E
:10265000384601F0EFF80146204601F0A7FA01469E
:1026600001F0E8F80146584801F0E2F8014640461A
:1026700001F0DEF829460446284601F0DBF8014661
:10268000524801F0D5F80146204601F0D1F8014644
:102690004E4801F0CDF8002E09DC00F10040BDE805
:1026A000F883014601F0C4F8014601F07FFABDE865
:1026B000F883474901F0C6F90346434920461C46C2
:1026C00001F0C0F90146204601F0B4F8BDE8F883F6
:1026D0004946404601F06AFA394601F0B3F93946F5
:1026E00001F0A8F8014601F0A5F83A4901F0A2F876
:1026F0000146374801F09CF8CDE72046D7E7014670
:1027000001F0A0F90546254901F09CF9244901F0A2
:1027100091F8294601F096F9224901F089F82946F5
:1027200001F090F9204901F085F8294601F08AF975
:102730001E4901F07DF8294601F084F91C4901F099
:1027400079F8294601F07EF91A490646284601F033
:1027500079F9194901F06CF8294601F073F9174924
:1027600001F068F8294601F06DF9154901F060F8AB
:10277000294601F067F94FF07E5101F05BF8014600
:10278000304601F013FA214601F05CF9214601F0D0
:1027900051F8BDE8F88300BFCAF2497108EF11385B
:1027A000047F4F3A4611243DA80A4E3E90B0A63E03
:1027B000ABAA2A3E2EC69D3D6133303F2D570140C6
:1027C00039D119409999793F2EBD3BB3DB0F493F71
:1027D000DB0FC93F2EBD3B3370B521F00045B5F18D
:1027E000FF4F0A4603462CD820F00046B6F1FF4FB3
:1027F000844626D8B1F17E5F35D08C1704F00204F0
:1028000044EAD07416B33DB3B5F1FF4F33D0B6F1FF
:10281000FF4F21D0761BB6F1F45F4FEAE65028DA7D
:10282000002934DA3C3032DA0020012C40D0022C6E
:1028300036D02CB1254900F0FDFF254900F0F8FF06
:1028400070BD1946104600F0F5FF70BD022C08D08F
:10285000032CF5D11F4870BDBCF1000F07DB1E48EB
:1028600070BD1B4870BDBDE8704000F03DB81B480E
:1028700070BD1948D9E7B6F1FF4F04F1FF341AD003
:10288000022C1ED8164B03EB8403D86870BD11468A
:10289000184601F08BF900F01BFB00F025F8C4E7A7
:1028A0000A4900F0C7FF0146094800F0C1FF70BDAA
:1028B00000F1004070BD022C05D8094B53F82400EC
:1028C00070BD002070BD074870BD00BF2EBDBB337A
:1028D000DB0F4940DB0F49C0DB0FC93FDB0FC9BF2E
:1028E000E0470008DB0F493F2DE9F04120F00045AB
:1028F000B5F1A14F0446074608D3B5F1FF4F73D891
:10290000002840F381806F48BDE8F0816E4B9D4206
:102910007DD8B5F1445F6CD34FF0FF382146204697
:1029200001F090F80146064601F08CF8054667492B
:1029300001F088F8664900F07DFF294601F082F831
:10294000644900F077FF294601F07CF8624900F005
:1029500071FF294601F076F8604900F06BFF2946C7
:1029600001F070F85E4900F065FF314601F06AF849
:102970005C490646284601F065F85B4900F058FFBF
:10298000294601F05FF8594900F052FF294601F04D
:1029900059F8574900F04CFF294601F053F85549C2
:1029A00000F046FF294601F04DF80146304600F0A0
:1029B00041FF214601F046F8B8F1FF3F014646D0FD
:1029C0004D4D05EB8803196900F032FF214600F0F8
:1029D0002FFF014655F8280000F02AFF002F93DA58
:1029E00000F10040BDE8F081014600F023FFBDE8A2
:1029F000F081424900F01EFF4FF07E5101F0DEF9F8
:102A0000002889D020467FE73D48BDE8F08100F0EE
:102A10005FFA3C4B04469D421ED8A3F5D0039D426D
:102A20003CD8014600F006FF4FF07E5100F000FF59
:102A300003464FF0804120461C4600F0FBFE014655
:102A4000204601F0B3F84FF00008044666E7204640
:102A500000F0EEFEBDE8F0812B4B9D4216D84FF002
:102A60007F5100F0E5FE03464FF07F5120461C46A3
:102A700000F0E8FF4FF07E5100F0DCFE01462046FA
:102A800001F094F84FF00208044647E701461F485A
:102A900001F08CF84FF0030804463FE74FF07E51F9
:102AA00000F0C6FE03464FF07E5120461C4600F063
:102AB000C1FE0146204601F079F84FF001080446B6
:102AC0002CE700BFDB0FC93FFFFFDF3ED769853C26
:102AD00059DA4B3D356B883D6E2EBA3D2549123E85
:102AE000ABAAAA3E21A215BD6BF16E3D95879D3D17
:102AF000388EE33DCDCC4C3EF8470008CAF2497110
:102B0000DB0FC9BFFFFF973FFFFF1B40000080BFE7
:102B10002DE9F84320F00043B3F1485F04460E4628
:102B2000904603D201F06AF9002858D02146204689
:102B300000F088FF05462046294600F083FF29491A
:102B40008146284600F07EFF274900F071FE2946A5
:102B500000F078FF254900F06DFE294600F072FF75
:102B6000234900F065FE294600F06CFF214900F082
:102B700061FE0746B8F1000F22D030464FF07C517D
:102B800000F060FF39460746484600F05BFF01460B
:102B9000384600F04DFE294600F054FF314600F063
:102BA00047FE15490546484600F04CFF01462846B9
:102BB00000F040FE0146204600F03AFEBDE8F883F2
:102BC0000146284600F03EFF0B4900F031FE494621
:102BD00000F038FF214600F02DFEBDE8F8832046C6
:102BE000BDE8F883D3C92E2F342FD7321BEF3836E8
:102BF000010D50398988083CABAA2A3E2DE9F04FD7
:102C0000A64A20F0004595420C4689B06FD9A44AE7
:102C1000064695421FD820F000450028A14925F01E
:102C20000F0540F3148100F003FE9F4B06469D42C2
:102C300068D09E4900F0FCFD05463046294600F06C
:102C4000F7FD9A4900F0F4FD0127256060603846E1
:102C500009B0BDE8F08F964A954263D9B5F1FF4FB0
:102C60004AD2EF15863FA5EBC755284601F0C6F8B6
:102C700000F094FE01462846059100F0D9FD4FF082
:102C8000874100F0DFFE804601F0B8F800F086FED4
:102C9000054640462946069500F0CAFD4FF087419B
:102CA00000F0D0FE0021079001F060F8002800F04D
:102CB000CA802846002101F059F8002814BF0123DA
:102CC000022302257B493A46019105A82146009539
:102CD00000F002F9002E0746B9DAD4E9002302F128
:102CE000004203F10043226063604742AFE70022E5
:102CF00020604A600027AAE7014600F099FD606065
:102D00002060F7E76C4900F093FD6C49064600F03F
:102D10008FFD05463046294600F08AFD674900F0E0
:102D200087FD91E700F0D4F86549804600F08AFEFF
:102D30004FF07C5100F07EFD01F060F8074600F096
:102D40002DFE5849834600F07DFE0146404600F0C6
:102D50006FFD56498246584600F074FE1F2F81468B
:102D60000146504622DC574B7A1E53F8222026F0AB
:102D7000004323F0FF03934218D000F059FD804632
:102D800041465046C4F8008000F052FD494600F02C
:102D90004FFD002E6060BFF65AAF08F1004800F109
:102DA0000040C4F8008060607F4250E700F040FDC2
:102DB000C0F3C753C3EBD553EA15082B80460392E3
:102DC000DEDD3D49584600F03DFE80465046414616
:102DD00000F02EFD05465046294600F029FD4146EB
:102DE00000F026FD80463549584600F02BFE41464E
:102DF00000F01EFD81462846494600F019FD039A61
:102E0000C0F3C753D21A192A80461EDD2E495846F0
:102E100000F018FE80462846414600F009FD824633
:102E20002846514600F004FD414600F001FD0546EC
:102E30002649584600F006FE294600F0F9FC814676
:102E40005046494699E703233BE7AA4698E700F036
:102E5000F1FC154B06469D420FD0144900F0EAFCE8
:102E600005463046294600F0E3FC104900F0E2FC3C
:102E70004FF0FF3725606060E9E60F4900F0DAFCAB
:102E80000E49064600F0D6FC05463046294600F0BD
:102E9000CFFC0A4900F0CEFCEAE700BFD80F493F5B
:102EA000E3CB1640800FC93FD00FC93F43443537AD
:102EB000800F4943984800080044353708A3852E01
:102EC00084F9223F1848000800A3852E32318D2452
:102ED00020F00040704700BF2DE9F04FDDB0C24C3C
:102EE000669D93469E46043203F1FF33804654F8B4
:102EF00025A009910193C0F2B582BBF1030348BF3D
:102F00000BF10403DB1006930133DB000A930A9BE9
:102F1000069AABEB030303930EF1FF331AEB03079F
:102F2000A2EB03051ED401372F443B4620AE3746A3
:102F300000241E46DDF89C91CDF800E008E059F829
:102F4000250000F02BFD0135B54247F8040B07D0F2
:102F5000002DF4DA20460135B54247F8040BF7D1CD
:102F6000DDF800E0A8F10403BAF1000F0293B8BF46
:102F70004FEA8E0837DBDDF8049020AA4FEA8E086E
:102F800002EB8E0248AF0AEB0E01CDE907E8CDF85F
:102F900010A0CDF814B09246CB46B846009103EB92
:102FA0008E05B9F1000FB8BF00240FDB574600248F
:102FB000029E57F8041D56F8040F00F043FD014629
:102FC000204600F037FCAE420446F2D1009B0BF1E4
:102FD000010B9B4548F8044B0AF1040AE1D1DDE9F5
:102FE00004ABDDE907E8029BD14603EB08050CAB17
:102FF00003EB8A03043B07930CAB03EB8A03CDF886
:1030000010A09A46CDF82CB0CDF820E05CAB03EBD5
:10301000890353F850BCB9F1000F4FEA89030093BC
:1030200022DD0DF590780CAF08EB03064FF06E51E2
:10303000584600F007FD00F0E1FE00F0AFFC4FF055
:103040008741044600F0FEFC0146584600F0F0FBC4
:1030500000F0D4FE56F8041D47F8040B204600F09B
:10306000E9FB46458346E1D1039F5846394600F0C7
:103070003BFB4FF07851044600F0E4FC00F090FB7D
:103080004FF0824100F0DEFC0146204600F0D0FB0C
:10309000044600F0B3FE064600F080FC01462046E0
:1030A00000F0C6FB002F80463A4640F3818009F1CC
:1030B000FF300CAB53F82070C2F1080347FA03F15C
:1030C00001FA03F3FF1A0CAB43F82070C2F10703B7
:1030D0001F41002F0E4400F312810021404600F0F2
:1030E00045FE002800F0BB80049B99450CDD0021C3
:1030F000009B30336B4453F8042D534541EA0201E1
:10310000F9D1002940F01681049B0CAA013B52F82A
:103110002330002B40F00A810123079951F8042D38
:103120000133002AFAD04B4409F101060699089AA6
:1031300001EB060808F18048679908F1FF384A4416
:1031400001EB8808DDF8009020A901EB820748AA6E
:1031500091440093CDF814A058F8040F00F01EFC21
:10316000019B47F8040B002B1ADBBB460024DDF85B
:1031700008A05BF8041D5AF8040F00F063FC014638
:10318000204600F057FBAA450446F2D1009B0136C9
:10319000B34249F8044FDFDA9946DDF814A035E769
:1031A0000024009B0136B34249F8044FD4DAF3E718
:1031B00040F08D8009F1FF330CAA52F82370FF1103
:1031C000002F8ADDB9F1000F06F1010640F3F88106
:1031D00000210CAB53F8044B002C74D0C4F5807460
:1031E00043F8044C07E000BFB04B00081A68C2F176
:1031F000FF0243F8042B01318945F7DC0124039BCE
:10320000002B0FDD039B012B00F08580022B09D1E1
:1032100009F1FF310CAB53F821300CAA03F03F0346
:1032200042F82130022F7FF458AF41464FF07E50D4
:1032300000F0FEFA8046002C3FF44FAF03994FF0A8
:103240007E5000F051FA0146404600F0F1FA804607
:103250000021404600F08AFD00287FF445AFDDE9FB
:103260000A3B4046A3EB0B01DDF810A000F03CFA4E
:103270004FF08741044600F097FD002800F081815F
:103280004FF06E51204600F0DDFB00F0B7FD00F07E
:1032900085FB4FF08741054600F0D4FB01462046F0
:1032A00000F0C6FA00F0AAFD0CAB43F82900039B1E
:1032B00028460833039300F0A1FD09F101050CAB8A
:1032C00043F825004EE00131894583DC97E74FF054
:1032D0007C5100F069FD074600283FF4FEAEB9F1CD
:1032E000000FC8BF022706F101063FF771AF414644
:1032F0004FF07E5000F09CFA02278046EDE6B9F1CF
:10330000000FD8BF002406F101063FF761AF039B11
:10331000012B7FF47BAF09F1FF310CAB53F8213067
:103320000CAA03F07F0342F821307BE709F1010684
:103330003346FBE6DDE9033A09F1FF35A3F1080264
:103340000CAB53F82530039263B909F18043013B7C
:103350000CA901EB830353F8041D013D083A002931
:10336000F9D003924FF07E50039900F0BDF9002D83
:103370008346C0F22F816C1C0CAB03EB8409A100C7
:1033800000954FF06E584D46894648AB03EB8404D8
:1033900055F8040D00F002FB594600F053FB41467E
:1033A00044F8040D584600F04DFB0CAB9D4283469B
:1033B000EED14946A9F108034FF00009009D48AA43
:1033C00034AC13440196A6464E46A8469946234679
:1033D000CDE9024704950591BAF1000F74DB8C4DDD
:1033E0004FF0000B2F4600244D46009301E0B442FD
:1033F0000DDC55F8041F57F8040B00F023FB0146C1
:10340000584600F017FA0134A2458346EFDA009BD4
:1034100008F1FF38B8F1FF3F43F804BB06F101069D
:10342000A9F10409D8D1DDE90164DDE90375669BE2
:103430000599022B4BDC002B19DC0ED1002034AB9C
:103440005C1854F8041D00F0F5F934AB9C42F8D137
:10345000002F40F0B280099B186006F007005DB0B5
:10346000BDE8F08F08230A93002306934FE54FF041
:103470000009484634AB03EB010A5AF8041D00F07A
:10348000D9F934AB9A45F8D181460146349800F019
:10349000CFF9002F40F08880099BC3F8009065B1F8
:1034A0004FF0010854F8041F08F1010800F0C2F9B8
:1034B0004545F7DA0FB100F10040099B586006F06E
:1034C00007005DB0BDE8F08F4FF0000BA0E7669BF2
:1034D000032BC2D1002D00F08D8034AB03EB850BA4
:1034E000D94653F825404FEA8508009559F8045C01
:1034F0002046294600F09EF9A24604462846214669
:1035000000F096F9514600F095F934ABC9F8000087
:1035100049F8044D9945E9D1009D012D6AD034AB9D
:1035200053F825401D1D5BF804AC2046514600F0C1
:1035300081F9A14604465046214600F079F94946F2
:1035400000F078F9CBF800004BF8044D5D45EAD166
:10355000002008F1040434AB1C4403F1080854F8BB
:10356000041D00F067F9A045F9D1349A359B87B95D
:1035700009990A604B60886006F007005DB0BDE8FD
:10358000F08F204600F03AFC0CAB4D4643F8290082
:10359000E8E6099902F1004203F1004300F100401E
:1035A0000A604B608860E7E7099B09F10049C3F8AE
:1035B0000090002D7FF474AF7DE700F100404AE7F2
:1035C000022F7FF48AAD01464FF07E5000F030F9B3
:1035D000804682E5669B022B08DC002B0CDC7FF426
:1035E0003CAF0020002F3FF436AFE6E7669B032B8D
:1035F0007FF433AF0020B8E734981FB90023099A4D
:1036000013605AE74FF00043099A136053E700BF75
:10361000BC4B000820F00042B2F1FF4FF8B5044661
:103620004ED2002A43D00028034650DB10F0FF4260
:103630003ED0C1150024C3F31602A1F17F05CB07CC
:103640004FF0190E4FF0807C214642F4000258BF23
:1036500052006D10520001EB0C039342CFBF134692
:1036600003EB0C016444D31ABEF1010E4FEA43028E
:103670004FEA5C0CEFD1ABB11A4E3068716800F0C4
:10368000D7F837680146384600F084FB50B13068FF
:10369000716800F0CFF836680146304600F070FBE4
:1036A000E0B10234601000F17C5000EBC550F8BD71
:1036B0005B001802114602F10102F9D54942B9E74F
:1036C000014600F0BFF9214600F0B4F8F8BD01460C
:1036D00000F0AEF8014600F069FAF8BD013424F0BC
:1036E0000104DFE7E84B000810B50C4630F000415C
:1036F00003461DD0B1F1FF4F1BD210F0FF4F024621
:103700001BD14FF0984100F09DF9204A03469442A6
:103710002CDBC0F3C75102464CF250308442A1F179
:10372000190110DD18461A4961F31E0000F08AF9EC
:1037300010BD014600F07EF810BD4CF250308442BE
:103740004FEAD151EEDC2144FE29EBDC002911DCEB
:1037500011F1160F13DB01F1190022F0FF424FF0B7
:103760004C5142EAC05000F06DF910BD094900F01B
:1037700069F910BD22F0FF4242EAC15010BD18465F
:10378000044961F31E0000F05DF910BDB03CFFFF7D
:10379000CAF249716042A20D004870470000C07F24
:1037A0002DE9F041C0F3C7557F3D162D044620F0AA
:1037B000004725DC002D804614DB184F2F4138428E
:1037C0001BD0174900F036F8002100F0F7FAA0B13D
:1037D000002C03DA4FF400032B41984428EA070039
:1037E000BDE8F0810E4900F025F8002100F0E6FA6E
:1037F00018B1002C0CDB002000E02046BDE8F08171
:10380000B7F1FF4FF9D3014600F014F8BDE8F0819D
:1038100017B94FF00040F1E70248EFE7FFFF7F00E4
:10382000CAF24971000080BF80F0004002E000BF92
:1038300081F0004142001FBF5FEA410392EA030F9B
:103840007FEA226C7FEA236C6AD04FEA1262D2EBE5
:103850001363C1BFD218414048404140B8BF5B42EA
:10386000192B88BF704710F0004F40F4000020F083
:103870007F4018BF404211F0004F41F4000121F099
:103880007F4118BF494292EA030F3FD0A2F10102E3
:1038900041FA03FC10EB0C00C3F1200301FA03F121
:1038A00000F0004302D5494260EB4000B0F5000F44
:1038B00013D3B0F1807F06D340084FEA310102F103
:1038C0000102FE2A51D2B1F1004F40EBC25008BFB5
:1038D00020F0010040EA03007047490040EB00007F
:1038E000013A28BFB0F5000FEDD2B0FA80FCACF180
:1038F000080CB2EB0C0200FA0CF0AABF00EBC250AD
:1039000052421843BCBFD0401843704792F0000F9A
:1039100081F4000106BF80F400000132013BB5E7ED
:103920004FEA41037FEA226C18BF7FEA236C21D063
:1039300092EA030F04D092F0000F08BF08467047C8
:1039400090EA010F1CBF0020704712F07F4F04D196
:10395000400028BF40F00040704712F100723CBFA9
:1039600000F50000704700F0004343F0FE4040F4D3
:10397000000070477FEA226216BF08467FEA236391
:103980000146420206BF5FEA412390EA010F40F47C
:10399000800070474FF0000304E000BF10F00043C8
:1039A00048BF40425FEA000C08BF704743F09643AF
:1039B00001464FF000001CE050EA010208BF7047CA
:1039C0004FF000030AE000BF50EA010208BF704751
:1039D00011F0004302D5404261EB41015FEA010C66
:1039E00002BF84460146002043F0B64308BFA3F15E
:1039F0008053A3F50003BCFA8CF2083AA3EBC25340
:103A000010DB01FA02FC634400FA02FCC2F120025E
:103A1000BCF1004F20FA02F243EB020008BF20F095
:103A20000100704702F1200201FA02FCC2F12002FB
:103A300050EA4C0021FA02F243EB020008BF20EAF0
:103A4000DC7070474FF0FF0C1CEAD0521EBF1CEA1E
:103A5000D15392EA0C0F93EA0C0F6FD01A4480EA0C
:103A6000010C400218BF5FEA41211ED04FF00063F5
:103A700043EA501043EA5111A0FB01310CF0004021
:103A8000B1F5000F3EBF490041EAD3715B0040EA47
:103A9000010062F17F02FD2A1DD8B3F1004F40EB17
:103AA000C25008BF20F00100704790F0000F0CF0EA
:103AB000004C08BF49024CEA502040EA51207F3AAE
:103AC000C2BFD2F1FF0340EAC250704740F4000089
:103AD0004FF00003013A5DDC12F1190FDCBF00F07A
:103AE00000407047C2F10002410021FA02F1C2F128
:103AF000200200FA02FC5FEA310040F1000053EAC4
:103B00004C0308BF20EADC70704792F0000F00F011
:103B1000004C02BF400010F4000F013AF9D040EA17
:103B20000C0093F0000F01F0004C02BF490011F4AB
:103B3000000F013BF9D041EA0C018FE70CEAD153A9
:103B400092EA0C0F18BF93EA0C0F0AD030F0004C29
:103B500018BF31F0004CD8D180EA010000F00040DD
:103B6000704790F0000F17BF90F0004F084691F09B
:103B7000000F91F0004F14D092EA0C0F01D14202D5
:103B80000FD193EA0C0F03D14B0218BF084608D19E
:103B900080EA010000F0004040F0FE4040F40000E8
:103BA000704740F0FE4040F4400070474FF0FF0C7B
:103BB0001CEAD0521EBF1CEAD15392EA0C0F93EAC2
:103BC0000C0F69D0A2EB030280EA010C49024FEA14
:103BD000402037D04FF0805343EA111143EA1013CD
:103BE0000CF000408B4238BF5B0042F17D024FF485
:103BF000000C8B4224BF5B1A40EA0C00B3EB510F60
:103C000024BFA3EB510340EA5C00B3EB910F24BF48
:103C1000A3EB910340EA9C00B3EBD10F24BFA3EBCD
:103C2000D10340EADC001B0118BF5FEA1C1CE0D195
:103C3000FD2A3FF650AF8B4240EBC25008BF20F048
:103C4000010070470CF0004C4CEA50207F32C2BF9C
:103C5000D2F1FF0340EAC250704740F400004FF039
:103C60000003013A37E792F0000F00F0004C02BF6A
:103C7000400010F4000F013AF9D040EA0C0093F034
:103C8000000F01F0004C02BF490011F4000F013B8E
:103C9000F9D041EA0C0195E70CEAD15392EA0C0FF6
:103CA00008D142027FF47DAF93EA0C0F7FF470AF2E
:103CB000084676E793EA0C0F04D14B023FF44CAF71
:103CC00008466EE730F0004C18BF31F0004CCAD106
:103CD00030F000427FF45CAF31F000437FF43CAF42
:103CE0005FE700BF4FF0FF3C06E000BF4FF0010C64
:103CF00002E000BF4FF0010C4DF804CD4FEA400246
:103D00004FEA41037FEA226C18BF7FEA236C11D08F
:103D100001B052EA530C18BF90EA010F58BFB2EB42
:103D2000030088BFC81738BF6FEAE17018BF40F0C2
:103D3000010070477FEA226C02D15FEA402C05D176
:103D40007FEA236CE4D15FEA412CE1D05DF8040BFB
:103D5000704700BF844608466146FFE70FB5FFF78E
:103D6000C9FF002848BF10F1000F0FBD4DF808ED46
:103D7000FFF7F4FF0CBF012000205DF808FB00BF37
:103D80004DF808EDFFF7EAFF34BF012000205DF891
:103D900008FB00BF4DF808EDFFF7E0FF94BF0120DE
:103DA00000205DF808FB00BF4DF808EDFFF7D2FFDB
:103DB00094BF012000205DF808FB00BF4DF808ED1E
:103DC000FFF7C8FF34BF012000205DF808FB00BFEB
:103DD0004FEA40024FEA41037FEA226C02D15FEAD8
:103DE000402C08D17FEA236C02D15FEA412C02D13A
:103DF0004FF0000070474FF0010070474FEA40025B
:103E0000B2F1FE4F0FD34FF09E03B3EB12620DD908
:103E10004FEA002343F0004310F0004F23FA02F072
:103E200018BF404270474FF00000704712F1610F19
:103E300001D1420205D110F0004008BF6FF00040F0
:103E400070474FF00000704742000ED2B2F1FE4FB3
:103E50000BD34FF09E03B3EB126209D44FEA002359
:103E600043F0004323FA02F070474FF00000704720
:103E700012F1610F01D1420202D14FF0FF307047C1
:103E80004FF00000704700BF014B1868704700BF3B
:043E90000C00002002
:103E94003078005B504153535D20005B4641494CF0
:103EA4005D20000A202045787065637465643A20BB
:103EB400000A202041637475616C3A202020004878
:103EC4004D43353838334C206465746563746564D8
:103ED400202841434B290A00484D43353838334C98
:103EE400204E4F5420646574656374656420284EC5
:103EF40041434B29202D20657870656374656420E7
:103F0400696E2051454D550A004D505536303530B7
:103F1400206465746563746564202841434B290AF1
:103F2400004D505536303530204E4F542064657462
:103F3400656374656420284E41434B29202D206518
:103F44007870656374656420696E2051454D550A27
:103F5400000A2D2D2D2053544D3332463130332059
:103F6400456C656374726F6E696320436F6D706135
:103F7400737320426F6F74202D2D2D0A00436C6FD4
:103F8400636B3A204853492038204D487A0A004947
:103F940032433120696E697469616C697A656420A1
:103FA400285042363D53434C2C205042373D534415
:103FB40041290A005350493120696E697469616C62
:103FC400697A656420285041353D53434B2C205079
:103FD40041373D4D4F5349290A005353443133303F
:103FE40036204F4C454420696E697469616C697A66
:103FF40065640A000A3D3D3D3D3D3D2052656769CB
:104004007374657220566572696669636174696F59
:104014006E203D3D3D3D3D3D0A00284E6F74653A9E
:104024002051454D552073746D3332766C64697339
:10403400636F7665727920646F6573206E6F742088
:10404400656D756C617465205243432F4750494F29
:104054002F4932430A0020726567697374657220C0
:10406400726561646261636B2E205350493120692B
:10407400732066756C6C7920656D756C617465640C
:1040840020616E642073686F756C642050415353D3
:104094002E290A0A002D2D2D2052434320436C6FF4
:1040A400636B20456E61626C6573202D2D2D0A00B3
:1040B4005243435F41504232454E52204750494F8C
:1040C400412028626974203229005243435F4150E1
:1040D4004232454E52204750494F4220286269746B
:1040E400203329005243435F41504232454E52200F
:1040F40053504931202028626974203132290052FA
:1041040043435F41504231454E52204932433120AE
:10411400202862697420323129000A2D2D2D205364
:10412400797374656D20436C6F636B202D2D2D0A9C
:10413400005243435F4346475220535753203D2088
:10414400485349005243435F43464752205050521C
:104154004531203D202F32000A2D2D2D2047504976
:104164004F20436F6E66696775726174696F6E7311
:10417400202D2D2D0A004750494F42205042362011
:104184002853434C293A204146204F442035304D92
:10419400487A004750494F42205042372028534420
:1041A40041293A204146204F442035304D487A0079
:1041B4004750494F4120504135202853434B293A19
:1041C4002041462050502035304D487A0047504910
:1041D4004F412050413720284D4F5349293A20411F
:1041E400462050502035304D487A004750494F41C1
:1041F4002050413420284443293A204F7574707567
:10420400742050502035304D487A004750494F4271
:10421400205042302028524553293A204F7574705B
:1042240075742050502035304D487A000A2D2D2DBC
:10423400204932433120436F6E6669677572617439
:10424400696F6E202D2D2D0A00493243315F435290
:10425400322046524551203D203336004932433105
:104264005F435231205045203D20310049324331D3
:104274005F434352203D2031383020283130306BA9
:10428400487A2900493243315F5452495345203D0D
:10429400203337000A2D2D2D205350493120436FF0
:1042A4006E66696775726174696F6E202D2D2D0AB3
:1042B40000535049315F435231204D5354523D31E4
:1042C40000535049315F4352312053534D3D310027
:1042D400535049315F435231205353493D310053C8
:1042E4005049315F435231205350453D31005350C2
:1042F40049315F4352312042523D2F3332000A2D5F
:104304002D2D204F4C454420436F6E74726F6C20EA
:1043140050696E73202D2D2D0A004750494F4220BD
:104324005042302028524553293D48494748000A05
:104334003D3D3D3D3D3D205665726966696361744E
:10434400696F6E2053756D6D617279203D3D3D3D01
:104354003D3D0A005061737365643A200020204695
:1043640061696C65643A20002020546F74616C3A72
:1043740020000A3D3D3D3D3D3D3D3D3D3D3D3D3DF6
:104384003D3D3D3D3D3D3D3D3D3D3D3D3D3D3D3D59
:104394003D3D3D3D3D3D3D0A0A00496E69746961FC
:1043A4006C697A696E672073656E736F72732E2EF3
:1043B4002E0A00436F6E6669677572696E672048DE
:1043C4004D43353838334C2E2E2E0A002020484DCC
:1043D40043353838334C20696E697469616C697A85
:1043E4006564204F4B0A002020484D43353838334C
:1043F4004C20696E6974204641494C454420286329
:104404006F64653D00436F6E6669677572696E67B8
:10441400204D5055363035302E2E2E0A0020204D9A
:1044240050553630353020696E697469616C697A2B
:104434006564204F4B0A0020204D505536303530EE
:1044440020696E6974204641494C45442028636FB5
:1044540064653D000A4F4C454420696E6974696186
:104464006C697A6564207769746820636F6D706124
:10447400737320646973706C61790A00456C6563B9
:104484002E20436F6D706173730053544D33324665
:1044940031303300484D43353838334C2B4D50556B
:1044A4003630353000496E697469616C697A696EB9
:1044B400672E2E2E0053656E736F7273204F4B2C34
:1044C40020656E746572696E672041485253206698
:1044D4007573696F6E206C6F6F702E2E2E0A0048F4
:1044E40044473A00503A00523A004E6F2073656ECA
:1044F400736F72732064657465637465642E2044FD
:104504006973706C6179696E672051454D552064FB
:10451400656D6F2073637265656E2E0A0051454D9B
:10452400552054455354204D4F44450053656E73F4
:104534006F72733A204E2F41004857206E6F7420DB
:1045440070726573656E74000A51454D552052654D
:10455400676973746572205665726966696361740C
:10456400696F6E20436F6D706C6574652E0A00412F
:104574006C6C207065726970686572616C2072651C
:104584006769737465727320686176652062656516
:104594006E20696E697469616C697A65642E0A00BB
:1045A4004669726D77617265206973207265616412
:1045B4007920666F72206861726477617265206425
:1045C40065706C6F796D656E742E0A00303132330C
:1045D40034353637383941424344454600AED580F8
:1045E400A83FD300408D142000A1C8DA1281CFD98E
:1045F400F1DB40A4A62EAF000000000000005F0025
:10460400000007000700147F147F14242A7F2A1255
:104614002313086462364955225000050300000044
:104624001C2241000041221C00082A1C2A080808F8
:104634003E080800503000000808080808006060C0
:10464400000020100804023E5149453E00427F40CC
:104654000042615149462141454B311814127F10E3
:1046640027454545393C4A49493001710905033616
:1046740049494936064949291E0036360000005684
:104684003600000008142241141414141441221496
:1046940008000201510906324979413E7E11111187
:1046A4007E7F494949363E414141227F4141221C96
:1046B4007F494949417F090901013E414151327F06
:1046C4000808087F00417F41002040413F017F08E6
:1046D4001422417F404040407F0204027F7F04084F
:1046E400107F3E4141413E7F090909063E41512167
:1046F4005E7F09192946464949493101017F010173
:104704003F4040403F1F2040201F7F2018207F63F0
:1047140014081463030478040361514945430000F9
:104724007F4141020408102041417F00000402013E
:10473400020440404040400001020400205454540C
:10474400787F484444383844444420384444487FBB
:104754003854545418087E090102081454543C7FF8
:104764000804047800447D40002040443D00007F5C
:1047740010284400417F40007C041804787C08041D
:10478400047838444444387C141414080814141865
:104794007C7C080404084854545420043F444020BA
:1047A4003C4040207C1C2040201C3C4030403C4489
:1047B400281028440C5050503C4464544C44000885
:1047C40036410000007F0000004136080008082A36
:1047D4001C08081C2A08080000000000DB0F49BF61
:1047E400E4CB1640E4CB16C000000080DB0F494048
:1047F400DB0F49C03863ED3EDA0F493F5E987B3FDB
:10480400DA0FC93F6937AC3168212233B40F14334E
:104814006821A233000FC93F000F494000CB9640E6
:10482400000FC9400053FB4000CB164100ED2F415F
:10483400000F49410031624100537B41003A8A41F3
:1048440000CB9641005CA34100EDAF41007EBC412A
:10485400000FC94100A0D5410031E24100C2EE4140
:104864000053FB4100F20342003A0A420083104223
:1048740000CB164200141D42005C234200A52942CD
:1048840000ED2F4200363642007E3C4200C74242D1
:10489400000F4942A2000000F9000000830000005C
:1048A4006E0000004E0000004400000015000000EF
:1048B40029000000FC000000270000005700000051
:1048C400D1000000F500000034000000DD0000000D
:1048D400C0000000DB000000620000009500000042
:1048E400990000003C00000043000000900000001C
:1048F40041000000FE0000005100000063000000C1
:10490400AB000000DE000000BB000000C50000009A
:1049140061000000B7000000240000006E000000E9
:104924003A000000420000004D000000D2000000E8
:10493400E000000006000000490000002E00000016
:10494400EA00000009000000D1000000920000000D
:104954001C000000FE0000001D000000EB00000031
:104964001C000000B100000029000000A7000000A6
:104974003E000000E8000000820000003500000056
:10498400F50000002E000000BB0000004400000001
:1049940084000000E90000009C000000700000009A
:1049A40026000000B40000005F0000007E0000004C
:1049B400410000003900000091000000D600000012
:1049C400390000008300000053000000390000009B
:1049D400F40000009C000000840000005F00000060
:1049E4008B000000BD000000F9000000280000005A
:1049F4003B0000001F000000F800000097000000CA
:104A0400FF000000DE000000050000009800000028
:104A14000F000000EF0000002F0000001100000054
:104A24008B0000005A0000000A0000006D00000026
:104A34001F0000006D000000360000007E00000032
:104A4400CF00000027000000CB0000000900000098
:104A5400B70000004F000000460000003F000000C7
:104A6400660000009E0000005F000000EA000000F5
:104A74002D0000007500000027000000BA000000AF
:104A8400C7000000EB000000E5000000F10000009A
:104A94007B0000003D00000007000000390000001A
:104AA400F70000008A00000052000000920000009D
:104AB400EA0000006B000000FB0000005F00000043
:104AC400B10000001F0000008D0000005D00000028
:104AD4000800000056000000030000003000000041
:104AE40046000000FC0000007B0000006B0000009A
:104AF400AB000000F0000000CF000000BC0000008C
:104B0400200000009A000000F400000036000000BD
:104B14001D000000A9000000E30000009100000057
:104B2400610000005E000000E60000001B000000C1
:104B340008000000650000009900000085000000E6
:104B44005F00000014000000A000000068000000E6
:104B5400400000008D000000FF000000D8000000AD
:104B6400800000004D0000007300000027000000DA
:104B740031000000060000000600000015000000DF
:104B840056000000CA00000073000000A8000000E6
:104B9400C900000060000000E20000007B0000008B
:104BA400C00000008C0000006B0000000400000046
:104BB40007000000090000000000C93F0000F039B0
:104BC4000000DA370000A2330000842E0000502BCE
:104BD4000000C2270000D0220000C41F0000C61B32
:0C4BE400000044170000803F6042A20D5A
:104BF000004088443333834100000045100000200A
:104C0000000000000000000068000000D00000006C
:104C10000000000000000000000000000000000094
:104C20000000000000000000000000000000000084
:104C30000000000000000000000000000000000074
:0C4C400000000000000000000000000068
:04000005080020D1FE
:00000001FF
