:020000040800F2
:10000000005000200DA3000859A3000859A30008C0
:1000100059A3000859A3000859A3000800000000D4
:1000200000000000000000000000000059A30008CC
:1000300059A300080000000059A30008F1A200081D
:1000400059A3000859A3000859A3000859A30008A0
:1000500059A3000859A3000859A3000859A3000890
:1000600059A3000859A3000859A3000859A3000880
:1000700059A3000859A3000859A3000859A3000870
:1000800059A3000859A3000859A3000859A3000860
:1000900059A3000859A3000859A3000859A3000850
:1000A00059A3000859A3000859A3000859A3000840
:1000B00059A3000859A3000859A3000859A3000830
:1000C00059A3000859A3000859A3000859A3000820
:1000D00059A3000859A3000859A3000859A3000810
:0C00E00059A3000859A3000859A3000808
:1000F0000348044B834202D0034B03B118477047B7
:10010000C0060020C0060020000000000548064B85
:100110001B1AD90F01EBA301491002D0034B03B105
:1001200018477047C0060020C006002000000000ED
:1001300010B5064C237843B9FFF7DAFF044B13B12F
:100140000448AFF300800123237010BDC0060020D7
:100150000000000010AD000808B5044B1BB10449B5
:100160000448AFF30080BDE80840CFE7000000007E
:10017000C406002010AD00081A4A20F00043934244
:1001800019D900B5B3F1FF4F83B005D3014601F093
:1001900005FF03B05DF804FB694600F0C7FC00F002
:1001A0000302012A11D0022A08D0AAB901990098A5
:1001B00000F03AF8EDE7002100F036B80199009818
:1001C00000F032F800F10040E3E70199009800F0F8
:1001D00037FC00F10040DCE701220199009800F0B3
:1001E0002FFCD6E7D80F493F38B5044601F0AAF9ED
:1001F00021460546204602F0A1F920B920460021FB
:1002000002F074F908B9284638BD02F023FA212219
:10021000034600211A60084602F07EF8054628468B
:1002200038BD00BF00F070BA2DE9F84320F0004659
:10023000B6F1485F054688464BD202F095F9002892
:1002400000F0A1802946284601F0B2FF044650493B
:1002500001F0AEFF4F4901F0A3FE214601F0A8FFD7
:100260004D4901F09BFE214601F0A2FF4B4901F0F0
:1002700097FE214601F09CFF494901F08FFE21467F
:1002800001F096FF474901F08BFE214601F090FFF7
:1002900007464FF07C51204601F08AFF034639465D
:1002A00020461C4601F084FF0346414628461D4671
:1002B00001F07EFF0146284601F070FE014620460F
:1002C00001F06CFE01464FF07E5001F067FEBDE884
:1002D000F883014601F06CFF04462D4901F068FFE8
:1002E0002C4901F05DFE214601F062FF2A4901F030
:1002F00055FE214601F05CFF284901F051FE2146E0
:1003000001F056FF264901F049FE214601F050FF59
:10031000244901F045FE214601F04AFF224B0746E1
:100320009E42B6D9214B9E4229D806F17F463146DE
:100330004FF07E5001F032FE814620464FF07C5156
:1003400001F036FF314601F029FE034639462046CA
:100350001C4601F02DFF0346414628461D4601F08C
:1003600027FF0146284601F019FE0146204601F00C
:1003700015FE0146484601F011FEBDE8F883DFF89E
:1003800030900C4ED9E74FF07E50BDE8F88300BFA7
:100390004ED747ADF6740F317CF29334010DD03750
:1003A000610BB63AABAA2A3D9999993E0000483FA5
:1003B0000000383F0000903E1B4A20F0004393426B
:1003C0001AD900B5B3F1FF4F83B005D3014601F050
:1003D000E5FD03B05DF804FB694600F0A7FB00F003
:1003E0000300012814D002280AD0B0B901220199D3
:1003F000009800F025FBECE70022002100F020BB74
:1004000001220199009800F01BFB00F10040E0E799
:1004100001990098FFF708FFDBE701990098FFF7C3
:1004200003FF00F10040D4E7D80F493F38B5044638
:1004300000F01CF821460546204602F07FF838B946
:10044000204600F0DDFC4FF07E5102F06DF808B957
:10045000284638BD02F0FEF82122034602481A6001
:10046000BDE8384001F030B99CAC00082DE9F843F4
:1004700020F00045B5F17E5F044600F0B28000F246
:10048000A880B5F17C5F06460DD2B5F1485F80F0DB
:10049000CE808D4901F084FD4FF07E5102F044F88A
:1004A000002840F0C280204600F0AAFC01464FF030
:1004B0007E5001F073FD4FF07C5101F079FE04464F
:1004C000824901F075FE824901F06AFD214601F082
:1004D0006FFE804901F062FD214601F069FE7E4910
:1004E00001F05EFD214601F063FE7C4901F056FDFE
:1004F000214601F05DFE7A4901F052FD214601F0EE
:1005000057FE78498046204601F052FE764901F0B8
:1005100045FD214601F04CFE744901F041FD2146A4
:1005200001F046FE724901F039FD214601F040FE1E
:100530004FF07E5101F034FD8146204601F002F873
:100540006C4B07469D425BD8014620F47F6501F065
:1005500027FD034649464046984601F0DDFE014628
:10056000404601F025FE25F00F0580462946284625
:1005700001F01EFE0146204601F010FD294604460A
:10058000384601F00DFD0146204601F0C5FE01464A
:1005900001F006FD0146584801F000FD01464046C5
:1005A00001F0FCFC29460446284601F0F9FC01460E
:1005B000524801F0F3FC0146204601F0EFFC0146F1
:1005C0004E4801F0EBFC002E09DC00F10040BDE8D4
:1005D000F883014601F0E2FC014601F09DFEBDE812
:1005E000F883474901F0E4FD0346434920461C4691
:1005F00001F0DEFD0146204601F0D2FCBDE8F883A3
:100600004946404601F088FE394601F0D1FD3946A1
:1006100001F0C6FC014601F0C3FC3A4901F0C0FC00
:100620000146374801F0BAFCCDE72046D7E701463E
:1006300001F0BEFD0546254901F0BAFD244901F04F
:10064000AFFC294601F0B4FD224901F0A7FC294680
:1006500001F0AEFD204901F0A3FC294601F0A8FD00
:100660001E4901F09BFC294601F0A2FD1C4901F046
:1006700097FC294601F09CFD1A490646284601F0E0
:1006800097FD194901F08AFC294601F091FD1749AF
:1006900001F086FC294601F08BFD154901F07EFC36
:1006A000294601F085FD4FF07E5101F079FC0146AD
:1006B000304601F031FE214601F07AFD214601F07D
:1006C0006FFCBDE8F88300BFCAF2497108EF11382A
:1006D000047F4F3A4611243DA80A4E3E90B0A63EF4
:1006E000ABAA2A3E2EC69D3D6133303F2D570140B7
:1006F00039D119409999793F2EBD3BB3DB0F493F62
:10070000DB0FC93F2EBD3B3370B521F00045B5F17D
:10071000FF4F0A4603462CD820F00046B6F1FF4FA3
:10072000844626D8B1F17E5F35D08C1704F00204E0
:1007300044EAD07416B33DB3B5F1FF4F33D0B6F1F0
:10074000FF4F21D0761BB6F1F45F4FEAE65028DA6E
:10075000002934DA3C3032DA0020012C40D0022C5F
:1007600036D02CB1254901F01BFC254901F016FCBF
:1007700070BD1946104601F013FC70BD022C08D064
:10078000032CF5D11F4870BDBCF1000F07DB1E48DC
:1007900070BD1B4870BDBDE8704000F03DB81B48FF
:1007A00070BD1948D9E7B6F1FF4F04F1FF341AD0F4
:1007B000022C1ED8164B03EB8403D86870BD11467B
:1007C000184601F0A9FD00F01BFB00F025F8C4E776
:1007D0000A4901F0E5FB0146094801F0DFFB70BD65
:1007E00000F1004070BD022C05D8094B53F82400DD
:1007F00070BD002070BD074870BD00BF2EBDBB336B
:10080000DB0F4940DB0F49C0DB0FC93FDB0FC9BF1E
:1008100078A30008DB0F493F2DE9F04120F00045A7
:10082000B5F1A14F0446074608D3B5F1FF4F73D881
:10083000002840F381806F48BDE8F0816E4B9D42F7
:100840007DD8B5F1445F6CD34FF0FF382146204688
:1008500001F0AEFC0146064601F0AAFC05466749D8
:1008600001F0A6FC664901F09BFB294601F0A0FCC3
:10087000644901F095FB294601F09AFC624901F0B8
:100880008FFB294601F094FC604901F089FB294661
:1008900001F08EFC5E4901F083FB314601F088FCDB
:1008A0005C490646284601F083FC5B4901F076FB73
:1008B000294601F07DFC594901F070FB294601F001
:1008C00077FC574901F06AFB294601F071FC554954
:1008D00001F064FB294601F06BFC0146304601F053
:1008E0005FFB214601F064FCB8F1FF3F014646D0B2
:1008F0004D4D05EB8803196901F050FB214601F0CD
:100900004DFB014655F8280001F048FB002F93DA13
:1009100000F10040BDE8F081014601F041FBBDE877
:10092000F081424901F03CFB4FF07E5101F0FCFDAB
:10093000002889D020467FE73D48BDE8F08100F0DF
:100940005FFA3C4B04469D421ED8A3F5D0039D425E
:100950003CD8014601F024FB4FF07E5101F01EFB14
:1009600003464FF0804120461C4601F019FB01462A
:10097000204601F0D1FC4FF00008044666E720460F
:1009800001F00CFBBDE8F0812B4B9D4216D84FF0D7
:100990007F5101F003FB03464FF07F5120461C4678
:1009A00001F006FC4FF07E5101F0FAFA01462046B4
:1009B00001F0B2FC4FF00208044647E701461F4829
:1009C00001F0AAFC4FF0030804463FE74FF07E51C8
:1009D00001F0E4FA03464FF07E5120461C4601F038
:1009E000DFFA0146204601F097FC4FF0010804466B
:1009F0002CE700BFDB0FC93FFFFFDF3ED769853C17
:100A000059DA4B3D356B883D6E2EBA3D2549123E75
:100A1000ABAAAA3E21A215BD6BF16E3D95879D3D07
:100A2000388EE33DCDCC4C3E90A30008CAF249710C
:100A3000DB0FC9BFFFFF973FFFFF1B40000080BFD8
:100A40002DE9F84320F00043B3F1485F04460E4619
:100A5000904603D201F088FD002858D02146204658
:100A600001F0A6FB05462046294601F0A1FB2949D5
:100A70008146284601F09CFB274901F08FFA294660
:100A800001F096FB254901F08BFA294601F090FB15
:100A9000234901F083FA294601F08AFB214901F03C
:100AA0007FFA0746B8F1000F22D030464FF07C5154
:100AB00001F07EFB39460746484601F079FB0146C6
:100AC000384601F06BFA294601F072FB314601F01D
:100AD00065FA15490546484601F06AFB0146284675
:100AE00001F05EFA0146204601F058FABDE8F883AD
:100AF0000146284601F05CFB0B4901F04FFA4946DC
:100B000001F056FB214601F04BFABDE8F883204680
:100B1000BDE8F883D3C92E2F342FD7321BEF3836D8
:100B2000010D50398988083CABAA2A3E2DE9F04FC7
:100B3000A64A20F0004595420C4689B06FD9A44AD8
:100B4000064695421FD820F000450028A14925F00F
:100B50000F0540F3148101F021FA9F4B06469D4298
:100B600068D09E4901F01AFA05463046294601F040
:100B700015FA9A4901F012FA01272560606038469B
:100B800009B0BDE8F08F964A954263D9B5F1FF4FA1
:100B90004AD2EF15863FA5EBC755284601F0E4FC85
:100BA00001F0B2FA01462846059101F0F7F94FF03D
:100BB000874101F0FDFA804601F0D6FC01F0A4FA6D
:100BC000054640462946069501F0E8F94FF0874171
:100BD00001F0EEFA0021079001F07EFC002800F001
:100BE000CA802846002101F077FC002814BF0123A9
:100BF000022302257B493A46019105A8214600952A
:100C000000F002F9002E0746B9DAD4E9002302F118
:100C1000004203F10043226063604742AFE70022D5
:100C200020604A600027AAE7014601F0B7F960603A
:100C30002060F7E76C4901F0B1F96C49064601F014
:100C4000ADF905463046294601F0A8F9674901F09B
:100C5000A5F991E700F0D4F86549804601F0A8FABB
:100C60004FF07C5101F09CF901F07EFC074601F049
:100C70004BFA5849834601F09BFA0146404601F081
:100C80008DF956498246584601F092FA1F2F814647
:100C90000146504622DC574B7A1E53F8222026F09C
:100CA000004323F0FF03934218D001F077F9804608
:100CB00041465046C4F8008001F070F9494601F001
:100CC0006DF9002E6060BFF65AAF08F1004800F1E0
:100CD0000040C4F8008060607F4250E701F05EF998
:100CE000C0F3C753C3EBD553EA15082B80460392D4
:100CF000DEDD3D49584601F05BFA804650464146EC
:100D000001F04CF905465046294601F047F94146A5
:100D100001F044F980463549584601F049FA414608
:100D200001F03CF981462846494601F037F9039A1B
:100D3000C0F3C753D21A192A80461EDD2E495846E1
:100D400001F036FA80462846414601F027F98246EE
:100D50002846514601F022F9414601F01FF90546A7
:100D60002649584601F024FA294601F017F9814630
:100D70005046494699E703233BE7AA4698E701F026
:100D80000FF9154B06469D420FD0144901F008F9A2
:100D900005463046294601F001F9104901F000F9F5
:100DA0004FF0FF3725606060E9E60F4901F0F8F881
:100DB0000E49064601F0F4F805463046294601F092
:100DC000EDF80A4901F0ECF8EAE700BFD80F493F17
:100DD000E3CB1640800FC93FD00FC93F434435379E
:100DE000800F494330A400080044353708A3852EFE
:100DF00084F9223FB0A3000800A3852E32318D2450
:100E000020F00040704700BF2DE9F04FDDB0C24C2C
:100E1000669D93469E46043203F1FF33804654F8A4
:100E200025A009910193C0F2B582BBF1030348BF2D
:100E30000BF10403DB1006930133DB000A930A9BDA
:100E4000069AABEB030303930EF1FF331AEB030790
:100E5000A2EB03051ED401372F443B4620AE374694
:100E600000241E46DDF89C91CDF800E008E059F81A
:100E7000250001F049F90135B54247F8040B07D0C8
:100E8000002DF4DA20460135B54247F8040BF7D1BE
:100E9000DDF800E0A8F10403BAF1000F0293B8BF37
:100EA0004FEA8E0837DBDDF8049020AA4FEA8E085F
:100EB00002EB8E0248AF0AEB0E01CDE907E8CDF850
:100EC00010A0CDF814B09246CB46B846009103EB83
:100ED0008E05B9F1000FB8BF00240FDB5746002480
:100EE000029E57F8041D56F8040F01F061F90146FF
:100EF000204601F055F8AE420446F2D1009B0BF1BA
:100F0000010B9B4548F8044B0AF1040AE1D1DDE9E5
:100F100004ABDDE907E8029BD14603EB08050CAB07
:100F200003EB8A03043B07930CAB03EB8A03CDF876
:100F300010A09A46CDF82CB0CDF820E05CAB03EBC6
:100F4000890353F850BCB9F1000F4FEA89030093AD
:100F500022DD0DF590780CAF08EB03064FF06E51D3
:100F6000584601F025F901F0FFFA01F0CDF84FF0F5
:100F70008741044601F01CF90146584601F00EF87D
:100F800001F0F2FA56F8041D47F8040B204601F070
:100F900007F846458346E1D1039F5846394600F09D
:100FA0003BFB4FF07851044601F002F900F090FB52
:100FB0004FF0824101F0FCF80146204600F0EEFFC0
:100FC000044601F0D1FA064601F09EF8014620469B
:100FD00000F0E4FF002F80463A4640F3818009F19B
:100FE000FF300CAB53F82070C2F1080347FA03F14D
:100FF00001FA03F3FF1A0CAB43F82070C2F10703A8
:101000001F41002F0E4400F312810021404601F0E1
:1010100063FA002800F0BB80049B99450CDD002199
:10102000009B30336B4453F8042D534541EA0201D1
:10103000F9D1002940F01681049B0CAA013B52F81B
:101040002330002B40F00A810123079951F8042D29
:101050000133002AFAD04B4409F101060699089A97
:1010600001EB060808F18048679908F1FF384A4407
:1010700001EB8808DDF8009020A901EB820748AA5F
:1010800091440093CDF814A058F8040F01F03CF8F7
:10109000019B47F8040B002B1ADBBB460024DDF84C
:1010A00008A05BF8041D5AF8040F01F081F801460E
:1010B000204600F075FFAA450446F2D1009B013698
:1010C000B34249F8044FDFDA9946DDF814A035E75A
:1010D0000024009B0136B34249F8044FD4DAF3E709
:1010E00040F08D8009F1FF330CAA52F82370FF11F4
:1010F000002F8ADDB9F1000F06F1010640F3F881F7
:1011000000210CAB53F8044B002C74D0C4F5807450
:1011100043F8044C07E000BF48A700081A68C2F172
:10112000FF0243F8042B01318945F7DC0124039BBE
:10113000002B0FDD039B012B00F08580022B09D1D2
:1011400009F1FF310CAB53F821300CAA03F03F0337
:1011500042F82130022F7FF458AF41464FF07E50C5
:1011600000F01CFF8046002C3FF44FAF03994FF076
:101170007E5000F051FA0146404600F00FFF8046D5
:101180000021404601F0A8F900287FF445AFDDE9D1
:101190000A3B4046A3EB0B01DDF810A000F03CFA3F
:1011A0004FF08741044601F0B5F9002800F0818135
:1011B0004FF06E51204600F0FBFF01F0D5F900F032
:1011C000A3FF4FF08741054600F0F2FF014620469D
:1011D00000F0E4FE01F0C8F90CAB43F82900039BD2
:1011E00028460833039301F0BFF909F101050CAB60
:1011F00043F825004EE00131894583DC97E74FF045
:101200007C5101F087F9074600283FF4FEAEB9F1A2
:10121000000FC8BF022706F101063FF771AF414634
:101220004FF07E5000F0BAFE02278046EDE6B9F19D
:10123000000FD8BF002406F101063FF761AF039B02
:10124000012B7FF47BAF09F1FF310CAB53F8213058
:101250000CAA03F07F0342F821307BE709F1010675
:101260003346FBE6DDE9033A09F1FF35A3F1080255
:101270000CAB53F82530039263B909F18043013B6D
:101280000CA901EB830353F8041D013D083A002922
:10129000F9D003924FF07E50039900F0BDF9002D74
:1012A0008346C0F22F816C1C0CAB03EB8409A100B8
:1012B00000954FF06E584D46894648AB03EB8404C9
:1012C00055F8040D00F020FF594600F071FF41462B
:1012D00044F8040D584600F06BFF0CAB9D4283466A
:1012E000EED14946A9F108034FF00009009D48AA34
:1012F00034AC13440196A6464E46A846994623466A
:10130000CDE9024704950591BAF1000F74DB8C4DCD
:101310004FF0000B2F4600244D46009301E0B442ED
:101320000DDC55F8041F57F8040B00F041FF01468F
:10133000584600F035FE0134A2458346EFDA009BA3
:1013400008F1FF38B8F1FF3F43F804BB06F101068E
:10135000A9F10409D8D1DDE90164DDE90375669BD3
:101360000599022B4BDC002B19DC0ED1002034AB8D
:101370005C1854F8041D00F013FE34AB9C42F8D105
:10138000002F40F0B280099B186006F007005DB0A6
:10139000BDE8F08F08230A93002306934FE54FF032
:1013A0000009484634AB03EB010A5AF8041D00F06B
:1013B000F7FD34AB9A45F8D181460146349800F0E8
:1013C000EDFD002F40F08880099BC3F8009065B1C7
:1013D0004FF0010854F8041F08F1010800F0E0FD87
:1013E0004545F7DA0FB100F10040099B586006F05F
:1013F00007005DB0BDE8F08F4FF0000BA0E7669BE3
:10140000032BC2D1002D00F08D8034AB03EB850B94
:10141000D94653F825404FEA8508009559F8045CF1
:101420002046294600F0BCFDA24604462846214637
:1014300000F0B4FD514600F0B3FD34ABC9F8000034
:1014400049F8044D9945E9D1009D012D6AD034AB8E
:1014500053F825401D1D5BF804AC2046514600F0B2
:101460009FFDA14604465046214600F097FD49469F
:1014700000F096FDCBF800004BF8044D5D45EAD135
:10148000002008F1040434AB1C4403F1080854F8AC
:10149000041D00F085FDA045F9D1349A359B87B92C
:1014A00009990A604B60886006F007005DB0BDE8EE
:1014B000F08F204601F058F80CAB4D4643F8290058
:1014C000E8E6099902F1004203F1004300F100400F
:1014D0000A604B608860E7E7099B09F10049C3F89F
:1014E0000090002D7FF474AF7DE700F100404AE7E3
:1014F000022F7FF48AAD01464FF07E5000F04EFD82
:10150000804682E5669B022B08DC002B0CDC7FF416
:101510003CAF0020002F3FF436AFE6E7669B032B7D
:101520007FF433AF0020B8E734981FB90023099A3D
:1015300013605AE74FF00043099A136053E700BF66
:1015400054A7000820F00042B2F1FF4FF8B504465E
:101550004ED2002A43D00028034650DB10F0FF4251
:101560003ED0C1150024C3F31602A1F17F05CB07BD
:101570004FF0190E4FF0807C214642F4000258BF14
:1015800052006D10520001EB0C039342CFBF134683
:1015900003EB0C016444D31ABEF1010E4FEA43027F
:1015A0004FEA5C0CEFD1ABB11A4E3068716800F0B5
:1015B000F5FC37680146384600F0A2FF50B13068AC
:1015C000716800F0EDFC36680146304600F08EFF91
:1015D000E0B10234601000F17C5000EBC550F8BD62
:1015E0005B001802114602F10102F9D54942B9E740
:1015F000014600F0DDFD214600F0D2FCF8BD0146B9
:1016000000F0CCFC014600F087FEF8BD013424F068
:101610000104DFE780A7000810B50C4630F0004158
:1016200003461DD0B1F1FF4F1BD210F0FF4F024611
:101630001BD14FF0984100F0BBFD204A0346944275
:101640002CDBC0F3C75102464CF250308442A1F16A
:10165000190110DD18461A4961F31E0000F0A8FDBB
:1016600010BD014600F09CFC10BD4CF2503084428D
:101670004FEAD151EEDC2144FE29EBDC002911DCDC
:1016800011F1160F13DB01F1190022F0FF424FF0A8
:101690004C5142EAC05000F08BFD10BD094900F0EA
:1016A00087FD10BD22F0FF4242EAC15010BD18462E
:1016B000044961F31E0000F07BFD10BDB03CFFFF4C
:1016C000CAF249716042A20D004870470000C07F15
:1016D0002DE9F041C0F3C7557F3D162D044620F09B
:1016E000004725DC002D804614DB184F2F4138427F
:1016F0001BD0174900F054FC002100F015FFA0B1E9
:10170000002C03DA4FF400032B41984428EA070029
:10171000BDE8F0810E4900F043FC002100F004FF19
:1017200018B1002C0CDB002000E02046BDE8F08161
:10173000B7F1FF4FF9D3014600F032FCBDE8F0816C
:1017400017B94FF00040F1E70248EFE7FFFF7F00D5
:10175000CAF24971000080BF81F0004102E000BF81
:1017600083F0004330B54FEA41044FEA430594EA61
:10177000050F08BF90EA020F1FBF54EA000C55EA9C
:10178000020C7FEA645C7FEA655C00F0E2804FEA6D
:101790005454D4EB5555B8BF6D420CDD2C4480EA4F
:1017A000020281EA030382EA000083EA010180EA7F
:1017B000020281EA0303362D88BF30BD11F0004FCD
:1017C0004FEA01314FF4801C4CEA113102D0404203
:1017D00061EB410113F0004F4FEA03334CEA13333E
:1017E00002D0524263EB430394EA050F00F0A78056
:1017F000A4F10104D5F1200E0DDB02FA0EFC22FA51
:1018000005F2801841F1000103FA0EF2801843FA44
:1018100005F359410EE0A5F120050EF1200E012A35
:1018200003FA0EFC28BF4CF0020C43FA05F3C01873
:1018300051EBE37101F0004507D54FF0000EDCF1EC
:10184000000C7EEB00006EEB0101B1F5801F1BD395
:10185000B1F5001F0CD349085FEA30004FEA3C0C99
:1018600004F101044FEA445212F5800F80F09A808F
:10187000BCF1004F08BF5FEA500C50F1000041EB93
:10188000045141EA050130BD5FEA4C0C404141EB97
:101890000101013C28BFB1F5801FE9D291F0000F92
:1018A00004BF01460020B1FA81F308BF2033A3F141
:1018B0000B03B3F120020CDA0C3208DD02F1140C38
:1018C000C2F10C0201FA0CF021FA02F10CE002F173
:1018D0001402D8BFC2F1200C01FA02F120FA0CFC6C
:1018E000DCBF41EA0C019040E41AA2BF01EB0451B5
:1018F000294330BD6FEA04041F3C1CDA0C340EDCB3
:1019000004F11404C4F1200220FA04F001FA02F3F5
:1019100040EA030021FA04F345EA030130BDC4F1B3
:101920000C04C4F1200220FA02F001FA04F340EAA8
:101930000300294630BD21FA04F0294630BD94F059
:10194000000F83F4801306BF81F480110134013D40
:101950004EE77FEA645C18BF7FEA655C29D094EAB1
:10196000050F08BF90EA020F05D054EA000C04BF2F
:101970001946104630BD91EA030F1EBF002100201A
:1019800030BD5FEA545C05D14000494128BF41F0B9
:10199000004130BD14F580043CBF01F5801130BD1D
:1019A00001F0004545F0FE4141F470014FF00000A8
:1019B00030BD7FEA645C1ABF194610467FEA655C59
:1019C0001CBF0B46024650EA013406BF52EA0335FB
:1019D00091EA030F41F4002130BD00BF90F0000FE9
:1019E00004BF0021704730B54FF4806404F1320425
:1019F0004FF000054FF0000150E700BF90F0000FDE
:101A000004BF0021704730B54FF4806404F1320404
:101A100010F0004548BF40424FF000013EE700BFD4
:101A200042004FEAE2014FEA31014FEA02701FBF64
:101A300012F07F4393F07F4F81F06051704732F096
:101A40007F4208BF704793F07F4F04BF41F40021ED
:101A5000704730B54FF4607401F0004521F000414B
:101A60001CE700BF50EA010208BF704730B54FF0D5
:101A700000050AE050EA010208BF704730B511F0D6
:101A8000004502D5404261EB41014FF4806404F10E
:101A900032045FEA915C3FF4D8AE4FF003025FEA94
:101AA000DC0C18BF03325FEADC0C18BF033202EB18
:101AB000DC02C2F1200300FA03FC20FA02F001FA72
:101AC00003FE40EA0E0021FA02F11444BDE600BF15
:101AD00070B54FF0FF0C4CF4E06C1CEA11541DBFC4
:101AE0001CEA135594EA0C0F95EA0C0F00F0DEF88F
:101AF0002C4481EA030621EA4C5123EA4C5350EA74
:101B0000013518BF52EA033541F4801143F48013C4
:101B100038D0A0FB02CE4FF00005E1FB02E506F055
:101B20000042E0FB03E54FF00006E1FB03569CF0AA
:101B3000000F18BF4EF0010EA4F1FF04B6F5007FB0
:101B400064F5407404D25FEA4E0E6D4146EB060622
:101B500042EAC62141EA55514FEAC52040EA5E50AB
:101B60004FEACE2EB4F1FD0C88BFBCF5E06F1ED855
:101B7000BEF1004F08BF5FEA500E50F1000041EB8C
:101B8000045170BD06F0004646EA010140EA020039
:101B900081EA0301B4EB5C04C2BFD4EB0C0541EA5B
:101BA000045170BD41F480114FF0000E013C00F370
:101BB000AB8014F1360FDEBF002001F0004170BD94
:101BC000C4F10004203C35DA0C341BDC04F11404AD
:101BD000C4F1200500FA05F320FA04F001FA05F239
:101BE00040EA020001F0004221F0004110EBD37006
:101BF00021FA04F642EB06015EEA430E08BF20EA32
:101C0000D37070BDC4F10C04C4F1200500FA04F3D4
:101C100020FA05F001FA04F240EA020001F0004166
:101C200010EBD37041F100015EEA430E08BF20EAD9
:101C3000D37070BDC4F1200500FA05F24EEA020E21
:101C400020FA04F301FA05F243EA020321FA04F050
:101C500001F0004121FA04F220EA020000EBD37007
:101C60005EEA430E08BF20EAD37070BD94F0000F07
:101C70000FD101F00046400041EB010111F4801F3B
:101C800008BF013CF7D041EA060195F0000F18BFEC
:101C9000704703F00046520043EB030313F4801F28
:101CA00008BF013DF7D043EA0603704794EA0C0FE2
:101CB0000CEA135518BF95EA0C0F0CD050EA4106F8
:101CC00018BF52EA4306D1D181EA030101F0004175
:101CD0004FF0000070BD50EA410606BF104619469D
:101CE00052EA430619D094EA0C0F02D150EA0136A9
:101CF00013D195EA0C0F05D152EA03361CBF1046EA
:101D000019460AD181EA030101F0004141F0FE4188
:101D100041F470014FF0000070BD41F0FE4141F40C
:101D2000780170BD70B54FF0FF0C4CF4E06C1CEA0C
:101D300011541DBF1CEA135594EA0C0F95EA0C0FC1
:101D400000F0A7F8A4EB050481EA030E52EA03357C
:101D50004FEA013100F088804FEA03334FF080559D
:101D600045EA131343EA12634FEA022245EA1115CA
:101D700045EA10654FEA00260EF000419D4208BF7B
:101D8000964244F1FD0404F5407402D25B084FEA28
:101D90003202B61A65EB03055B084FEA32024FF4D4
:101DA00080104FF4002CB6EB020E75EB030E22BF31
:101DB000B61A754640EA0C005B084FEA3202B6EBF1
:101DC000020E75EB030E22BFB61A754640EA5C00A0
:101DD0005B084FEA3202B6EB020E75EB030E22BF30
:101DE000B61A754640EA9C005B084FEA3202B6EB31
:101DF000020E75EB030E22BFB61A754640EADC00F0
:101E000055EA060E18D04FEA051545EA16754FEA51
:101E100006164FEAC30343EA52734FEAC2025FEA6F
:101E20001C1CC0D111F4801F0BD141EA00014FF0FE
:101E300000004FF0004CB6E711F4801F04BF0143CF
:101E40000020B4F1FD0C88BFBCF5E06F3FF6AFAEEB
:101E5000B5EB030C04BFB6EB020C5FEA500C50F17B
:101E6000000041EB045170BD0EF0004E4EEA1131FE
:101E700014EB5C04C2BFD4EB0C0541EA045170BD05
:101E800041F480114FF0000E013C90E645EA060E49
:101E90008DE60CEA135594EA0C0F08BF95EA0C0F77
:101EA0003FF43BAF94EA0C0F0AD150EA01347FF4BF
:101EB00034AF95EA0C0F7FF425AF104619462CE796
:101EC00095EA0C0F06D152EA03353FF4FDAE1046F9
:101ED000194622E750EA410618BF52EA43067FF44A
:101EE000C5AE50EA41047FF40DAF52EA43057FF4DA
:101EF000EBAE12E74FEA4102B2F1E04324BFB3F583
:101F0000001CDCF1FE5C0DD901F0004C4FEAC00270
:101F10004CEA5070B2F1004F40EB830008BF20F054
:101F20000100704711F0804F21D113F13872BCBF0E
:101F300001F00040704741F480114FEA5252C2F163
:101F40001802C2F1200C10FA0CF320FA02F018BFAC
:101F500040F001004FEAC1234FEAD32303FA0CFCFF
:101F600040EA0C0023FA02F34FEA4303CCE77FEA8E
:101F7000625307D150EA01331EBF4FF0FE4040F4D8
:101F80004000704701F0004040F0FE4040F4000087
:101F9000704700BF80F0004002E000BF81F00041C8
:101FA00042001FBF5FEA410392EA030F7FEA226CFF
:101FB0007FEA236C6AD04FEA1262D2EB1363C1BF8F
:101FC000D218414048404140B8BF5B42192B88BFFE
:101FD000704710F0004F40F4000020F07F4018BF21
:101FE000404211F0004F41F4000121F07F4118BF41
:101FF000494292EA030F3FD0A2F1010241FA03FCE9
:1020000010EB0C00C3F1200301FA03F100F00043D0
:1020100002D5494260EB4000B0F5000F13D3B0F198
:10202000807F06D340084FEA310102F10102FE2A07
:1020300051D2B1F1004F40EBC25008BF20F0010077
:1020400040EA03007047490040EB0000013A28BF16
:10205000B0F5000FEDD2B0FA80FCACF1080CB2EB99
:102060000C0200FA0CF0AABF00EBC2505242184317
:10207000BCBFD0401843704792F0000F81F40001BC
:1020800006BF80F400000132013BB5E74FEA41038F
:102090007FEA226C18BF7FEA236C21D092EA030FFB
:1020A00004D092F0000F08BF0846704790EA010F75
:1020B0001CBF0020704712F07F4F04D1400028BFA2
:1020C00040F00040704712F100723CBF00F5000084
:1020D000704700F0004343F0FE4040F400007047BA
:1020E0007FEA226216BF08467FEA23630146420266
:1020F00006BF5FEA412390EA010F40F48000704779
:102100004FF0000304E000BF10F0004348BF40421E
:102110005FEA000C08BF704743F0964301464FF05A
:1021200000001CE050EA010208BF70474FF00003B6
:102130000AE000BF50EA010208BF704711F00043F7
:1021400002D5404261EB41015FEA010C02BF8446C7
:102150000146002043F0B64308BFA3F18053A3F526
:102160000003BCFA8CF2083AA3EBC25310DB01FA6D
:1021700002FC634400FA02FCC2F12002BCF1004FF1
:1021800020FA02F243EB020008BF20F00100704782
:1021900002F1200201FA02FCC2F1200250EA4C00D6
:1021A00021FA02F243EB020008BF20EADC7070471C
:1021B0004FF0FF0C1CEAD0521EBF1CEAD15392EA2A
:1021C0000C0F93EA0C0F6FD01A4480EA010C400206
:1021D00018BF5FEA41211ED04FF0006343EA501060
:1021E00043EA5111A0FB01310CF00040B1F5000FA2
:1021F0003EBF490041EAD3715B0040EA010062F151
:102200007F02FD2A1DD8B3F1004F40EBC25008BF3A
:1022100020F00100704790F0000F0CF0004C08BF58
:1022200049024CEA502040EA51207F3AC2BFD2F125
:10223000FF0340EAC250704740F400004FF0000333
:10224000013A5DDC12F1190FDCBF00F0004070476D
:10225000C2F10002410021FA02F1C2F1200200FAAB
:1022600002FC5FEA310040F1000053EA4C0308BF72
:1022700020EADC70704792F0000F00F0004C02BFC3
:10228000400010F4000F013AF9D040EA0C0093F03E
:10229000000F01F0004C02BF490011F4000F013B98
:1022A000F9D041EA0C018FE70CEAD15392EA0C0F06
:1022B00018BF93EA0C0F0AD030F0004C18BF31F071
:1022C000004CD8D180EA010000F00040704790F047
:1022D000000F17BF90F0004F084691F0000F91F0EB
:1022E000004F14D092EA0C0F01D142020FD193EAB1
:1022F0000C0F03D14B0218BF084608D180EA010039
:1023000000F0004040F0FE4040F40000704740F014
:10231000FE4040F4400070474FF0FF0C1CEAD052E2
:102320001EBF1CEAD15392EA0C0F93EA0C0F69D03E
:10233000A2EB030280EA010C49024FEA402037D0A9
:102340004FF0805343EA111143EA10130CF00040A0
:102350008B4238BF5B0042F17D024FF4000C8B4290
:1023600024BF5B1A40EA0C00B3EB510F24BFA3EB70
:10237000510340EA5C00B3EB910F24BFA3EB910340
:1023800040EA9C00B3EBD10F24BFA3EBD10340EA9A
:10239000DC001B0118BF5FEA1C1CE0D1FD2A3FF6E0
:1023A00050AF8B4240EBC25008BF20F00100704795
:1023B0000CF0004C4CEA50207F32C2BFD2F1FF0338
:1023C00040EAC250704740F400004FF00003013A69
:1023D00037E792F0000F00F0004C02BF400010F40D
:1023E000000F013AF9D040EA0C0093F0000F01F021
:1023F000004C02BF490011F4000F013BF9D041EA43
:102400000C0195E70CEAD15392EA0C0F08D1420275
:102410007FF47DAF93EA0C0F7FF470AF084676E748
:1024200093EA0C0F04D14B023FF44CAF08466EE721
:1024300030F0004C18BF31F0004CCAD130F00042EF
:102440007FF45CAF31F000437FF43CAF5FE700BF47
:102450004FF0FF3C06E000BF4FF0010C02E000BF70
:102460004FF0010C4DF804CD4FEA40024FEA410312
:102470007FEA226C18BF7FEA236C11D001B052EAC8
:10248000530C18BF90EA010F58BFB2EB030088BF8E
:10249000C81738BF6FEAE17018BF40F001007047FD
:1024A0007FEA226C02D15FEA402C05D17FEA236CDF
:1024B000E4D15FEA412CE1D05DF8040B704700BF26
:1024C000844608466146FFE70FB5FFF7C9FF0028BD
:1024D00048BF10F1000F0FBD4DF808EDFFF7F4FFF6
:1024E0000CBF012000205DF808FB00BF4DF808ED8F
:1024F000FFF7EAFF34BF012000205DF808FB00BFB2
:102500004DF808EDFFF7E0FF94BF012000205DF8D3
:1025100008FB00BF4DF808EDFFF7D2FF94BF012084
:1025200000205DF808FB00BF4DF808EDFFF7C8FF7D
:1025300034BF012000205DF808FB00BF4FEA4002D5
:102540004FEA41037FEA226C02D15FEA402C08D1B6
:102550007FEA236C02D15FEA412C02D14FF00000E8
:1025600070474FF0010070474FEA4002B2F1FE4F52
:102570000FD34FF09E03B3EB12620DD94FEA002345
:1025800043F0004310F0004F23FA02F018BF40421E
:1025900070474FF00000704712F1610F01D1420205
:1025A00005D110F0004008BF6FF0004070474FF0B9
:1025B0000000704770B5860747D0541E002A3ED0F1
:1025C0000346CAB201E0013C39D303F8012B9D0751
:1025D000F9D1032C2CD9CDB205EB05250F2C1A46C9
:1025E00005EB054534D9A4F1100C2CF00F0603F1CE
:1025F000100EB6444FEA1C1CC2E90055C2E9025550
:1026000010327245F8D10CF1010214F00C0F03EBFB
:10261000021204F00F0C13D0ACF1040323F00303F7
:102620000433134442F8045B9342FBD10CF00304DF
:102630002CB1C9B21C4403F8011BA342FBD170BDED
:1026400064461346002CF4D1F9E703461446C0E76C
:10265000A446E1E7014B1868704700BF0000002066
:1026600008B410B5002A04469DB034DB4FF4027C58
:102670004FF00003ADF814C01B934FF6FF7C02919E
:10268000069120AB15D0013A0492079202A91F9A35
:102690000193ADF816C000F0B7F9421C01DA8B23A4
:1026A00023600022029B1A701DB0BDE8104001B0EB
:1026B00070470492079202A91F9A0193ADF816C0C1
:1026C00000F0A2F9431C01DA8B2323601DB0BDE8A2
:1026D000104001B070478B234FF0FF302360F5E7C7
:1026E0000CB410B5204B00291C689CB036DB4FF0B1
:1026F00000034FF402721B934FF6FF7C029006908A
:10270000ADF814201FAB16D001391E9A0491079121
:10271000204602A90193ADF816C000F075F9421CDD
:1027200001DA8B2323600022029B1A701CB0BDE8E3
:10273000104002B070470491079120461E9A02A9EA
:102740000193ADF816C000F05FF9431C01DA8B234A
:1027500023601CB0BDE8104002B070478B234FF0DF
:10276000FF302360F5E700BF000000200020704725
:10277000024A0349034800F025B900BF28010020A0
:10278000FD550008080000200C4B416810B5994227
:10279000044601D002F032FFA168094B994202D0F1
:1027A000204602F02BFFE168064B994204D02046F8
:1027B000BDE8104002F022BF10BD00BFDC060020C3
:1027C00044070020AC070020002070472DE9F843A3
:1027D00000250423294C2A490822C4F8381104F1A1
:1027E0005C002946DFF89C90DFF89C80274F284E3C
:1027F000C4E90335C4E90055C4E90555A56065661B
:10280000FFF7D8FE234B0822294604F1C400636772
:10281000C4E90749C4E90987C4E91A55C4E91E5542
:10282000E6622567C4F8CC50C4F88050FFF7C2FEBA
:10283000194B2946C4F8DC30082204F1680304F57A
:102840009670C4F88430C4E92298C4E92476C4E9B7
:102850003455C4E93855C4F8D850C4F83451C4F8D4
:10286000E850FFF7A7FE04F1D003C4E93C98C4E99F
:102870003E76C4F8EC30BDE8F88300BFDC060020EB
:102880007127000895570008BD570008FD5700083C
:10289000215800080900010012000200F8B5254B7C
:1028A0000646D3F83831002B3CD0234FD7E901340A
:1028B000013B04D51DE05A1C04F1680419D0B4F999
:1028C0000C50013B002DF6D11C4B08222946C4E9CF
:1028D0000155C4E90455E36065662560A56104F10E
:1028E0005C00FFF767FEC4E90C55C4E911552046AA
:1028F000F8BD3D680DB12F46D8E74FF4D67130468C
:1029000001F08AFA044680B1042305602946254671
:102910000C304FF4D072A0606360FFF74BFE3C6058
:102920002F46C3E7FFF752FFBFE70C233860336041
:10293000DDE700BFDC060020280100200100FFFFCA
:10294000436B03B17047044B044AD3F838314263F8
:10295000002BF7D13AE700BFDC06002089270008EA
:10296000704700BF704700BF0020024A024900F0D4
:1029700029B800BF280100206D2700080020024A66
:10298000024900F01FB800BF28010020C927000835
:10299000002301461A46184602F046BF38B5074DD7
:1029A000074C2C1BA41005D0013C55F8043D98475A
:1029B000002CF9D1BDE8384007F0DCBC24AD00089C
:1029C00020AD00082DE9F8434FF0000980460F467E
:1029D0001646D6E90154013D10D4A389012B08D92C
:1029E000B4F90E30013304D021464046B84749EAD5
:1029F0000009013D6B1C04F16804EED13668002E1D
:102A0000E7D14846BDE8F8832DE9F04FC3B00C4646
:102A10000C9192460E930D9003F07EFD03681846CC
:102A2000149302F077FFA3891390190603D5236945
:102A3000002B00F0BE86002332AA19469146CDE94C
:102A400026332592129300220023D346CDE910238A
:102A5000CDE915110A919BF80030002B00F046815A
:102A60005C4604E014F8013F002B00F02381252B85
:102A7000F8D1B4EB0B0540F020812378002B00F057
:102A800035814FF000034FF0000A8DF877304FF09A
:102A9000FF33CDE9083A637804F1010B98460BF156
:102AA000010BA8F12003582B00F22D81DFE813F071
:102AB00050022B012B014B022B012B012B012B016F
:102AC0002B012B01140245022B011E0223022B01B4
:102AD0004002590059005900590059005900590045
:102AE000590059002B012B012B012B012B012B012C
:102AF0002B012B012B012B016800A6012B01A60144
:102B00002B012B012B012B017B022B012B019800A8
:102B10002B012B012B012B012B01A9002B012B01D8
:102B200058062B012B012B012B012B012B012B0113
:102B30002B012B012B016D026A00A601A601A60143
:102B400068026A002B012B015B022B01B8029A007C
:102B5000A702A2022B0180022B01AB002B012B014B
:102B600079060022A8F130031BF8018B02EB8202E8
:102B700003EB4202A8F13003092BF5D9099290E743
:102B80004AF0100A1AF0200F00F076810E9B0733EE
:102B900023F007031846596850F8083B0A460E9080
:102BA0000029C0F2918108999DF87700002908DB7F
:102BB0002AF08001069153EA020100F0B583DDF8A6
:102BC00018A00A2B72F1000180F0898630338DF84D
:102BD000C7300123CDF818A00B930DF1C70553E0C2
:102BE0004AF0100A1AF0200200F05F810E9B0021CB
:102BF000073323F0070318465A6850F8083B0E9035
:102C00000FE04AF0100A1AF0200200F044810E9BF7
:102C10000121073323F0070318465A6850F8083B90
:102C20000E900020089C8DF87700002C08DB2AF01D
:102C30008004069453EA020400F07783DDF818A0BC
:102C40000129BED0022900F0EF8232AD03F0070166
:102C5000DB0843EA4273D208303153EA02062C46BD
:102C600005F8011DF2D11AF0010F00F0EB823029B6
:102C700000F0E8823023023C05F8013C254632ABE7
:102C80001B1BCDF818A00B93089B0B9A9342B8BF5F
:102C90001346079300230F9310B1079B013307934B
:102CA000069B13F0020A42D0079B4FF0020A023340
:102CB00007933CE0B4EB0B0518D0279BC9E900B59E
:102CC0002B442793269B0133072B269305DC09F120
:102CD00008090A9B2B440A93CFE625AADDE90C10CC
:102CE00002F0ECFD30B90DF1C809F2E7279B002B8B
:102CF00040F065870C9B9B895B0601F12A800A984E
:102D000043B0BDE8F08FB8F1000FEFD000238DF88D
:102D1000773001238DF8A080079328AD0B93CDF871
:102D200018A04FF0000ACDF820A0CDF83CA0069BDB
:102D3000279C13F0840305D1099A0799561A002E8F
:102D400000F305839DF8772082B10122C9F80420A1
:102D5000269A013401320DF17701072A2794269231
:102D6000C9F8001000F32C8309F10809BAF1000F2B
:102D70000FD00222C9F80420269A023401321EA97B
:102D8000072A27942692C9F8001000F3278309F137
:102D90000809802B00F0BA81089B0B9A9E1A002E1E
:102DA00000F3F881069BDE0500F148810B9BC9F812
:102DB00000501C44C9F80430269B27940133072B8C
:102DC000269300F35A8209F10809069B5A0705D594
:102DD000099B079A9D1A002D00F30E83DDE9092354
:102DE00007998A42ACBF9B185B180A93002C40F0ED
:102DF0002F8200230DF1C80926932CE60E9B4FF07D
:102E0000FF32073323F00703F3E802450E9325F062
:102E1000004319931894DDE91867B64B30463946DC
:102E2000CDE9104505F0CAF9002840F026844FF09E
:102E3000FF3230463946AF4B05F0A2F9002840F08A
:102E40001C84002200232046294605F08FF9002823
:102E500040F043869DF87700032200212AF080038A
:102E6000A54D0693A54BCDE90721B8F1470FD8BF73
:102E70001D460B920F910FE70E9A1AF0100F52F8A1
:102E8000043B0E921BD11AF0400F18D043F3C0320E
:102E900011461BB284E60E9951F8043B0E911AF0CC
:102EA000100100F0E2830121BBE60E9951F8043BCA
:102EB0000E911AF0100100F0D0831146B1E6DA1736
:102EC00011460029BFF66FAE5B424FF02D004FF068
:102ED000010162EB4202A5E60E9B53F8042B002A87
:102EE00009920E9304DA099B5B4209934AF0040AA3
:102EF0009BF80030D2E5594611F8018BB8F12A0F42
:102F000000F06F87A8F13003092B98BF002200F270
:102F1000DF8611F8018B02EB820203EB4202A8F17B
:102F20003003092BF5D942EAE2738B460893B8E5E2
:102F30009BF800304AF0800AB0E52B238DF87730FB
:102F40009BF80030AAE59BF800304AF0010AA5E59D
:102F50009DF877209BF80030002A7FF49FAD202257
:102F60008DF877209AE59BF800306C2B03BF9BF817
:102F700001304AF0200A0BF1010B4AF0100A8DE5EE
:102F80009BF800304AF0400A88E5002201210E9BA0
:102F90008DF8772053F8042B07918DF8A0200E931D
:102FA00028AD0B91BBE69BF800304AF0080A75E5A6
:102FB00000260E9C089B54F8045B8DF87760002D6A
:102FC00000F03285002BC0F203841A4631462846B1
:102FD00003F054FA002800F06A86431B0B9323EA9F
:102FE000E3739DF8770008960E94CDF818A0079328
:102FF0000F9651E69BF800304AF0200A4EE547F65E
:1030000030030E9A3E48ADF8783052F8043B022166
:103010000E924FF0780800224AF0020A159000E65E
:103020001AF0200F00F00C830E9B0A9A1B681A609E
:10303000D2175A600E9B04330E930CE5B8F1650F5E
:1030400040F32781DDE910010022002305F084F818
:10305000002800F00E820123C9F80430269B294A7B
:1030600001330134072B27942693C9F8002000F37D
:10307000B48409F108091F9B129A934203DB069B53
:10308000DD077FF5A2AE139B149A1C44C9E9002307
:10309000269B27940133072B269300F3B88409F16C
:1030A0000809129B5D1E002D7FF78FAE102D269B09
:1030B00040F3D780DDE90CA81026134F05E009F195
:1030C0000809103D102D40F3CD8001331034072B3B
:1030D000C9E90076CDE92634F1DD5146404625AAFE
:1030E00002F0ECFB00287FF405AEDDE926340DF19B
:1030F000C809E6E7FFFFEF7F00AC0008FCAB000863
:1031000020AC00083CAC000898A70008099B079A6F
:103110009E1A002E7FF740AE102E269B40F3E085CE
:103120004A462146A946DDE90C544FF0100AB74F34
:1031300004E0103E102E02F1080215DD01331031BB
:10314000072BC2E9007ACDE92631F2DD2946204677
:1031500025AA02F0B3FB00287FF4CCADDDE92631CF
:10316000103E102E32AAE9DC4D460C469146013342
:103170003444072BCDE92634C9F80070C9F804603F
:1031800000F33884089B0B9A09F108099E1A002E57
:103190007FF708AE102E269B9C4F2CDD4A46214619
:1031A000B1464FF0100A2E46DDE90C5406E0A9F1B5
:1031B0001009B9F1100F02F1080218DD013393482C
:1031C0001031072BC2E9000ACDE92631EFDD29468F
:1031D000204625AA02F072FB00287FF48BADDDE9C2
:1031E0002631A9F11009B9F1100F32AAE6DC3546F3
:1031F0000C464E46914601333444072BCDE9263424
:10320000C9F80070C9F8046000F3F08109F10809F9
:10321000C8E501294FF00003DDF818A03FF4D6AC53
:1032200002291A467FF411AD159C32AD03F00F014F
:10323000615C1B0943EA0273120905F8011D53EA98
:103240000201F3D132AB5B1BCDF818A00B931BE549
:1032500025AADDE90C1002F031FB00283FF4C9ADCE
:1032600048E56A4F01332C44072BC9F80070C9F8B0
:103270000450CDE926347FF7A6ADDDE90C1025AA70
:1032800002F01CFB00287FF435AD279C0DF1C80926
:103290009BE5129B269E012B04F1010406F1010619
:1032A00009F1080840F35E810123072ECDE9266469
:1032B000C9F80050C9F8043000F3A581139B01360A
:1032C000149A1C44072EC8E90023CDE9266400F3B4
:1032D000A78108F10808129B0022DDE9100103F123
:1032E000FF39002304F038FF002840F056810136F2
:1032F00001354C44072ECDE92664C8F80050C8F8C3
:10330000049000F33D8108F10808169B01361C4427
:10331000C8F80430072E21ABCDE92664C8F8003088
:10332000ABDC08F1080950E50121089B002B7FF474
:1033300070AF002940F011811AF001030B9300F0E7
:103340007C8130230DF1C7058DF8C7309CE4102E29
:10335000269A2F4F26DD49462046A946DDE90C5422
:10336000179304E0103E102E01F1080116DD102322
:1033700001321030072ACDE926200F604B60F1DDC5
:103380002946204625AA02F099FA00287FF4B2AC1B
:10339000DDE92620103E102E32A9E8DC4D46044619
:1033A0008946179B01323444072ACDE92624C9F8FF
:1033B0000070C9F8046000F3018309F10809C1E451
:1033C00025AADDE90C10179302F078FA00287FF4A3
:1033D00091AC279C179B0DF1C809C7E425AADDE92C
:1033E0000C10179302F06AFA00287FF483AC279C34
:1033F000179B0DF1C809CCE4102D269B40F36D847A
:10340000DDE90CA81026024F09E000BF98A70008CC
:1034100088A70008103D102D09F1080916DD0133B9
:103420001034072BC9E90076CDE92634F2DD514688
:10343000404625AA02F042FA00287FF45BACDDE9A1
:103440002634103D102D0DF1C809E8DC01332C4461
:10345000072BC9E90075CDE926347FF7BFACDDE95C
:103460000C1025AA02F02AFA00287FF443AC279C0E
:10347000B4E41F99002940F36D820F9F129B9F4275
:10348000A8BF1F46002F0BDD269B3C440133072BB2
:10349000C9E900572794269300F3EB8309F1080943
:1034A0000F9E002FA8BFF61B002E00F3A9811F9BC3
:1034B000129A934280F27881139A14991444C9E9BC
:1034C0000012269A27940132072A269200F31783C6
:1034D00009F10809129A0F99D31A561A9E42A8BFE9
:1034E0001E46002E0EDD269A0D4401323444072A72
:1034F000C9F80050C9F804602794269200F3C883E5
:1035000009F10809002EB4BF1D469D1B002D7FF751
:103510005CAC102D269B7FF7A4AEDDE90CA810262D
:10352000B44F05E009F10809103D102D7FF79AAE60
:1035300001331034072BC9E90076CDE92634F1DDDB
:103540005146404625AA02F0B9F900287FF4D2ABD3
:10355000DDE926340DF1C809E6E7089B32AD0B938F
:10356000FFF792BB069BD9073FF59EAE0123072EBE
:10357000CDE92664C9F80050C9F804307FF7C5AE1C
:10358000DDE90C1025AA02F099F900287FF4B2AB0E
:10359000DDE926640DF1C808B7E6129B012B7FF721
:1035A000B4AE112B40F349821025924FDDF834A0C0
:1035B00007E008F10808A9F11009B9F1100F40F36C
:1035C0003D8201361034072EC8E90075CDE9266426
:1035D000EFDD50460C9925AA02F070F900287FF41F
:1035E00089ABDDE926640DF1C808E4E725AADDE929
:1035F0000C1002F063F900287FF47CAB279C0DF1DE
:10360000C809FFF7CFBB25AADDE90C1002F056F977
:1036100000287FF46FABDDE926640DF1C8084DE6A4
:1036200025AADDE90C1002F049F900287FF462AB0D
:10363000DDE926640DF1C8084DE632ADFFF724BB85
:103640001AF0100F40F002811AF0400F00F0FE80D7
:103650000E9B0A9A1B681A80ECE41AF040021CBF09
:103660000A469BB21146FFF7DCBA1AF040021CBFB3
:103670000A469BB20121FFF7D4BADDE910010246E8
:103680000B4604F09BFD002840F07583089B28F052
:1036900020065A1C00F0F982472E03D1002B08BFE8
:1036A000012308934AF48070DDE91012002A069085
:1036B000C0F23A8200231793DDE91034CDE91A34C1
:1036C000B8F1650F00F0008300F33582B8F1450FC3
:1036D00000F0FA82089B0D9801930223009323AB1C
:1036E000049320AB03931FAB0293DDE91A2300F090
:1036F000E1FE1AF0010F054600F0AE80089BC418E9
:103700000022DDE91A01002304F026FD002840F024
:103710003382239BA34206D230215A1C2392197074
:10372000239B9C42F9D81F9A0F925B1B472E129342
:1037300000F09780B8F1660F40F099800F99089AD1
:103740000AF00103002943EA020340F36982002BD7
:1037500040F02C830F9B4FF0660807930B9324E2F5
:10376000254B15931AF0200200F0AB800E9B073317
:1037700023F0070319465A6851F8083B0E911AF0D6
:10378000010F00F09B8053EA020100F09780302186
:103790008DF879808DF878104AF0020A0221FFF73F
:1037A00040BA164B1593DDE7069AD0077FF592AE27
:1037B00082E640210D9800F02FFB0C9B18601861E9
:1037C000002800F0C38240230C9A5361FFF733B9FD
:1037D000284602F09FF8034623EAE3730B9008960D
:1037E0009DF877000E94CDF818A00F960793FFF779
:1037F00053BA00BF98A700080CAC000820AC000822
:10380000102E269B40F3FC822246DDE90C4A4FF045
:103810001008C14F05E009F10809103E102E40F3D1
:103820004D8101331032072BC9E90078CDE92632EA
:10383000F1DD2146504625AA02F040F800287FF429
:1038400059AADDE926320DF1C809E6E70E9B0A9A6E
:103850001B681A60FFF7EEBB239B1B1A12931F9B7A
:103860000F930F9BDF1C80F28B81A8F102080F9A47
:103870008DF88480531E002BA8BF2B221F93BCBF42
:10388000C2F101032D22092B8DF8852000F39E81C2
:1038900030338DF8873030238DF88630042316932B
:1038A000129A169B012A13440B9340F335820B9B0B
:1038B000139A134400220B930F9273E10221FFF736
:1038C000B0B90E9951F8043B0E911AF010017FF433
:1038D00056AF1AF040021CBF0A469BB24FE74FF0AA
:1038E000CC3E0527CDE9068A8C4C32AD9C46164667
:1038F000991841F10001A4FB018A2AF0030808EBA2
:103900009A08A1EB08015B1A62F100080EFB03F2B2
:1039100004FB0822A3FB048308F0010A1A44AAFB53
:10392000073A5B18BCF10A0F03F130034FEA58085D
:1039300076F1000605F8013D48EAC2734FEA5202EB
:10394000D4D2DDE9068A32AB5B1BCDF818A00B930D
:10395000FFF79AB90123C9F80430269B704A013356
:103960000134072B27942693C9F8002000F3BA806E
:1039700009F1080900296DD1069B129A03F0010391
:1039800013433FF422AA139B14991A19C9E900138F
:10399000269B27920133072B269300F34A8109F1D6
:1039A0000809129901338C18072BCDE92634C9F880
:1039B0000050C9F804107FF706AA5EE425AADDE9E5
:1039C0000C10179301F07AFF00287FF493A9279C2D
:1039D000179B0DF1C809FFF7B5B925AADDE90C1051
:1039E00001F06CFF00287FF485A9279C0DF1C80920
:1039F000FFF741BB25AADDE90C1001F05FFF0028AD
:103A00007FF478A9279C0DF1C809FFF7C5B925AA4D
:103A1000DDE90C1001F052FF00287FF46BA9279C10
:103A20000DF1C809FFF73DBB062B28BF06233D4D0E
:103A30000B930E940793FFF772B9374F01364C443E
:103A4000072ECDE92664C8F80070C8F804907FF707
:103A50005AAC95E5139B14981A19C9E90003269BE3
:103A600027920133072B269300F3E38009F108091D
:103A7000002996DA4E42103180F23581DDE90CA83A
:103A80001024254F05E009F10809103E102E40F3DF
:103A90002B8101331032072BC9E90074CDE926329E
:103AA000F1DD5146404625AA01F008FF00287FF4C9
:103AB00021A9DDE926320DF1C809E6E714460133F4
:103AC0003444072BCDE92634C9F80070C9F80460E6
:103AD00000F3BD8009F10809E9E42D208DF8770095
:103AE000FFF7BAB925AADDE90C1001F0E7FE0028BE
:103AF0007FF400A91F99279C0DF1C8093AE725AA70
:103B0000DDE90C1001F0DAFE00287FF4F3A81F9B1A
:103B1000279C0DF1C809DDE498A70008CDCCCCCCDA
:103B20003CAC000834AC00082D23179302F100438D
:103B30001A911B93C4E5B8F1660F7FF4CBAD032354
:103B4000089FCDE9003723AB049320AB03931FAB51
:103B500002930D98DDE91A2300F0ACFCB8F1660F72
:103B6000054600EB07047FF4CBAD2B78302B00F03B
:103B7000F5801F9F3C44C3E51F9A23460F92D4E56E
:103B8000089A9A42FFF671AE129B0F9A934200F385
:103B9000C9801AF0010F0F9B1CBF139A9B180B933F
:103BA0004FF0670823EAE3730793179B002B5AD063
:103BB0002D238DF8773000230893FFF76EB825AAE0
:103BC000DDE90C1001F07AFEFFF794B80DF19306D1
:103BD00032468C4F1C461046A7FB0321C90801EB57
:103BE0008102A3EB42023032632C00F8012C0B4619
:103BF00000F1FF32EEDC303302F8013C831EB342A9
:103C000080F0FB800DF1850213F8011BB34202F82E
:103C1000011FF9D142AB181AA0F1710316933FE6C8
:103C2000002B40F0D28001234FF0660807930B93DE
:103C3000BBE725AADDE90C1001F040FE00287FF467
:103C400059A8DDE926321F990DF1C80910E725AA08
:103C5000DDE90C1001F032FE00287FF44BA8279C10
:103C60000DF1C80923E4179B9DF877000893FFF72F
:103C700013B825AADDE90C1001F020FE00287FF41E
:103C800039A8279C0DF1C8090AE40623089309E521
:103C900025AADDE90C1001F011FE00287FF42AA806
:103CA0001F9B129A279C0DF1C809D31A2AE4089B7E
:103CB0000E9407930B9303460890CDF818A09DF837
:103CC00077000F93FEF7E8BF089A0223571C38E7E6
:103CD00000238B460893FEF7E4BE4B4FFFF7B6BBBD
:103CE0004A4FFFF744BA494F01333244072BCDE91D
:103CF0002632C9F80070C9F804607FF750AEDDE9DC
:103D00000C1025AA01F0DAFD00287EF4F3AFDDE9FE
:103D100026320DF1C80944E61AF001020F927FF431
:103D2000C6AD3FE7DDE9123213440F9A0B93002A28
:103D30003FF736AF0F9B0B9AC3F101031A4422EAF7
:103D4000E2734FF067080B9207932EE70C230D9A4E
:103D500013604FF0FF330A93FEF7D1BF0022DDE975
:103D60001A01002304F0F8F950B31F9B1C440F9371
:103D7000631B1293E2E4119B0322002BB8BF2D209A
:103D80004FF000012AF08003214D0693214BACBF78
:103D90009DF877008DF87700CDE90721B8F1470F3E
:103DA000D8BF1D460B920F91FEF776BF139B4FF0C5
:103DB00066081A4453180B9323EAE3730793F4E657
:103DC000C7F101071F973C449AE4139B03F10108D4
:103DD000089B43440B9323EAE3734FF06608079371
:103DE000E3E60E9A9BF801308B4652F8041B0E92C4
:103DF00041EAE1720892FEF751BE022316934FE5A5
:103E0000024F5CE6CDCCCCCC88A7000898A7000870
:103E100008AC000804AC00082DE9F04F01F10B05D7
:103E2000162D064683B024D8102900F2AD8001F08B
:103E300041FD102518234FF0020CC14F3B445C6834
:103E4000A3F10802944200F0238130466368E268DF
:103E5000A16823F00303CA60234491605A680834C0
:103E600042F001025A6001F027FD204603B0BDE890
:103E7000F08F35F0070500F18780A94200F28480B9
:103E800001F018FDB5F5FC7FC0F06C816B0A7FD0A6
:103E9000042B00F22481AB0903F1390C03F1380E35
:103EA0004FEACC00A64F384444680838A04207D1F6
:103EB0000DE0002AE16880F2E580884207D00C46D8
:103EC000636823F003035A1B0F2AF2DDF446DFF880
:103ED00074823C69444500F0C280636823F00309A2
:103EE000A9EB05030F2B00F34281002BC7E90488DF
:103EF00080F22C81B9F5007FD7F804E080F0CF8004
:103F000001234FEAD9014FEA5919194403FA09F379
:103F100057F831204EEA030E07EBC103083BA260BD
:103F2000E360C7F804E047F83140D46001204FEA6D
:103F3000AC039840704532D810EA0E0F07D12CF030
:103F4000030C400010EA0E0F0CF1040CF9D007EB43
:103F5000CC0AD646E146DEF80C300BE059681C4628
:103F600021F003014A1B0F2ADB6800F3C580002AF9
:103F700080F2D9809E45F1D109F1010919F0030FB2
:103F80000EF1080EE7D11CE10C23336000246CE72E
:103F90004FF400704FF0400C4FF03F0E82E7BC68CA
:103FA000636823F00309A94503D3A9EB05030F2B8D
:103FB00058DCDFF894B104EB0903DBF8002008209B
:103FC000103202EB0508009301F0D6FBD7F8081475
:103FD0000246013105D008F1FF388044414201EA30
:103FE000080841463046009201F0C2FCB0F1FF3FA4
:103FF0008246009A00F0D68004EB0903834200F267
:10400000CF80DBF8041002F1FF3C41440846CBF8B6
:10401000041040F0F3801AEA0C0F40F0EF80D7F85C
:1040200008A0C84448F00100CAF804005446DBF870
:104030002C208A42DBF8302038BFCBF82C108A4283
:1040400038BFCBF8301020F00308A845A8EB0503D3
:1040500001D30F2B06DC304601F02EFC96E7D7F893
:1040600004E063E7621943F0010345F00105656070
:104070003046BA600834536001F01EFC204603B09D
:10408000BDE8F08FA2683046D16023448A60E5E63F
:10409000DC68A3427FF4D9AE0CF1020C17E7B9F546
:1040A000206F4FEA592274D3142A00F2078102F1DB
:1040B0005C03DB005B32F918FB580839994203D1E5
:1040C000E4E09B68994204D05A6822F003024A4512
:1040D000F7D8D968C4E902318C60DC6026E7142B7C
:1040E00063D9542B00F2F3802B0B03F16F0C03F117
:1040F0006E0E4FEACC00D5E6D4F808C030466619FB
:1041000045F001056560CCF80C30C3F808C042F0FA
:104110000103C7E90466C6E902887360625001F0D2
:10412000CBFB0834A1E621444A68304642F0010244
:104130004A6054F8082FD3609A6001F0BDFB94E602
:10414000380100204001002018080020A144D9F8BF
:104150000430304643F00103C9F8043001F0ACFBF1
:10416000083482E64FEAD50C05F1080365E66219CA
:1041700043F0010145F0010565603046C7E90422BE
:10418000C2E90288516044F8093001F095FB083417
:104190006BE64FEA991202F13903DB0038328AE705
:1041A000BC4224D0BC6860684DE703F15C0C03F1AD
:1041B0005B0E4FEACC0075E65AF80839534540F0DB
:1041C000D6801CF0030F0CF1FF3CF5D17B6823EA8D
:1041D00000037B60400098423FF6E1AE18B9DEE68E
:1041E000400009F104091842FAD0CC46AFE6DBF8EA
:1041F000040002F1FF3C4044CBF80400D7F8081457
:1042000001316FD004EB0903AAEB03031844CBF888
:1042100004001AF00703009341D0C3F108018A4457
:10422000D0440A4408EA0C01521A02EA0C01304652
:10423000019101F09DFB421C71D00199A0EB0A0095
:1042400000EB0108DBF8042048F001001144BC42F7
:10425000C7F808A0CBF80410CAF804003FF4E6AE93
:10426000B9F10F0F41D905236268A9F10C0020F0C4
:10427000070002F00102024362600F2804EB000213
:10428000C2E9013353D8DAF80400CFE601209210D6
:1042900000FA02F24EEA020EC7F804E01AE70AEB4F
:1042A000080101EA0C01521A02EA0C0130460191A0
:1042B00001F05EFB431CC0D10099C3E7542A18D813
:1042C0004FEA193202F16F03DB006E32F3E6B3F509
:1042D000AA7F18D8EB0B03F1780C03F1770E4FEAA5
:1042E000CC00DFE5C7F808A493E70123CAF804303F
:1042F000B1E6B2F5AA7F24D84FEAD93202F17803A9
:10430000DB007732D7E640F25452934224D8AB0C0C
:1043100003F17D0C03F17C0E4FEACC00C2E5009B5B
:104320000021A3F108029044A8EB0A088AE704F1EF
:104330000801304601F066F8DBF80410D7F808A051
:10434000A1E740F254539A420DD84FEA994202F144
:104350007D03DB007C32AEE64FF47E704FF07F0CC5
:104360004FF07E0E9EE54FF47E737E22A3E67B68BF
:1043700030E700BF000000002DE9F04F03690C6931
:1043800085B0A342C0F291808146013C01F1140541
:1043900009F1140855F8243058F824C001339C451D
:1043A000BCFBF3F64FEA840005EB840708EB8402BC
:1043B00043D34FF0000CAA46CDE90105C64663463B
:1043C00065469346CDF80C805AF8040BDEF80020C1
:1043D0001FFA80FC06FB0C554FEA10484FEA154CBB
:1043E00006FB08CCADB290B2401B18441FFA8CF308
:1043F000C3EB204303EB124380B240EA034057452E
:104400004EF8040B4FEA1C454FEA2343DCD2DDE9AA
:104410000105DDF80C8058F8003073B9ABF10402E7
:10442000904504D307E0904504F1FF3403D252F8DD
:104430000439002BF7D0C9F81040484601F0BCFD04
:1044400000282EDB4146002255F8040BD1F800C0AD
:104450001FFA80FE1FFA8CF3A3EB0E031344020C29
:10446000C2EB234202EB1C429BB243EA0243AF423F
:1044700041F8043B4FEA2242E6D258F8242008EBE8
:1044800084036AB9043B434504D807E0984504F126
:10449000FF3403D253F80429002AF7D0C9F810409A
:1044A0000136304605B0BDE8F08F002005B0BDE80C
:1044B000F08F00BF2DE9F04F16461F46816B9DB06F
:1044C000CDE90667299D039049B10123C26B0446DB
:1044D00093408B604A6001F0BBFA0023A363B7F1FD
:1044E0000009B4BF012300232B60794BBCBF29F026
:1044F0000049CDF81C9033EA090300F0AD80DDE9F6
:1045000006341846214600220023CDE9040103F0B9
:1045100023FE804668B10123289A13602A9B13B1B9
:104520006C4B2A9A13606C4B089308981DB0BDE839
:10453000F08F1AAB01931BAB00930398DDE90423C2
:1045400001F098FE5FEA1955824640F09B80DDE954
:104550001A85454405F23243202B40F38D83C3F185
:10456000400309FA03F905F2124326FA03F349EA74
:104570000300FDF733FA0123013D1193A1F1F87116
:104580000022564BFDF7ECF84BA3D3E90023FDF7CF
:104590009FFA4BA3D3E90023FDF7E4F8064628462B
:1045A0000F46FDF72BFA48A3D3E90023FDF790FA55
:1045B00002460B4630463946FDF7D4F806460F460C
:1045C00003F012FE002204460990002330463946CB
:1045D00003F0CCFD002840F02583099CA8EB0508DA
:1045E00008F1FF33162C0A9300F29181DDE90401F2
:1045F0003B4B03EBC403D3E9002303F0B7FD0028D2
:1046000074D0631E09930023109308F1FF33002B2D
:10461000C0F2848100230B93099B002B6CDA099B69
:104620000B9A0E93D21A5B420F9300230993269B99
:104630000B92092B6AD8052B40F323830025043BFA
:104640002693269B023B032B00F24186DFE813F002
:1046500072046F0466044A0442F20F73289AC9F385
:10466000130959EA060913601CD12A9B002B00F09C
:104670004E861C4B089308332A9A089813601DB085
:10468000BDE8F08FDDE90412C2F31303084643F0DE
:104690007F51CDF84480A5F2FF35DDF8688041F404
:1046A00040116DE72A9B002B40F0F7830E4B0893D7
:1046B0003BE700BFAFF3008061436F63A787D23F42
:1046C000B3C8608B288AC63FFB799F501344D33F01
:1046D0000000F07F3DAC00083CAC00080000F83F53
:1046E000B8A7000840AC00084CAC0008B8F1000FB7
:1046F00040F3A88410900B90DDE9092313440A933A
:1047000000230F93269B0E92092B94D90023012599
:104710004FF0FF3B269327930C950021039BCDF888
:1047200060B0D963039801F06DF90890002800F09B
:10473000D785039B089ABBF10E0F9A6300F219818B
:10474000002D00F016810E99002940F34984B44BE6
:1047500001F00F0203EBC203C8054FEA2115D3E9AC
:10476000006740F10A84DDE90401AE4B4FF0030914
:10477000D3E90823FDF7D6FACDE9120105F00F05BC
:104780008DB1DFF8A082E90709D5D8E900233046CA
:104790003946FDF79DF906460F4609F101096D10EE
:1047A00008F10808EFD1DDE912013B463246FDF77A
:1047B000B9FA07468846109B43B100223846414665
:1047C000994B03F0D3FC002840F010854846FDF7D4
:1047D00015F93A464346FDF77BF90022934BFCF767
:1047E000C1FF0446A1F15075BBF1000F00F0AA8093
:1047F0000E9BCDF848B019934146384603F0F4FCBF
:104800001299874BCDE9144503EBC10353E90234F8
:104810000546CDE91634FDF7F1F80B460246414650
:104820003846FCF79DFF089F0C9B30357E1CECB290
:10483000804689463546002B00F06E84DDE916235C
:1048400000207B49FDF76EFADDE91423FCF788FFB1
:104850003C7042464B4604460D4603F0A5FC00283A
:1048600040F0BB84CDF850A0CDF858B00027AB463F
:10487000A246129D2AE00137AF4280F201855046E0
:10488000594600226B4BFDF723F90022694B824603
:104890008B4640464946FDF71BF98946804603F0A2
:1048A000A3FC0446FDF7AAF802460B4640464946DB
:1048B000FCF756FF303452465B4606F8014B804603
:1048C000894603F053FC002840F0D78442464B460B
:1048D00000205549FCF744FF52465B4603F046FC76
:1048E0000028C8D0199B3746DDF850A0089A03F17C
:1048F000010802E0974200F09F843E4617F8013D10
:10490000392BF7D00133DBB245463B7079E1012307
:10491000109308F1FF33002BBFF67CAEC8F1010302
:104920000B9300230A9377E64846FDF767F83A466B
:104930004346FDF7CDF800223C4BFCF713FF04463D
:10494000A1F15075384600223B4B4146FCF708FF69
:1049500022462B4606460F4603F026FC002840F070
:104960007A8430463946224605F1004303F0FEFBC7
:1049700028BB1B9B002BC0F291800E9A0E2A00F3DD
:104980008D80274B0E9A03EBC203D3E90034CDE9A7
:104990000634279B002B19DABBF1000F16DC0ED171
:1049A000DDE906010022244BFDF792F802460B4692
:1049B000DDE9040103F0E4FB002800F04C8400234F
:1049C0001F46089E0493279BDD432DE2089B5D1C38
:1049D000DDE90678DDE904013A464346FDF7A2F930
:1049E00003F002FC0646FDF709F83A464346FDF798
:1049F0006FF802460B46DDE90401FCF7B1FE089AA8
:104A000006F13003BBF1010F2F46137000F0258330
:104A10000125CDF810A0A846DDE9069A2CE000BFDC
:104A2000B8A70008A8A800080000F03F00001C403C
:104A30000000E03F00002440000014404A46534676
:104A400020462946FDF76EF903F0CEFB0646FCF73B
:104A5000D5FF4A465346FDF73BF808F101080B46DF
:104A6000024629462046FCF77BFE06F13003D84576
:104A700007F8013B00F0EF820022834BFDF728F896
:104A80000022002304460D4603F066FB0028D5D023
:104A90000E9D3E46DDF810A00135B2E00C9A002ACA
:104AA00040F0D68000231F460F9E0B9D0C9365B1EE
:104AB0000A9900290B4608DDA942A8BF2B460B9A8C
:104AC000ED1AD21ACB1A0B920A930F9B53B10C9B7F
:104AD00013B1002E40F0FC8251460F9A039801F06A
:104AE0009BF982460121039801F0B6F8099B0490D6
:104AF000002B40F0BD81269B012B40F3D381012088
:104B00000A9A104410F01F0000F09980C0F12003B1
:104B1000042B40F3E2810B9BC0F11C0003440244D0
:104B20000B9305440A920B9B002B05DD51461A4658
:104B3000039801F0CBF982460A9B002B05DDDDE9E5
:104B400003011A4601F0C2F90490109B002B40F0BB
:104B50007481BBF1000F40F34B810C9B002B40F0A4
:104B6000A2800E9D01350126DDE90394DDF8208049
:104B700007E0514600230A22484600F073FF8246B0
:104B8000013621465046FFF7F7FBB34500F13000F0
:104B900008F8010BEDDCBBF1000FCCBF5E4601262F
:104BA00081460024089B03EB060B51460122039823
:104BB00001F08CF90499824601F0FEF9002840F3D7
:104BC000F081089A02E0934500F005821BF8013C51
:104BD0005E46392B0BF1FF3BF5D001338BF80030EB
:104BE000DDE90381404600F033FF57B12CB1BC42F0
:104BF00003D02146404600F02BFF3946039800F0D1
:104C000027FF5146039800F023FF00233370289BB1
:104C10001D602A9B002B3FF488AC08981E601DB0D5
:104C2000BDE8F08F2046FCF7E9FE32463B4603F034
:104C300093FA00287FF4D1AC631E0993CDE41C23C2
:104C40000B9A1D441A440B920A9A1A440A926AE774
:104C5000269A012A40F3B0810F9B0BF1FF36B34235
:104C6000C0F26B81BBF1000FA3EB060680F2F78266
:104C70000B9BA3EB0B056EE1C3F1200306FA03F0D7
:104C800077E40125DDE400BF00002440394600231D
:104C90000A22039800F0E6FE189B0746002B40F31B
:104CA00007839B460E96002D05DD39462A4603985C
:104CB00001F00CF90746099B002B40F0ED81B84646
:104CC000089B1E46013B03EB0B04069B03F001030C
:104CD000CDE90A43039C04995046FFF74DFB394642
:104CE0008346504601F068F904990546424620463D
:104CF00001F082F9C36801460BF13009ABBB0990A2
:104D0000504601F059F909990990204600F0A0FE9B
:104D1000099A002A54D1269B1BB90B9B002B00F04B
:104D2000B582002D3FDBB3460A9B0BF8019B9E42E8
:104D300000F0C981514600230A22204600F092FE6D
:104D40004745824639464FF000034FF00A0220469D
:104D500030D000F087FE414600230A220746204655
:104D600000F080FE5E468046B5E7039800F070FED6
:104D7000002D06DB069B03F00102269B1D432A4300
:104D800029D151460122039801F0A0F804998246E6
:104D900001F012F9002840F3F880B9F1390F00F062
:104DA00050820BF131090E9D3C460135474606F80D
:104DB000019B15E700F056FE5E46074680468AE7EF
:104DC000002DC0F29B82269B1D430B9B1D4300F0D0
:104DD0009582002AA7DDB9F1390F00F032820E9DCD
:104DE00009F101033C460135474606F8013BF7E669
:104DF000269B022B7FF7B1AEBBF1000F40F029815B
:104E00005B4605220499039800F02CFE01460490AD
:104E1000504601F0D1F8002840F31B8131230E9D4C
:104E2000089E013506F8013BDDE9030100F010FEA4
:104E30000135002F7FF4E1AEE3E65046049901F01E
:104E4000BBF80028BFF685AE514600230A2203981E
:104E50000E9C00F007FE0C9B8246661E002B7FF422
:104E600015AF189B002B40F318829B460E9D7AE6E7
:104E700001461A46039800F0CFFF269B0490012BB1
:104E80006FDD00230993049A136902EB8303186909
:104E900000F092FEC0F1200032E69B4B08930333F2
:104EA000FFF7EABB069B002B7FF429AEDDE9061273
:104EB000C2F31303002B7FF422AE944B134033B1A3
:104EC0000B9B01330B930A9B01330A930123099A2D
:104ED0000993002A3FF413AED5E73FF424AEC0F1A6
:104EE0003C03ADE601230C93279B0E9A134403F178
:104EF000010B5E46012EB8BF01261893172E40F312
:104F00000182012204235B0003F11400B042114628
:104F100002F10102F7D9039BD96303E401230C9347
:104F2000279B002B38DD9B461E461893E6E700239F
:104F30000C93D9E700230C93F2E70F9B0F96F31A1B
:104F40000026099A1A440A9B09925B440A930B9B18
:104F50001D465B440B930121039800F07DFE07463C
:104F6000A5E5069B002B8CD1DDE90601C1F31303F7
:104F70000A46002BA1D0099085E7DDE904344FF003
:104F80000209CDE91234FFF7FBBB7FF40CAF19F037
:104F9000010F7FF402AF06E701239B462793FFF73B
:104FA000BCBB03D119F0010F7FF40BAE5E461BF8BA
:104FB000013D302BFAD013E6119A002A00F09F80B1
:104FC00003F233430A9A0F9E1A440A920B9A15462B
:104FD0001A440B92BFE73123089A01351370FFE59D
:104FE00000F0FE80DDE904010E9A494B554205F0C0
:104FF0000F0203EBC203D3E90023FCF769FD2D1177
:10500000CDE9120100F05D8100234FF0020907464F
:105010008846404EEA070AD5D6E90023384641467D
:10502000FCF756FD01230746884609F101096D107A
:1050300006F10806EED1002B7FF4BDABDDE9127856
:10504000FFF7B9BBC8F101030A900B931090FFF76B
:1050500053BB089EB7E4DDF810A002460B46FCF7F0
:1050600081FB03460C46DDE906010E9D1A46CDE99B
:10507000043401352346A84603F078F840B9DDE949
:105080000423DDE9060103F067F818B1F30701D541
:10509000089A32E43E46B4E50398796800F0B2FC21
:1050A0000546002800F023813B6907F10C0102331B
:1050B0009A000C3000F0EAFA01222946039800F029
:1050C00005FF8046FCE50E9D3C46013547466CE5F4
:1050D000039C39463246204600F09EFE0746524663
:1050E0003946204600F0E6FD51468246204600F053
:1050F000AFFC0F9B9B1B0F933FF4F4ACECE41A9BAB
:10510000C3F136035EE700BF4CAC00080000F07F3F
:10511000B8A70008A8A80008DDE91623DDE91401F6
:10512000FCF7D6FC089BCDE90C011C70129B012BEF
:1051300000F0C580129F089B11961F4400227C4BF3
:1051400040464946FCF7C4FC0D46044603F04CF8C3
:105150008146FCF753FC02460B4620462946FCF7E5
:10516000FFFA09F1300906F8019BBE4280468946E4
:10517000E4D1119D0022DDE90C016E4BFCF7F2FA3F
:1051800002460B464046494603F00EF800286ED111
:10519000DDE90C2300206749FCF7E2FA02460B46E2
:1051A0004046494602F0E2FF80B91B9B002BFFF608
:1051B00079AC0E9B0E2B3FF775AC5F4B0E9A03EB51
:1051C000C203D3E90034CDE9063401E417F8013C09
:1051D0003E46302B07F1FF37F8D0199D013510E519
:1051E0004FF00209DDE90478FFF7E5BABBF1000FE3
:1051F0003FF49AAB189C002C7FF7BBAB0E9B384654
:10520000013B414600221993494BFCF761FC0246E1
:105210008846174609F10100FCF7F0FB3A46434681
:10522000FCF756FC0022454BFCF79CFA1294A1F1C6
:1052300050750446FFF7E0BA312308F10108FFF783
:1052400063BBB34639230E9D3C46089A4746013559
:105250000BF8013BBAE400231F460493DEE50A9BEA
:105260005B440A930B9B1D465B440B9373E6199BAF
:10527000089A03F10108FFF740BBDDF850A0ACE746
:10528000DDF850A0DDF858B0FFF773BBB9F1390F66
:10529000D7D0002D3FF785AD85E5269B022B03DC9B
:1052A0000E9DDDF860B05EE4DDF860B00E96A3E51B
:1052B000269B022BF8DCDDF860B00E96F3E437464F
:1052C00058E74FF00209DDE91278FFF774BA0025BC
:1052D000039B29461846DD6300F094FB0890D0B983
:1052E000002240F2AF11164B164800F065FB024653
:1052F00040F2EF21124B134800F05EFB002A3FF70B
:1053000040AD50E50021039BD963FFF70BBA0E4B6C
:105310000893FFF70AB9039B089A4FF0FF3B9A6383
:1053200001232795CDF860B00C93FFF722BB00BF97
:10533000000024400000E03FB8A7000800001C4027
:1053400050AC000864AC000840AC00082DE9F843FC
:1053500006460820894600F00FFA0546DFF89880D7
:10536000304600F0A7FAD8F808305F6827F0030746
:10537000A7F11104A4EB09042C44B4FBF5F4013C9F
:1053800005FB04F4A54208DC0021304600F0F0FAE9
:10539000D8F808303B44984205D0304600F08CFAEB
:1053A0000020BDE8F8833046614200F0E1FA0130A8
:1053B0000FD0124AD8F808303F1B47F001075F6052
:1053C000136830461B1B136000F076FA0120BDE81D
:1053D000F8830021304600F0CBFAD8F80820831A71
:1053E0000F2BDADD43F001035360054B03491B68C3
:1053F000C01A0860D1E700BF380100201C08002057
:105400004005002000297CD0F8B50C46064600F087
:1054100051FA54F8043C764FA4F1080523F0010139
:105420006818D7F808C04268844522F0030200F0EB
:105430008380DB07426000EB020C33D454F8084C45
:10544000DCF804302D1B2144AC6807F1080C6445DE
:1054500003F0010364D0D5F80CE0C4F80CE0CEF8FA
:105460000840002B00F0818041F001036B60016077
:10547000B1F5007F22D20122CB0849098A40796820
:1054800001330A437A6057F8331007EBC302083A36
:10549000C5E9021247F83350CD603046BDE8F84008
:1054A00000F00ABADCF80430DB072BD541F0010329
:1054B000B1F5007F44F8043C0160DCD3B1F5206F06
:1054C0004FEA512353D28B0903F1390003F138021B
:1054D000C300F818FB580838984203D161E09B6874
:1054E000984204D05A6822F003028A42F7D8D8685A
:1054F000C5E9023085603046DD60BDE8F84000F067
:10550000DBB97047114407F1080C836863453FD04D
:10551000C268DA60936041F001036B606950A7E7ED
:10552000002B5FD10A44D0E90213CB60996042F0AE
:1055300001036B60AA50B0E70A44D90707D454F8B6
:10554000083CED1A1A44D5E90213CB60996042F089
:1055500001036B60274BBD601B6893429DD8264BAF
:1055600030461968FFF7F2FE97E71144CDE7142B98
:1055700008D9542B1DD80B0B03F16F0003F16E02F9
:10558000C300A6E703F15C0003F15B02C300A0E7E0
:1055900041F00103C7E90455C5E902CC6B606950CD
:1055A0007BE70121921001FA02F279680A437A60DE
:1055B0009EE7B3F5AA7F06D8CB0B03F1780003F181
:1055C0007702C30085E740F25452934206D88B0C11
:1055D00003F17D0003F17C02C3007AE74FF47E7390
:1055E0007E2276E741F001036B60016055E700BF62
:1055F00038010020440500201808002070B539B19A
:1056000006460C4608B1436B83B3B4F90C3013B9AA
:105610000025284670BD2146304600F0A5FFE36A0C
:10562000054633B13046E16998470028B8BF4FF0CE
:10563000FF35A3891B061CD4216B41B104F1400343
:10564000994202D03046FFF7DDFE00232363616CF0
:1056500021B13046FFF7D6FE00236364FDF780F9E1
:105660000023A381FDF77EF9284670BDFDF768F998
:10567000CBE730462169FFF7C5FEDDE7024B014667
:105680001868FFF7BBBF00BF00000020844641EA56
:10569000000313F0030349D1403A23D30B6803609E
:1056A0004B6843608B688360CB68C3600B690361A0
:1056B0004B6943618B698361CB69C3610B6A036288
:1056C0004B6A43628B6A8362CB6AC3620B6B036370
:1056D0004B6B43638B6B8363CB6BC3634030403155
:1056E000403ADBD230320BD30B6803604B68436027
:1056F0008B688360CB68C36010301031103AF3D2EE
:105700000C3205D351F8043B40F8043B043AF9D27B
:10571000043208D0D2071CBF11F8013B00F8013B4E
:1057200001D30B8803806046704700BF082A13D35B
:105730008B07B1D010F00303AED0C3F10403D21A2B
:10574000DB071CBF11F8013B00F8013BA4D331F883
:10575000023B20F8023B9FE7043AD9D3013A11F803
:10576000013B00F8013BF9D20B7803704B78437092
:105770008B78837060467047082802D14FF48050C0
:10578000704708B5FCF766FF162203464FF0FF305E
:105790001A6008BD10B50C46B1F90E1001F050F8B2
:1057A000002803DB236D0344236510BDA38923F484
:1057B0008053A38110BD00BF002070472DE9F04148
:1057C0000C46B1F90C101F46CB05054616460BD406
:1057D00021F48051A1813B4632462846B4F90E108F
:1057E000BDE8F04100F050B8B4F90E1002230022D9
:1057F00001F076F8B4F90C10EAE700BF10B50C46DA
:10580000B1F90E1001F06CF8B4F90C30421C0EBF67
:1058100023F4805343F480532065A38110BD00BF5F
:10582000B1F90E1000F0B6B870B5154D2C68DCB1AA
:1058300065681F2D21DC80B14FF0010C04EB850E53
:10584000CEF88820D4F888610CFA05F216430228B5
:10585000C4F88861CEF8083109D06B1C023563604A
:10586000002044F8251070BD064C2C60E0E7D4F809
:105870008C311343C4F88C31EFE74FF0FF3070BD2B
:105880004C0800205008002038B50C461146002274
:105890008446074D20462A601A46644602F012FDEF
:1058A000431C00D038BD2B68002BFBD0236038BDD3
:1058B000E0090020704700BF704700BF2DE9F041AC
:1058C000154692682C68FAB107468846083402E00B
:1058D00013460834C3B16B685E1E002B6E6013DD87
:1058E00054F8046C002EF3D033464146384654F841
:1058F000082C00F045FF431C07D0AA680834921B0F
:105900001346AA60002BE6D100200023C5E901332D
:10591000BDE8F08120F0030110F00300C0F10000A9
:1059200051F8043B00F1040C4FEACC0C6FF000027C
:105930001CBF22FA0CF213434FF0010C4CEA0C2C62
:105940004CEA0C4CA3EB0C0222EA030212EACC1242
:1059500004BF51F8043B0430F4D0C2F1000102EA64
:105960000102B2FA82F2C2F11F0200EBD2007047CC
:10597000002238B5064D044608462A6002F094FC21
:10598000431C00D038BD2B68002BFBD0236038BDF2
:10599000E0090020002238B5064D044608462A607A
:1059A00002F04AFC431C00D038BD2B68002BFBD012
:1059B000236038BDE0090020144600B51A460A4BA2
:1059C0000D461B6885B0DE6803464CB1074901915E
:1059D000304607490294009500F056FF00F092FE11
:1059E00004490C46F3E700BF0000002090AC00081B
:1059F000A0AC00089CAC000808B513460022FFF7D5
:105A0000DBFF00BF38B5436C05460C464BB153F87D
:105A1000240080B1026843F824200023C0E9033346
:105A200038BD2122042100F075FE03466864002879
:105A3000EDD1002038BD0121284601FA04F56A1D88
:105A4000920000F067FE0028F3D0C0E90145E4E7CA
:105A500031B1436C4A6853F82200086043F82210C1
:105A6000704700BF2DE9F0414FF0000E0E461C4676
:105A70000D69074601F1140001680EF1010E8BB2A9
:105A800002FB0343090C4FEA134C02FB01CC9BB20F
:105A900003EB0C43754540F8043B4FEA1C44EBDC38
:105AA0003CB1B368AB4207DD06EB850301355C61B1
:105AB00035613046BDE8F081716838460131FFF745
:105AC000A1FF8046A8B1326906F10C0102329200B2
:105AD0000C30FFF7DBFD7B6C726853F822103160ED
