:020000040800F2
:100000000000022099660008F5660008F566000801
:10001000F5660008F5660008F566000800000000B7
:10002000000000000000000000000000F56600086D
:10003000F566000800000000F5660008E972000897
:10004000F5660008F5660008F5660008F566000824
:10005000F5660008F5660008F5660008F566000814
:10006000F5660008F5660008F5660008F566000804
:10007000F5660008F5660008F5660008F5660008F4
:10008000F5660008F5660008F5660008F5660008E4
:10009000F5660008F5660008F5660008F5660008D4
:1000A000F5660008F5660008F5660008F5660008C4
:1000B000F5660008F5660008F5660008F5660008B4
:1000C000F5660008F5660008F5660008F5660008A4
:1000D000F5660008F5660008F5660008F566000894
:1000E000F5660008F5660008F5660008F566000884
:1000F000F5660008F5660008F5660008F566000874
:10010000F5660008F5660008F5660008F566000863
:10011000F5660008F5660008F5660008F566000853
:10012000F5660008F5660008F5660008F566000843
:10013000F5660008F5660008F5660008F566000833
:10014000F5660008F5660008F5660008F566000823
:10015000F5660008F5660008F5660008F566000813
:10016000F5660008F5660008F5660008F566000803
:10017000F5660008F5660008F5660008F5660008F3
:04018000F566000818
:1001C00008B410B5002A9DB0044636DB4FF4027324
:1001D000ADF814304FF000031B930291069120AB51
:1001E00017D0013A4FF6FF7104920792ADF816103E
:1001F0001F9A019302A900F06DF8421C01DA8B23CB
:100200002360029B00221A701DB0BDE8104001B0AF
:1002100070474FF6FF7104920792ADF816101F9ABF
:10022000019302A900F056F8431C01DA8B232360E6
:100230001DB0BDE8104001B070478B2303604FF044
:10024000FF30F5E70CB410B5214B00291C689CB0B9
:1002500038DB4FF000034FF402721B93ADF814200B
:10026000029006901FAB18D001394FF6FF7204912F
:100270000791ADF8162002A91E9A0193204600F0BE
:1002800029F8421C01DA8B232360029B00221A709A
:100290001CB0BDE8104002B070474FF6FF720491E9
:1002A0000791ADF8162002A91E9A0193204600F08E
:1002B00011F8431C01DA8B2323601CB0BDE8104009
:1002C00002B070478B2323604FF0FF30F5E700BF8B
:1002D000000000202DE9F04FC3B00C460B91924670
:1002E0000D930C9003F01AFE03681493184602F065
:1002F000C7FFA38913901E0603D52369002B00F0C6
:10030000A1860023CDE92633CDE915331293099355
:1003100000240023CDE9103432AA25929146D34619
:100320009BF80030002B00F03C815C4604E014F8A0
:10033000013F002B00F01981252BF8D1B4EB0B0500
:1003400040F016812378002B00F02B814FF0000342
:100350008DF8773000276378089704F1010B4FF090
:10036000FF3A0BF1010B9846A8F12003582B00F23D
:100370002581DFE813F04902230123014402230110
:10038000230123012301230123010C023E02230147
:1003900017021C0223013902590059005900590063
:1003A0005900590059005900590023012301230124
:1003B00023012301230123012301230123016800D9
:1003C0009E0123019E0123012301230123017402C5
:1003D000230123019500230123012301230123018C
:1003E000A600230123013F0623012301230123014A
:1003F00023012301230123012301230166026A0053
:100400009E019E019E0161026A00230123015402A4
:100410002301B00297009F029A022301790223016F
:10042000A800230123015F06A8F1300300221BF876
:10043000018B02EB820203EB4202A8F13003092B8D
:10044000F5D9089290E747F01007BD0640F16E819C
:100450000D9B073323F007031A46596852F8083BEF
:100460000D920A460029C0F28C81BAF1000F9DF866
:10047000774007DB27F08001069153EA020100F084
:10048000A883069F0A2B72F1000180F06F8630333B
:100490008DF8C730012306970A930DF1C70550E088
:1004A00047F0100717F0200200F057810D9B07332B
:1004B00023F0070319465A6851F8083B0D910021B3
:1004C0000FE047F0100717F0200200F03C810D9B71
:1004D000073323F0070319465A6851F8083B0D917A
:1004E00001210024BAF1000F8DF8774007DB27F0D7
:1004F0008000069053EA020000F06C83069F0129F9
:10050000C0D0022900F0E78232AD03F00701DB081A
:1005100043EA4273D208303153EA0206284605F80E
:10052000011DF2D1FB0740F1E482302900F0E182A5
:100530003023023805F8013C32AB1B1A06970A93A8
:1005400005460A9B5345B8BF5346079300230F93B4
:1005500014B1079B01330793069B13F002033FD0AE
:10056000079B0233079302233AE0B4EB0B0518D044
:10057000279B2B442793269B0133072BC9E900B502
:10058000269305DC09F10809099B2B440993D9E658
:10059000DDE90B1025AA02F01DFE30B90DF1C809E6
:1005A000F2E7279B002B40F046870B9B9B895B065D
:1005B00001F11680099843B0BDE8F08FB8F1000F43
:1005C000EFD000238DF8773001238DF8A0800793BA
:1005D0000A9328AD4FF0000A0697CDF83CA0534689
:1005E000069A279C12F084020E9205D1DDE90712CB
:1005F000561A002E00F300839DF877208AB1269AC0
:100600000DF1770101320134C9F80010072A4FF0CB
:10061000010127942692C9F8041000F3268309F1FA
:10062000080983B1269A1EA901320234C9F80010C4
:10063000072A4FF0020127942692C9F8041000F30C
:10064000228309F108090E9B802B00F0B9810A9BD7
:10065000AAEB0306002E00F3F581069BDE0500F1F0
:1006600047810A9BC9F804301C44269BC9F80050F6
:100670000133072B2794269300F3548209F10809CC
:10068000069B5A0705D5DDE907239D1A002D00F3C7
:100690000683DDE9082307998A42ACBF9B185B18E3
:1006A0000993002C40F02A82002326930DF1C809FB
:1006B00036E60D9B073323F00703F3E802450D935D
:1006C00025F0004319931894DDE91801B64B4FF05B
:1006D000FF32CDE9104505F051FF002840F00F84AE
:1006E000DDE91801B04B4FF0FF3205F029FF00287B
:1006F00040F00584002200232046294605F016FF1D
:10070000002840F030869DF87740A84D27F0800300
:100710000693A74BB8F1470FD8BF1D464FF0000A0C
:10072000032307930A93CDF83CA011E70D9AFC062A
:1007300052F8043B0D921FD478061DD543F3C03206
:1007400011461BB28EE60D9951F8043B0D9117F03E
:10075000100100F0CC830121C3E60D9951F8043B50
:100760000D9117F010017FF4AAAE17F040023FF48C
:10077000A6AE0A469BB2A2E6DA1711460029BFF6DA
:1007800074AE5B4262EB42022D240121AAE60D9B6E
:1007900053F8042B0892002A80F2A183089A0D9343
:1007A000524208929BF8003047F00407D9E55A46B8
:1007B00012F8018BB8F12A0F00F05B87A8F1300323
:1007C000092B98BF4FF0000A00F2C68612F8018B81
:1007D0000AEB8A0A03EB4A0AA8F13003092BF5D980
:1007E0004AEAEA7A9346BFE59BF8003047F0800773
:1007F000B7E52B238DF877309BF80030B1E59BF8F7
:10080000003047F00107ACE59DF877209BF80030F9
:10081000002A7FF4A6AD20228DF87720A1E59BF871
:1008200000306C2B03BF9BF8013047F020070BF121
:10083000010B47F0100794E59BF8003047F04007A4
:100840008FE50D9B00228DF8772053F8042B0D9334
:1008500001238DF8A02007930A9328ADBAE69BF8F0
:10086000003047F008077CE50D9C54F8045B002637
:100870008DF87760002D00F01D85BAF1000FC0F2F1
:100880001C8452463146284603F052FB002800F0F3
:100890005286431B0A9323EAE3730D94B2469DF8F4
:1008A0007740069707930F9652E69BF8003047F083
:1008B000200756E50D9A52F8043B0D9247F6300298
:1008C000ADF878203B4A159247F00207002202213A
:1008D0004FF0780805E6BD0640F183830D9B099A29
:1008E0001B681A60D2175A600D9B04330D9317E5ED
:1008F000B8F1650F40F32281DDE9100100220023E9
:1009000005F00AFE002800F00682269B2A4AC9F854
:100910000020013301340122072B27942693C9F8C4
:10092000042000F3A08409F108091F9B129A934246
:1009300003DB069BDD077FF5A3AE139B149A1C44D3
:10094000C9E90023269B27940133072B269300F344
:10095000A48409F10809129B5D1E002D7FF790AE5B
:10096000102D269B154F40F3D280DDE90BA81026F1
:1009700005E009F10809103D102D40F3C88001334E
:100980001034072BC9E90076CDE92634F1DD25AA1C
:100990005146404602F01EFC00287FF406AEDDE919
:1009A00026340DF1C809E6E7FFFFEF7FC47C00089D
:1009B000C07C0008E47C0008007D0008407300084B
:1009C000DDE907239E1A002E7FF741AE102E269BED
:1009D000B74F24DD4A462146A946DDE90B5404E021
:1009E000103E102E02F1080216DD013310311020E6
:1009F000072BCDE9263117605060F1DD25AA294685
:100A0000204602F0E7FB00287FF4CFAD103E102E09
:100A1000DDE9263132AAE8DC4D460C469146013329
:100A20003444072BCDE92634C9F80070C9F80460B6
:100A300000F326840A9BAAEB0306002E09F108099D
:100A40007FF70BAE102E269B994F2CDD4A46214690
:100A5000B1464FF0100A2E46DDE90B5406E0A9F12D
:100A60001009B9F1100F02F1080218DD01339048A6
:100A70001031072BC2E9000ACDE92631EFDD25AAA6
:100A80002946204602F0A6FB00287FF48EADA9F18E
:100A90001009B9F1100FDDE9263132AAE6DC35463E
:100AA0000C464E46914601333444072BCDE926349B
:100AB000C9F80070C9F8046000F3EA8109F1080977
:100AC000CBE50129069F4FF000033FF4E0AC02297B
:100AD0001A467FF419AD159832AD03F00F011B09CA
:100AE000415C05F8011D43EA0273120953EA020151
:100AF000F3D132AB5B1B06970A9322E5DDE90B10BD
:100B000025AA02F067FB00283FF4CEAD4DE5013386
:100B10002C44072BC9F80070C9F80450CDE92634DD
:100B20007FF7ACADDDE90B1025AA02F053FB0028DE
:100B30007FF43BAD279C0DF1C809A1E5129B269ED1
:100B4000012B04F1010406F1010609F1080840F344
:100B50005B810123072ECDE92664C9F80050C9F84E
:100B6000043000F3A281139B149A01361C44072E13
:100B7000C8E90023CDE9266400F3A48108F1080840
:100B8000129BDDE9100103F1FF390022002305F07B
:100B9000C3FC002840F05381013601354C44072E38
:100BA000CDE92664C8F80050C8F8049000F33A81F3
:100BB00008F10808169BC8F8043001361C44072EBB
:100BC00021ABCDE92664C8F80030ABDC08F1080998
:100BD00056E50121BAF1000F7FF473AF002940F010
:100BE0000E8117F001030A9300F07E8130238DF807
:100BF000C7300DF1C705A4E4102E269A2D4F26DD2F
:100C000049462046A9461793DDE90B5404E0103EFF
:100C1000102E01F1080116DD013210301023072AD1
:100C2000CDE926200F604B60F1DD25AA294620463C
:100C300002F0D0FA00287FF4B8AC103E102EDDE9A7
:100C4000262032A9E8DC179B4D460446894601322E
:100C50003444072ACDE92624C9F80070C9F8046095
:100C600000F3BE8209F10809C6E4DDE90B1025AAEC
:100C7000179302F0AFFA00287FF497AC279C179BDC
:100C80000DF1C809CDE4DDE90B1025AA02F0A2FAA6
:100C900000287FF48AAC279C0DF1C809D3E4102DFD
:100CA000269B044F24DDDDE90BA8102609E000BFD8
:100CB0004073000830730008103D102D09F1080939
:100CC00016DD01331034072BC9E90076CDE926344F
:100CD000F2DD25AA5146404602F07CFA00287FF456
:100CE00064AC103D102DDDE926340DF1C809E8DCB7
:100CF00001332C44072BC9E90075CDE926347FF771
:100D0000C8ACDDE90B1025AA02F064FA00287FF4D4
:100D10004CAC279CBDE41F99002940F370820F9FC3
:100D2000129B9F42A8BF1F46002F0BDD269B01335D
:100D30003C44072BC9E900572794269300F3DD8331
:100D400009F108090F9E002FA8BFF61B002E00F323
:100D500088811F9B129A934280F26F81139A149993
:100D60001444C9E90012269A27940132072A2692D0
:100D700000F3FE8209F10809129A0F99D31A561A44
:100D80009E42A8BF1E46002E0EDD269AC9F80460BA
:100D900001320D443444072AC9F8005027942692A2
:100DA00000F3B78309F10809002EACBF9D1B1D4657
:100DB000002D7FF765AC102D269BAF4F7FF7A7AEB8
:100DC000DDE90BA8102605E009F10809103D102DFA
:100DD0007FF79DAE01331034072BC9E90076CDE9CA
:100DE0002634F1DD25AA5146404602F0F3F90028E9
:100DF0007FF4DBABDDE926340DF1C809E6E7CDF879
:100E000028A032ADFFF79DBB069BD9073FF5A1AEE9
:100E10000123072ECDE92664C9F80050C9F8043033
:100E20007FF7C8AEDDE90B1025AA02F0D3F9002840
:100E30007FF4BBABDDE926640DF1C808BAE6129B6E
:100E4000012B7FF7B7AE112B8B4F40F37182DDF88A
:100E500030A0102507E008F10808A9F11009B9F140
:100E6000100F40F3658201361034072EC8E9007573
:100E7000CDE92664EFDD0B9925AA504602F0AAF9C8
:100E800000287FF492ABDDE926640DF1C808E4E7A1
:100E9000DDE90B1025AA02F09DF900287FF485AB4F
:100EA000279C0DF1C809FFF7D8BBDDE90B1025AA77
:100EB00002F090F900287FF478ABDDE926640DF1AB
:100EC000C80850E6DDE90B1025AA02F083F90028D6
:100ED0007FF46BABDDE926640DF1C80850E60D9395
:100EE0009BF80030FFF73DBA32ADFFF72ABB17F091
:100EF00040021CBF0A469BB20121FFF7F2BADDE9AE
:100F0000100102460B4605F039FB002840F06D83C6
:100F1000BAF1FF3F28F0200600F00A83472E04D1E3
:100F2000BAF1000F08BF4FF0010ADDE9101247F4D3
:100F30008070002A0690C0F2358200230E93DDE90E
:100F40001034CDE91A34B8F1650F00F0008300F3D6
:100F50003082B8F1450F00F0FA8223AB049320AB46
:100F600003931FAB0293022300930C98CDF804A0C7
:100F7000DDE91A2300F0D6FEF907054640F1B180FD
:100F800000EB0A04DDE91A010022002305F0C4FA8F
:100F9000002840F03082239BA34206D230215A1C05
:100FA00023921970239B9C42F9D81F9A0F925B1BC6
:100FB000472E129300F09A80B8F1660F40F09C80A3
:100FC0000F9A07F00103002A43EA0A0340F36C82F8
:100FD000002B40F024830F9B07930A934FF0660881
:100FE0001FE2FC0678D4780676D50D9B099A1B681B
:100FF0001A8079E4214B159317F0200200F0A880A5
:101000000D9B073323F0070319465A6851F8083B34
:101010000D91F90740F1998053EA020100F09580A3
:1010200030218DF878108DF8798047F00207022181
:10103000FFF757BA124B1593DEE7069AD0077FF5F4
:101040009BAE8BE60C98402100F028FB0B9B1860B0
:101050001861002800F0C1820B9A40235361FFF70A
:1010600050B9102E269B044F40F36F8122464FF05B
:101070001008DDE90B4A0BE040730008D07C000843
:10108000E47C000809F10809103E102E40F35C8151
:1010900001331032072BC9E90078CDE92632F1DDA2
:1010A00025AA2146504602F095F800287FF47DAA33
:1010B000DDE926320DF1C809E6E7284602F0E0F83E
:1010C00020EAE0730D940A909DF877400697B246A7
:1010D00007930F96FFF73CBA0D9B099A1B681A609D
:1010E00002E4239B1B1A12931F9B0F930F9BDA1C86
:1010F00080F28581A8F102080F9B8DF88480591E2B
:1011000000291F91B6BFC3F101012B232D2309290B
:101110008DF8853000F39E81302330318DF8863094
:1011200004238DF887101693129A169B012A1344F4
:101130000A9340F316820A9B139A13440A9323EAF4
:10114000E373079300230F936BE10221FFF7C9B903
:101150000D9951F8043B0D9117F010017FF459AF30
:1011600017F040021CBF9BB20A4652E7CDE9068742
:10117000B44E32AD4FF0050E991841F10001A6FBB7
:10118000010727F0030000EB9700091A581A984648
:10119000944662F100034FF0CC3202FB00F206FBF2
:1011A0000322A0FB063003F001070244A7FB0E0751
:1011B0004018B8F10A0F4FEA530300F130007CF1F8
:1011C000000C43EAC27305F8010D4FEA5202D3D274
:1011D000DDE9068732AB5B1B06970A93FFF7B1B9CF
:1011E000DDE90B1025AA179301F0F4FF00287FF426
:1011F000DCA9279C179B0DF1C809FFF7FDB9269BB9
:10120000914AC9F80020013301340122072B2794A9
:101210002693C9F8042000F3B88009F108090029D1
:1012200052D1069B129A03F0010313433FF428AAFC
:10123000139B14991A19C9E90013269B27920133AD
:10124000072B269300F3398109F108091299C9F88F
:10125000005001338C18072BCDE92634C9F804104F
:101260007FF70CAA5EE4DDE90B1025AA01F0B2FFBE
:1012700000287FF49AA9279C0DF1C809FFF755BBF8
:10128000DDE90B1025AA01F0A5FF00287FF48DA948
:10129000279C0DF1C809FFF7DAB9DDE90B1025AA83
:1012A00001F098FF00287FF480A9279C0DF1C80960
:1012B000FFF751BB5346062B28BF0623634D0A9305
:1012C0000D940793FFF786B9139B14981A19C9E96F
:1012D0000003269B27920133072B269300F3ED8012
:1012E00009F108090029B1DA4E421031584F80F255
:1012F0004181DDE90BA8102405E009F10809103E41
:10130000102E40F3378101331032072BC9E90074E6
:10131000CDE92632F1DD25AA5146404601F05AFFBB
:1013200000287FF442A9DDE926320DF1C809E6E77D
:1013300001364C44072ECDE92664C8F80070C8F881
:1013400004907FF735AC6DE5144601333444072B28
:10135000CDE92634C9F80070C9F8046000F3BB80F9
:1013600009F10809F5E42D248DF87740FFF7CDB990
:10137000DDE90B1025AA01F02DFF00287FF415A947
:101380001F9B279C0DF1C809F6E4DDE90B1025AA87
:1013900001F020FF00287FF408A91F99279C0DF178
:1013A000C8093CE702F100431B932D231A910E93C9
:1013B000C9E5B8F1660F7FF4D0ADCDF81CA00323CA
:1013C000009323AB049320AB079C03931FAB0194C2
:1013D00002930C98DDE91A2300F0A4FCB8F1660F23
:1013E000054604447FF4CEAD2B78302B00F0E78027
:1013F0001F9B1C44C6E51F9A0F922346D7E59A45CA
:10140000FFF678AE129B0F9A934200F3CB80FE0753
:101410000F9B00F1FB8023EAE37207920A934FF0DF
:1014200067080E9B002B62D02D238DF877304FF08C
:10143000000AFFF78EB8DDE90B1025AA01F0CAFEFD
:10144000FFF7B3B8CDCCCCCC007D0008F87C000809
:10145000407300080DF193048D4E23461846A6FBF9
:101460000123DB0803EB8302A1EB4202303200F8D8
:10147000012C0A46632A194600F1FF33EEDC3031B5
:1014800003F8011C831EA34280F0FE800DF185024B
:1014900013F8011B02F8011FA342F9D142AB181A3D
:1014A000A0F1710316933FE6002B40F0D08001239A
:1014B00007934FF066080A93B3E7DDE90B1025AAFE
:1014C00001F088FE00287FF470A8DDE926321F991C
:1014D0000DF1C80906E7DDE90B1025AA01F07AFE37
:1014E00000287FF462A8279C0DF1C80931E4DDF8DB
:1014F00038A09DF87740FFF72BB8DDE90B1025AA3F
:1015000001F068FE00287FF450A8279C0DF1C8095F
:1015100018E4DDE90B1025AA01F05CFE00287FF439
:1015200044A81F9B129A279CD31A0DF1C8093BE4CB
:101530004FF0060AF9E40D94CDF81CA0CDF828A0D0
:101540009DF87740069782460F90FFF701B80AF1A1
:1015500001030793022333E793464FF0000AFEF797
:1015600003BF17F001020F927FF4E5AD23EAE373A6
:10157000079356E701333244072BCDE92632C9F8E9
:101580000070C9F804607FF75FAEDDE90B1025AA93
:1015900001F020FE00287FF408A8DDE926320DF1D5
:1015A000C80953E6DDE9123213440F9A0A93002A60
:1015B00041DD23EAE37307934FF0670831E7DDE984
:1015C0001A010022002304F0A7FF00284BD01F9B24
:1015D0000F931C44631B1293F2E40C9A0C231360C8
:1015E0004FF0FF330993FEF7E5BF119B294D002B08
:1015F000B8BF2D2427F080030693A8BF9DF877403D
:10160000254BB8BF8DF87740FFF784B8139A134481
:101610000A9323EAE37307934FF0670801E7139BEC
:101620000AEB030808EB02030A9323EAE373079328
:101630004FF06608F5E60F9B0A9AC3F101031A44BE
:1016400022EAE2730A9207934FF06708E9E6139BD8
:1016500003F1010808EB0A030A9323EAE3730793F3
:101660004FF06608DDE6079BC3F101031F931C449E
:1016700088E40D999BF8013051F804AB0D91934625
:101680004AEAEA7AFEF76DBE022316934CE500BFE4
:10169000CDCCCCCCCC7C0008C87C00082DE9F04F28
:1016A00001F10B05162D83B0064623D8102900F250
:1016B000AF8001F079FC102518230220C14F3B4474
:1016C000A3F108025C68944200F025816368E26837
:1016D000A16823F00303CA602344304691605A682E
:1016E00042F001025A6001F061FC0834204603B068
:1016F000BDE8F08F35F0070500F18A80A94200F2BD
:10170000878001F051FCB5F5FC7FC0F06D816B0A5C
:1017100000F08280042B00F22481AB0903F1390030
:1017200003F1380EC300A74F3B44A3F1080C5C68DB
:10173000A44507D10DE0002AE16880F2E6808C45DF
:1017400007D00C46636823F003035A1B0F2AF2DD0F
:101750007046DFF874823C69444500F0C3806368DA
:1017600023F0030CACEB05030F2B00F34181002B9E
:10177000C7E9048880F22C81BCF5007FD7F804E02B
:1017800080F0CF804FEADC0101314FEA5C1C01237D
:1017900003FA0CF357F83120A2604EEA030E07EB70
:1017A000C103083BE360C7F804E047F83140D46068
:1017B00083104FF0010C0CFA03FCF44532D81CEAFC
:1017C0000E0F08D120F003004FEA4C0C1CEA0E0F5C
:1017D00000F10400F8D007EBC00AD6468146DEF8D7
:1017E0000C300BE0596821F003014A1B0F2A1C46FC
:1017F000DB6800F3C280002A80F2D6809E45F1D1DA
:1018000009F1010919F0030F0EF1080EE7D118E1F3
:101810000C233360002469E74FF4007340204FF03D
:101820003F0E80E7BC68636823F00309A94503D332
:10183000A9EB05030F2B58DCDFF890B1DBF8002093
:1018400004EB09031032082002EB0508009301F0B5
:101850009DFBD7F808140131024605D008F1FF3886
:101860008044414201EA080841463046009201F0B6
:10187000DDFCB0F1FF3F009A824600F0D48004EB1B
:101880000903834200F2CD80DBF804104144CBF819
:101890000410084602F1FF3C40F0F5801AEA0C0FF4
:1018A00040F0F180D7F808A0C84448F00100CAF819
:1018B0000400DBF82C208A42DBF8302038BFCBF85C
:1018C0002C108A4238BFCBF83010544620F0030861
:1018D000A845A8EB050301D30F2B06DC304601F029
:1018E00065FB97E7D7F804E062E7621943F001036C
:1018F00045F0010565603046BA60536001F056FB63
:101900000834204603B0BDE8F08FA2682344D160BC
:1019100030468A60E3E6DC68A3427FF4D7AE02304B
:1019200017E7BCF5206F4FEA5C2273D3142A00F24C
:101930000A8102F15C03DB005B32F918FB580839BD
:10194000994203D1E6E09B68994204D05A6822F09C
:1019500003026245F7D8D968C4E902318C60DC60C3
:1019600026E7142B62D9542B00F2F6802B0B03F1DF
:101970006F0003F16E0EC300D5E6D4F808C0304600
:10198000661945F001056560CCF80C30C3F808C055
:1019900042F00103C7E90466C6E902887360625039
:1019A00001F004FB0834A1E6214430464A6842F0C5
:1019B00001024A6054F8082FD3609A6001F0F6FAE9
:1019C00094E600BF2801002030010020B00600206E
:1019D000A4443046DCF8043043F00103CCF8043072
:1019E00001F0E4FA083481E6E80805F1080365E649
:1019F000621943F0010145F0010565603046C7E911
:101A00000422C2E90288516044F80C3001F0CEFA99
:101A100008346BE64FEA9C1202F13903DB003832DE
:101A20008BE7BC4228D0BC6860684FE703F15C00DC
:101A300003F15B0EC30076E65AF80839534540F0CF
:101A4000D88010F0030F00F1FF30F5D17B6823EA56
:101A50000C037B604FEA4C0C9C453FF6E3AEBCF1B7
:101A6000000F04D1DEE64FEA4C0C09F104091CEA30
:101A7000030FF8D04846AEE6DBF804004044CBF84C
:101A8000040002F1FF3CD7F8081401316ED004EBDA
:101A90000903AAEB03031844CBF804001AF0070368
:101AA000009341D0C3F108018A44D0440A4408EAB3
:101AB0000C01521A02EA0C013046019101F0B6FB0A
:101AC000421C6FD00199A0EB0A0000EB0108DBF883
:101AD0000420C7F808A048F001001144BC42CAF82D
:101AE0000400CBF804103FF4E4AEB9F10F0F40D975
:101AF0006268A9F10C0020F0070002F00102024325
:101B00006260052322180F28C2E9013352D8DAF89F
:101B10000400CEE692104FF0010C0CFA02F24EEAED
:101B2000020EC7F804E017E70AEB080101EA0C010E
:101B3000521A02EA0C013046019101F077FB431C76
:101B4000C0D10099C3E7542A17D84FEA1C3202F1DA
:101B50006F03DB006E32F0E6B3F5AA7F17D8EB0B0C
:101B600003F1780003F1770EC300DCE5C7F808A4A1
:101B700094E70123CAF80430B0E6B2F5AA7F23D86F
:101B80004FEADC3202F17803DB007732D5E640F22F
:101B90005452934223D8AB0C03F17D0003F17C0E29
:101BA000C300C0E5009BA3F108029044A8EB0A081B
:101BB00000218CE704F10801304601F051F8DBF810
:101BC0000410D7F808A0A2E740F254539A420CD868
:101BD0004FEA9C4202F17D03DB007C32ADE64FF41C
:101BE0007E737F204FF07E0E9DE54FF47E737E2244
:101BF000A3E67B682EE700BF2DE9F04F03690C696F
:101C0000A34283B0C0F28A80013C01F1140500F1C7
:101C1000140855F8243058F8242001339A428E468F
:101C200081464FEA840105EB840708EB840AB2FB86
:101C3000F3F63AD3CDE900150022AC4640461346F0
:101C40005CF8041B05681FFA81FB06FB0B22090CDC
:101C50004FEA124B06FB01BB92B2A9B2891A194492
:101C60001FFA8BF3C3EB214303EB154389B241EA1F
:101C70000341674540F8041B4FEA1B424FEA2343E8
:101C8000DED2DDE9001558F8013073B9AAF1040A73
:101C9000D04504D307E0D04504F1FF3403D25AF80D
:101CA0000439002BF7D0C9F810407146484601F0BE
:101CB000ADFE00282EDB4146002255F8040BD1F87A
:101CC00000C01FFA80FE1FFA8CF3A3EB0E0313442F
:101CD000020CC2EB234202EB1C429BB243EA0243DA
:101CE000AF4241F8043B4FEA2242E6D258F82420A2
:101CF00008EB84036AB9043B434504D807E09845E0
:101D000004F1FF3403D253F80429002AF7D0C9F8AC
:101D100010400136304603B0BDE8F08F002003B01C
:101D2000BDE8F08F2DE9F04F816B9BB016461F4642
:101D3000CDE90667279D049049B1C26B4A60012333
:101D4000934004468B6001F0A5FB0023A363B7F129
:101D50000009B4BF012300232B60794BBCBF29F0DD
:101D60000049CDF81C9033EA090300F0AD80DDE9AD
:101D700006340022184621460023CDE9020104F072
:101D8000CBFB804668B1269A01231360289B13B1D0
:101D9000289A6C4B13606C4B059305981BB0BDE8FB
:101DA000F08F18AB019319AB00930498DDE902237F
:101DB00001F08EFF5FEA1955824640F09B80DDE915
:101DC0001885454405F23243202B40F38F83C3F13D
:101DD000400309FA03F905F2124326FA03F349EA2C
:101DE000030004F0B7F80123013DA1F1F87110934D
:101DF000564B002203F070FF4BA3D3E9002304F0FD
:101E000023F94BA3D3E9002303F068FF06462846D5
:101E10000F4604F0AFF848A3D3E9002304F014F907
:101E200002460B463046394603F058FF06460F4639
:101E300004F0BAFB002204460890002330463946DD
:101E400004F074FB002840F02783089CA8EB0508E9
:101E500008F1FF33162C099300F28D813C4B03EB04
:101E6000C403D3E90023DDE9020104F05FFB00288D
:101E700074D0631E089300230F9308F1FF33002BE7
:101E8000C0F2808100230A93089B002B6CDA089B28
:101E90000A9A0B93D21A0A925A4200230893249B5F
:101EA0000E92092B6AD8052B40F32583043B24931B
:101EB0000025249B023B032B00F23786DFE813F05A
:101EC0007304700467044B04269AC9F3130942F2A1
:101ED0000F7359EA060913601CD1289B002B00F0F0
:101EE00044861C4B05930833289A059813601BB051
:101EF000BDE8F08FDDE90212C2F31303084643F098
:101F00007F51CDF84080A5F2FF35DDF8608041F4C7
:101F100040116DE7289B002B40F0F8830E4B059392
:101F20003BE700BFAFF3008061436F63A787D23FF9
:101F3000B3C8608B288AC63FFB799F501344D33FB8
:101F40000000F07F017D0008007D00080000F83FE0
:101F500060730008047D0008107D0008B8F1000FD0
:101F600040F3A6840F900A90DDE9082313440993F7
:101F700000230E93249B0B92092B94D90023CDE9C7
:101F8000243301250C954FF0FF3B049BCDF844B062
:101F90000021D963049801F057FA0590002800F059
:101FA000CD85DDE90432BBF10E0F9A6300F2198191
:101FB000002D00F016810B99002940F34984B44BA1
:101FC00001F00F0203EBC203C805D3E900894FEA11
:101FD000211540F10B84AF4BDDE90201D3E9082361
:101FE00004F05CF9CDE9120105F00F0503277DB17E
:101FF000A84EE90708D540464946D6E9002304F033
:1020000023F80137804689466D1006F10806F0D1A5
:1020100042464B46DDE9120104F040F9804689460C
:102020000F9B43B19C4B00224046494604F07EFA88
:10203000002840F00A85384603F09CFF42464B4694
:1020400004F002F8954B002203F048FEA1F1507312
:10205000CDE912011393BBF1000F00F0A9800B9B97
:10206000CDE916B34946404604F09EFA8849169CCD
:1020700001EBC40353E902120546CDE9141203F043
:1020800079FF0B4602464946404603F025FE059F70
:102090000C9B30357E1CECB2804689463546002BC1
:1020A00000F06E84DDE914237D49002004F0F6F889
:1020B000DDE9122303F010FE3C7042464B46044615
:1020C0000D4604F051FA002840F0B784CDF850B026
:1020D0000027DDF858B0CDF848A02BE001375F4568
:1020E00080F2FD846F4B20462946002203F0ACFFAE
:1020F0006C4B002204460D464046494603F0A4FFBF
:102100008946804604F050FA824603F033FF0246C7
:102110000B464046494603F0DFFD0AF1300A06F857
:1021200001AB22462B468046894604F0FFF9002881
:1021300040F0D28442464B465749002003F0CCFD84
:1021400022462B4604F0F2F90028C7D0179BDDF891
:1021500048A0059A374603F1010802E0974200F0D3
:102160009A843E4617F8013D392BF7D00133DBB294
:102170003B7045467FE101230F9308F1FF33002BAD
:10218000BFF680AEC8F101030A93002309937BE6F2
:10219000384603F0EFFE42464B4603F055FF3F4BF7
:1021A000002203F09BFDA1F15073CDE912011393BE
:1021B0003D4B00224046494603F08EFDDDE91245C5
:1021C00022462B4606460F4604F0CEF9002840F082
:1021D000718430463946224605F1004304F0A6F9E1
:1021E00028BB199B002BC0F291800B9A0E2A00F39A
:1021F0008D80274B0B9A03EBC203D3E90034CDE962
:102200000634259B002B19DABBF1000F16DC0ED12A
:10221000254B0022DDE9060103F016FF02460B46BE
:10222000DDE9020104F08CF9002800F0438400236A
:10223000059E02931F46259BDD432EE2059B5D1CF8
:10224000DDE90678DDE902013A46434604F026F866
:1022500004F0AAF9064603F08DFE3A46434603F021
:10226000F3FE02460B46DDE9020103F035FD059A57
:1022700006F13003BBF1010F2F46137000F02383EA
:102280000125CDF808A0A846DDE9069A2CE000BF9C
:1022900060730008507400080000F03F00001C400C
:1022A0000000E03F00002440000014404A4653462E
:1022B0002046294603F0F2FF04F076F9064603F0C3
:1022C00059FE4A46534603F0BFFE08F101080B468B
:1022D00002462946204603F0FFFC06F13003D845AC
:1022E00007F8013B00F0ED82844B002203F0ACFEC6
:1022F0000022002304460D4604F00EF90028D5D034
:102300000B9DDDF808A001353E46B4E00C9A002A8A
:1023100040F0D88000230E9E0A9D0C931F4665B1A5
:10232000099900290B4608DD0A9AA942A8BF2B4645
:10233000D21AED1ACB1A0A9209930E9B53B10C9B39
:1023400013B1002E40F0F88251460E9A049801F025
:102350008BFA82460498012101F0A2F9089B0290B1
:10236000002B40F0BE81249B012B40F3D48101203F
:10237000099A104410F01F0000F09B80C0F1200368
:10238000042B40F3E3810A9BC0F11C000344024488
:102390000A93054409920A9B002B05DD51460498D7
:1023A0001A4601F0BBFA8246099B002B05DD029913
:1023B00004981A4601F0B2FA02900F9B002B40F0ED
:1023C0007581BBF1000F40F34C810C9B002B40F05A
:1023D000A4800B9D0135DDF81480029CDDF810907F
:1023E000012607E0514600230A22484601F05CF826
:1023F0000136824621465046FFF7FEFBB34500F109
:10240000300008F8010BEDDCBBF1000F059BCCBFE1
:102410005E460126814603EB060B0024514601224D
:10242000049801F07BFA0299824601F0EFFA002845
:1024300040F3EF81059A02E0934500F004825E4686
:102440000BF1FF3B16F8013C392BF5D001338BF82B
:102450000030DDF810800299404601F01BF857B1BA
:102460002CB1BC4203D02146404601F013F8049839
:10247000394601F00FF80498514601F00BF800239B
:102480003370269B1D60289B002B3FF486AC05987B
:102490001E601BB0BDE8F08F204603F06BFD324696
:1024A0003B4604F039F800287FF4CFAC631E089354
:1024B000CBE41C230A9A1A440A92099A1A441D442E
:1024C000099268E7249A012A40F3AE810E9B0BF132
:1024D000FF36B342C0F26A81BBF1000FA3EB0606E0
:1024E00080F2EC820A9BA3EB0B056DE1C3F12003A4
:1024F00006FA03F075E40125DBE400BF0000244088
:102500003946002304980A2200F0CEFF119B002BCD
:10251000074640F3FC820B969B46002D05DD3946AD
:1025200004982A4601F0FAF90746089B002B40F070
:10253000E781B846059E731E03EB0B04069B0A94C5
:1025400003F00103049C0C9302995046FFF754FBDF
:1025500039468346504601F059FA029905464246EB
:10256000204601F073FAC3680BF130090146ABBB9A
:102570000990504601F04AFA09990890204600F067
:1025800089FF089A002A54D1249B1BB90C9B002B6D
:1025900000F0AB82002D3FDB0A9BB3469E420BF856
:1025A000019B00F0C481514600230A22204600F01E
:1025B0007BFF4745824639464FF000034FF00A0241
:1025C000204630D000F070FF4146074600230A2223
:1025D000204600F069FF5E468046B5E7049800F0AB
:1025E00059FF002D06DB069B03F00102249B1D43CF
:1025F0002A4329D151460122049801F08FF902990A
:10260000824601F003FA002840F3F780B9F1390F50
:1026100000F046820BF131090B9D06F8019B3C4608
:102620000135474615E700F03FFF5E460746804606
:102630008AE7002DC0F29082249B1D430C9B1D4312
:1026400000F08A82002AA7DDB9F1390F00F0288254
:102650000B9D09F101033C4606F8013B0135474655
:10266000F7E6249B022B7FF7B0AEBBF1000F40F0E2
:102670002681029904985B46052200F015FF014669
:102680000290504601F0C2F9002840F31881059EDF
:102690000B9D312306F8013B01350299049800F0A7
:1026A000F9FE0135002F7FF4E2AEE4E602995046D0
:1026B00001F0ACF90028BFF684AE5146002304981F
:1026C0000B9C0A2200F0F0FE0C9B661E8246002B3B
:1026D0007FF416AF119B002B40F30E820B9D9B469F
:1026E00079E601461A46049801F0BEF8249B029050
:1026F000012B6FDD00230893029A136902EB830319
:10270000186900F07BFFC0F1200031E6984B05937B
:102710000333FFF7E9BB069B002B7FF428AEDDE90E
:102720000612C2F31303002B7FF421AE914B13402A
:1027300033B10A9B01330A93099B013309930123A7
:10274000089A0893002A3FF412AED5E73FF423AE6F
:10275000C0F13C03AEE601230C93259B0B9A134476
:1027600003F1010B5E46012E1193B8BF0126172E0F
:1027700040F3F681012204235B0003F11400B04210
:10278000114602F10102F7D9049BD96302E4012347
:102790000C93259B002B37DD11939B461E46E6E7E5
:1027A00000230C93D9E700230C93F2E70E9B089AC1
:1027B0000E96F31A1A44099B08925B4409930A9BEC
:1027C0001D465B440A9300260498012100F068FF2F
:1027D0000746A4E5069B002B8CD1DDE90601C1F379
:1027E00013030A46002BA1D0089085E7DDE90234E7
:1027F0000227CDE91234FFF7FABB7FF40DAF19F0D1
:10280000010F7FF403AF07E7012325939B46FFF7F2
:10281000BCBB03D119F0010F7FF40CAE5E461BF870
:10282000013D302BFAD014E6109A002A00F09C806B
:1028300003F23343099A0E9E1A4409920A9A1546E6
:102840001A440A92C0E7059A31230135137000E655
:1028500000F0F6800B9A484B554205F00F0203EB4F
:10286000C203D3E90023DDE9020103F0EDFB2D11E2
:10287000CDE9120100F05481404E0023022780462A
:102880008946EA0709D5D6E900234046494603F0C0
:10289000DBFB01378046894601236D1006F10806EF
:1028A000EFD1002B7FF4BCABDDE91289FFF7B8BB99
:1028B000C8F1010309900A930F90FFF755BB059EDD
:1028C000B9E4DDF808A002460B4603F007FA0B9DB9
:1028D000CDE90201013502460B46DDE90601A846B5
:1028E00003F024FE40B9DDE90223DDE9060103F02F
:1028F00013FE18B1F30701D5059A32E43E46BAE556
:102900007968049800F0A0FD0546002800F01D81BC
:102910003B6902339A0007F10C010C3000F09CFA7D
:1029200004982946012200F0F9FF804602E60B9D3B
:102930003C460135474671E5049C394632462046FF
:1029400000F092FF524601460746204600F0D6FEB0
:1029500051468046204600F09DFD0E9B9B1BC246C3
:102960000E933FF4F7ACEFE4189BC3F1360361E735
:10297000107D00080000F07F6073000850740008AC
:10298000DDE91423DDE9120103F05EFB059B1C70F9
:10299000169B012BCDE90C0100F0C080169F059B12
:1029A0001F447A4B00224046494603F04DFB8946BE
:1029B000804603F0F9FD044603F0DCFA30340246A9
:1029C0000B464046494603F087F906F8014BBE42E4
:1029D00080468946E5D16E4B0022DDE90C0103F00B
:1029E0007DF902460B464046494603F0BDFD0028EE
:1029F0006CD1DDE90C236649002003F06DF9024635
:102A00000B464046494603F091FD80B9199B002BC7
:102A1000FFF680AC0B9B0E2B3FF77CAC5D4B0B9A0B
:102A200003EBC203D3E90034CDE9063408E43E46A3
:102A3000013F16F8013C302BF9D0179D01351AE5FE
:102A4000DDE902890227FFF7EBBABBF1000F3FF483
:102A50009FAB119C002C7FF7C4AB0B9B013B00226A
:102A6000404649461793494B03F0EEFA80468946A3
:102A7000781C03F07FFA42464B4603F0E5FA464BDA
:102A8000002203F02BF9A1F15073CDE91201169445
:102A90001393FFF7E7BA08F101083123FFF768BB8A
:102AA0000B9D059AB34639233C460BF8013B013593
:102AB0004746C4E4002302931F46E8E5099B5B44B4
:102AC00009930A9B1D465B440A937DE6179B059A72
:102AD00003F10108FFF745BBDDF848A0ADE7DDF8DD
:102AE00048A0DDF850B0FFF77CBBB9F1390FD7D063
:102AF000002D3FF78FAD8FE5249B022B03DC0B9D50
:102B0000DDF844B067E4DDF844B00B96ADE5249BF6
:102B1000022BF8DCDDF844B00B96FEE437465AE7AA
:102B2000DDE912890227FFF77BBA049B0025DD63EC
:102B30002946184600F088FC0590D0B9174B184874
:102B4000002240F2AF1100F059FC144B14482A4601
:102B500040F2EF2100F052FC002A3FF74BAD5BE55D
:102B6000049B0021D963FFF715BA0E4B0593FFF7BD
:102B700014B9DDE904324FF0FF3B9A630123259538
:102B8000CDF844B00C93FFF72CBB00BF00002440ED
:102B90000000E03F6073000800001C40147D000846
:102BA000287D0008047D00082DE9F843064608202A
:102BB000894600F0EBF9DFF89C800546304600F0CE
:102BC000F3F9D8F808305F6827F00307A7F111047C
:102BD000A4EB09042C44B4FBF5F4013C05FB04F41C
:102BE000A54208DC0021304600F020FBD8F8083070
:102BF0003B44984205D0304600F0D8F90020BDE8AB
:102C0000F8836142304600F011FB01300FD0124AC8
:102C1000D8F808303F1B47F001075F601368304663
:102C20001B1B136000F0C2F90120BDE8F8830021EE
:102C3000304600F0FBFAD8F80820831A0F2BDADDB3
:102C400043F001035360054B03491B68C01A086039
:102C5000D1E700BF28010020B40600203005002085
:102C600000297CD0F8B50C46064600F09DF954F8D2
:102C7000043C764FA4F1080523F001016818D7F849
:102C800008C04268844522F0030200F08380DB071D
:102C9000426000EB020C33D454F8084CDCF80430EA
:102CA0002D1B2144AC6807F1080C644503F00103B7
:102CB00064D0D5F80CE0C4F80CE0CEF80840002B46
:102CC00000F0818041F001036B600160B1F5007F8D
:102CD00022D27868CB080122490901338A40024395
:102CE00057F833107A6007EBC302083AC5E90212BD
:102CF00047F83350CD603046BDE8F84000F056B993
:102D0000DCF80430DB072BD541F00103B1F5007F7F
:102D100044F8043C0160DCD3B1F5206F4FEA512345
:102D200053D28B0903F1390003F13802C300F818BC
:102D3000FB580838984203D161E09B68984204D060
:102D40005A6822F003028A42F7D8D868C5E90230EF
:102D50008560DD603046BDE8F84000F027B9704777
:102D6000114407F1080C836863453FD0C268DA60FC
:102D7000936041F001036B606950A7E7002B5FD1BE
:102D80000A44D0E90213CB60996042F001036B6002
:102D9000AA50B0E70A44D90707D454F8083CED1A02
:102DA0001A44D5E90213CB60996042F001036B60CD
:102DB000274BBD601B6893429DD8264B304619684F
:102DC000FFF7F2FE97E71144CDE7142B08D9542BF7
:102DD0001DD80B0B03F16F0003F16E02C300A6E7D1
:102DE00003F15C0003F15B02C300A0E741F00103C3
:102DF000C7E90455C5E902CC6B6069507BE7796887
:102E00009210012404FA02F20A437A609EE7B3F5B5
:102E1000AA7F06D8CB0B03F1780003F17702C30039
:102E200085E740F25452934206D88B0C03F17D00A3
:102E300003F17C02C3007AE74FF47E737E2276E7CB
:102E400041F001036B60016055E700BF28010020DD
:102E500034050020B0060020844641EA000313F048
:102E600003036DD1403A41D351F8043B40F8043B91
:102E700051F8043B40F8043B51F8043B40F8043B54
:102E800051F8043B40F8043B51F8043B40F8043B44
:102E900051F8043B40F8043B51F8043B40F8043B34
:102EA00051F8043B40F8043B51F8043B40F8043B24
:102EB00051F8043B40F8043B51F8043B40F8043B14
:102EC00051F8043B40F8043B51F8043B40F8043B04
:102ED00051F8043B40F8043B51F8043B40F8043BF4
:102EE00051F8043B40F8043B403ABDD2303211D394
:102EF00051F8043B40F8043B51F8043B40F8043BD4
:102F000051F8043B40F8043B51F8043B40F8043BC3
:102F1000103AEDD20C3205D351F8043B40F8043B93
:102F2000043AF9D2043208D0D2071CBF11F8013B91
:102F300000F8013B01D30B8803806046704700BF57
:102F4000082A13D38B078DD010F003038AD0C3F166
:102F50000403D21ADB071CBF11F8013B00F8013B48
:102F600080D331F8023B20F8023B7BE7043AD9D307
:102F7000013A11F8013B00F8013BF9D20B780370DC
:102F80004B7843708B78837060467047082802D175
:102F90004FF48050704708B501F03AF816230360EB
:102FA0004FF0FF3008BD00BF704700BF704700BF43
:102FB00000207047024A0349034800F08BBF00BF5E
:102FC000380500209D410008080000200C4B416896
:102FD000994210B5044601D001F0E0F8A168094B10
:102FE000994202D0204601F0D9F8E168064B994297
:102FF00004D02046BDE8104001F0D0B810BD00BF9D
:10300000E40600204C070020B40700200020704791
:103010002DE9F8432A4C2B49DFF8AC90DFF8AC805F
:103020002B4FC4F83811002504230822294604F147
:103030005C00284EE360C4E90055C4E90455A5606E
:103040006566A56100F088F9234B6367082229466D
:1030500004F1C400C4E90749C4E90987C4E91A5561
:10306000C4E91E552567C4F8CC50C4F88050E66208
:1030700000F072F9194BC4F8DC30294604F16803FA
:10308000082204F59670C4F88430C4E92298C4E993
:103090002476C4E93455C4E93855C4F8D850C4F886
:1030A0003451C4F8E85000F057F904F1D003C4E9F2
:1030B0003C98C4E93E76C4F8EC30BDE8F88300BF24
:1030C000E4060020B52F00085D4200088542000894
:1030D000C5420008E9420008090001001200020090
:1030E000F8B5254BD3F838310646002B3CD0234F9A
:1030F000D7E90134013B04D51DE05A1C04F16804F2
:1031000019D0B4F90C50013B002DF6D11C4BE360F3
:10311000C4E90155C4E9045565662560A561082226
:10312000294604F15C0000F017F9C4E90C55C4E924
:1031300011552046F8BD3D680DB12F46D8E74FF434
:10314000D6713046FEF7AAFA044680B10423C0E9DE
:1031500000530C302946A0604FF4D072254600F091
:10316000FBF83C602F46C3E7FFF752FFBFE70C2395
:1031700038603360DDE700BFE4060020380500203A
:103180000100FFFF436B03B17047044B044AD3F8BF
:1031900038314263002BF7D13AE700BFE406002044
:1031A000CD2F0008704700BF704700BF024A034997
:1031B000002000F08FBE00BF38050020B12F0008AE
:1031C000024A0349002000F085BE00BF38050020F8
:1031D0000D3000082DE9F843154692682C68FAB1C5
:1031E00080468946083401E00834CFB16B68591E27
:1031F000002B1746696013DD54F8046C002EF3D0E1
:10320000334654F8082C4946404600F045FF431C1D
:1032100007D0AA68921B1746AA600834002FE5D190
:1032200000200023C5E90133BDE8F88338B5074D18
:103230000022044608462A6003F016FA431C00D018
:1032400038BD2B68002BFBD0236038BD2008002040
:10325000000000000000000000000000000000006E
:10326000000000000000000000000000000000005E
:10327000000000000000000000000000000000004E
:1032800030B490F800F020F007016FF0000C10F05F
:10329000070491F820F040F048804FF000046FF0F0
:1032A0000700D1E9002391F840F000F1080082FA0C
:1032B0004CF2A4FA8CF283FA4CF3A2FA8CF34BBBD7
:1032C000D1E9022382FA4CF200F10800A4FA8CF250
:1032D00083FA4CF3A2FA8CF3E3B9D1E9042382FA1E
:1032E0004CF200F10800A4FA8CF283FA4CF3A2FA33
:1032F0008CF37BB9D1E9062301F1200182FA4CF26B
:1033000000F10800A4FA8CF283FA4CF3A2FA8CF3D1
:10331000002BC6D0002A04BF04301A4612BAB2FAF3
:1033200082F200EBD20030BC7047D1E9002304F0F8
:103330000305C4F100004FEAC50514F0040F91F82D
:1033400040F00CFA05F562EA05021CBF63EA0503CA
:1033500062464FF00004AAE7830730B547D0541EF9
:10336000002A3ED0CAB2034601E0013C39D303F83B
:10337000012B9D07F9D1032C2CD9CDB205EB0525E6
:103380000F2C05EB054535D9A4F1100222F00F0CE6
:1033900003F1100EE6444FEA121C1A46C2E900552A
:1033A000C2E9025510327245F8D10CF1010214F055
:1033B0000C0F03EB021204F00F0C13D0ACF104035A
:1033C00023F003030433134442F8045B9342FBD11C
:1033D0000CF003042CB1C9B21C4403F8011BA34236
:1033E000FBD130BD64461346002CF4D1F9E7034607
:1033F0001446C0E71A46A446E0E700BF00B50B4CF0
:1034000025681446EE681A4685B003460D464CB151
:1034100007490095CDE901143046064900F0AAFE9F
:1034200000F0FCFD04490C46F3E700BF000000205B
:10343000547D0008647D0008607D000808B51346CF
:103440000022FFF7DBFF00BF436C70B505460C465A
:103450004BB153F8240080B1026843F824200023C4
:10346000C0E9033370BD2122042100F0DFFD0346D3
:1034700068640028EDD1002070BD012101FA04F636
:10348000721D9200284600F0D1FD0028F3D0C0E95B
:103490000146E4E731B1436C4A6853F82200086002
:1034A00043F82210704700BF2DE9F0410D6907462F
:1034B0000E461C4601F1140E0020DEF800108BB2FF
:1034C00002FB03434FEA134C090C02FB01CC013011
:1034D0009BB203EB0C4385424EF8043B4FEA1C447D
:1034E000EBDC3CB1B368AB4207DD06EB850301358D
:1034F0005C6135613046BDE8F08171683846013164
:10350000FFF7A2FF8046A8B13269023206F10C0132
:1035100092000C30FFF7A0FC7B6C726853F822100D
:10352000316043F82260464606EB850301355C6155
:103530003561DFE7024B03484246BA21FFF75EFFE1
:10354000147D0008947D00082DE9F8431746284AA9
:103550001E4608330C46092E82FB03124FEAE37322
:103560000546C3EB62033ADD4FF0010C00214FEA40
:103570004C0C634501F10101F9DC2846FFF764FFBB
:10358000014670B3089B4361092F4FF001030361AB
:1035900012DC0A340927BE420BDDF61B264414F860
:1035A000013B0A22303B2846FFF77EFFB44201462A
:1035B000F5D10846BDE8F88304F1090804EB0709D2
:1035C000444614F8013B0A22303B2846FFF76CFFC3
:1035D0004C450146F5D1A7F108044444DBE700213E
:1035E000CBE70A46034B0448D321FFF707FF00BF90
:1035F000398EE338147D0008947D0008B0F5803FD3
:10360000034636BF030400201020B3F1807F3CBF87
:103610001B020830B3F1805F3CBF1B010430B3F1E3
:10362000804F03D3002B06DB013070479B0003D48F
:103630005B0003D42020704702307047033070478E
:10364000036813F00702014607D0DA071FD4980772
:1036500021D55B080B600120704798B2A0B11046DD
:10366000DAB20AB908301B0A1A0704BF1B09043072
:103670009A0704BF9B080230DA0703D45B0800F105
:10368000010006D00B6070471B0C1020E8E70020FB
:103690007047202070479B080B600220704700BFD6
:1036A00038B5436C04460D464BB15868B0B102685A
:1036B0005A6000220123C0E90323456138BD21225D
:1036C000042100F0B3FC034660640028EDD1094BEF
:1036D0000948002240F24511FFF790FE1C2201210B
:1036E000204600F0A3FC0028F1D001220223C0E90B
:1036F0000123DEE7147D0008947D00082DE9F04FDA
:10370000D1F810801569A84585B00E46924605DBB4
:103710002A46534645468A4690461E46DAF8083001
:10372000DAF8041005EB0804A342B8BF0131FFF733
:103730008BFE8446002800F08B8000F1140707EB15
:10374000840E774505D23B46002243F8042B9E4564
:10375000FBD8143606EB88080AF11409464509EB34
:10376000850566D2A5EB0A03153B23F003030AF196
:10377000150A043355452CBF9B464FF0040BCDF87A
:1037800008E00394AE46E24605E0090C2AD1B045B4
:1037900007F104074AD956F8041B8DB2002DF4D066
:1037A000CC463C46002301965CF8040B216886B2A7
:1037B0008AB2000C05FB0622090C1A4405FB001115
:1037C00001EB124192B242EA0142E64544F8042B71
:1037D0004FEA1143E8D8019E47F80B3056F8041C15
:1037E000090CD4D03B68002248461D463C4694460E
:1037F000028801FB02C202EB15429BB243EA02437C
:1038000044F8043B50F8043B25684FEA134CABB234
:1038100001FB0C3303EB124370454FEA134CE7D323
:10382000B04547F80B3007F10407B4D8DDE902E4EE
:10383000D446002C02DC05E0013C03D05EF8043DD8
:10384000002BF9D06046CCF8104005B0BDE8F08FF1
:10385000034B044862464FF4B171FFF7CFFD00BF40
:10386000147D0008947D000812F003032DE9F04157
:10387000144607462CD10D46A4101CD03E6C86B3CE
:10388000E3074FF0000806D4641014D03068A8B1E4
:103890000646E307F8D5324629463846FFF72EFF9D
:1038A00035B17B6C696853F821202A6043F82150B8
:1038B00064100546EAD12846BDE8F081324631461B
:1038C0003846FFF71BFF3060C0F800800646E0E78F
:1038D000013B0F4A52F823200023FFF7E5FD054680
:1038E000CAE701213846FFF7AFFD064640B1012384
:1038F00040F27122C0E90432002338640360BFE75C
:10390000044B0548324640F24511FFF777FD00BFF2
:1039100050730008147D0008947D00082DE9F047DD
:103920000C4690462769A368496807EB62177D1C1F
:103930009D4206464FEA621904DD5B009D4201F19B
:103940000101FADC3046FFF77FFD8446002851D0A4
:10395000B9F1000F00F114000EDD09F105024FEA84
:10396000820E03460CEB8202002143F8041B9342B3
:10397000FBD1AEF114031844216904F1140318F0CB
:103980001F0803EB81012DD0C8F1200986464FF0B6
:10399000000A1A6802FA08F242EA0A024EF8042BF8
:1039A00053F8042B994222FA09FAF2D80B1B153B63
:1039B00023F00303043304F11502914238BF0423BA
:1039C00040F803A0BAF1000F00D13D46736C626865
:1039D000CCF8105053F822102160604643F8224082
:1039E000BDE8F087043853F8042B40F8042F9942BF
:1039F000F9D8EAE7034B044862464FF4EF71FFF74A
:103A0000FDFC00BF147D0008947D00080B6984460E
:103A10000069C01A15D10CF1140C14310CEB83029F
:103A200010B401EB830301E0944508D252F8044D31
:103A300053F8041D8C42F7D004D24FF0FF3010BC75
:103A400070477047012010BC704700BF2DE9F04F50
:103A500015460A692B69D21A002A83B0884640F0BD
:103A6000878001F1140605F1140101EB830106EBD7
:103A7000830301E09E427ED253F8044D51F8042D99
:103A80009442F7D075D32B46002445469846696882
:103A9000FFF7DAFC8146002800F089802E69C460B7
:103AA000D8F8100005F1140B08F1140E09F1140AEE
:103AB00005F110020EEB80000BEB860157464FF02C
:103AC000000CCDF804B05EF8044B52F8045F1FFA06
:103AD00084FBABB2A3EB0B03240C6344C4EB15448F
:103AE00004EB23449BB243EA0443704547F8043B8C
:103AF0004FEA244CE7D8A0EB080208F1150840452E
:103B0000A2F1150234BF0020012092080028DDF840
:103B100004B002F101044FEA840408BF04240BEB53
:103B20000405A942544433D92746284650F8043B9B
:103B30001CFA83FE1A0C634402EB2E429BB243EA4A
:103B40000243814247F8043B4FEA224CEED8013948
:103B5000491B21F003010C4423B954F8043D013EF4
:103B6000002BFAD04846C9F8106003B0BDE8F08FCA
:103B700089DA01248BE70021FFF766FC814678B1E2
:103B800001220023C0E90423484603B0BDE8F08FBA
:103B900000284FEA820208BF00220AEB0204DBE79A
:103BA000064B07484A4640F23721FFF727FC034BF4
:103BB00003484A4640F24521FFF720FC147D0008E7
:103BC000947D0008114B0B40A3F15073002B03DDD3
:103BD00000221946104670475B42B3F1A07F4FEABE
:103BE000235206DA4FF400231341002219461046EF
:103BF0007047A2F114031E2BDABF4FF00042DA40E7
:103C00000122002319461046704700BF0000F07FD4
:103C100002692DE9F04100F1140707EB8202A2F1DD
:103C2000040852F8046C3046FFF7E8FCC0F12003AA
:103C30000A280B6033DD4745A0F10B0119D252F879
:103C4000083C21B3C1F120008E4023FA00F4264342
:103C50008B40A2F1080146F07F558F4245F4401594
:103C600019D252F80C2CC240134318462946BDE81D
:103C7000F0810B280AD006FA01F141F07F5545F496
:103C80004015002318462946BDE8F081002346F080
:103C90007F5545F4401518462946BDE8F081474553
:103CA00038BF52F8082CC0F10B0326FA03F138BFD5
:103CB000DA4000F1150341F07F5528BF002206FAD3
:103CC00003F345F44015134318462946BDE8F08137
:103CD000F0B5012183B016461F46FFF7B5FB054638
:103CE000002847D0C7F30A54C7F313030CB143F4B9
:103CF0008013002E019314D101A8FFF7A1FC019BB2
:103D00006B61012220302A6114B3089BA4F2334472
:103D100004441C60099BC0F135001860284603B0BC
:103D2000F0BD68460096FFF78BFC019B00B300993D
:103D3000C0F1200203FA02F2C34001930A43002BB0
:103D4000C5E905230CBF012202222A61002CDCD127
:103D500005EB8201A0F23243086908990B60FFF776
:103D60004DFC099BC0EB42101860284603B0F0BD23
:103D7000009AE4E7034B04482A4640F20F31FFF76C
:103D80003DFB00BF147D0008947D00082DE9F04341
:103D900083B0884669468146FFF73AFF04460D46E0
:103DA000404601A9FFF734FFD9F81030D8F81020A9
:103DB000A3EB020CDDE900329B1A03EB4C13002B42
:103DC0000BDD05EB03573D4602460B4620462946D0
:103DD00002F064FA03B0BDE8F083C3EB033301EBF8
:103DE00003594946F0E700BF172870B506460ADDBB
:103DF0000849094D0020002422462B4602F024F9F0
:103E0000013EF9D170BD054B03EBC003D3E90401BA
:103E100070BD00BF0000F03F000024405073000858
:103E20000139491101F1010C116902F1140303EB8D
:103E300081018B4200EB8C0C16D210B5A0F1040E60
:103E400053F8044B4EF8044F9942F9D88B1A153B9E
:103E500023F0030304331844844504D9002340F8B5
:103E6000043B8445FBD810BD844505D9002340F8A8
:103E7000043B8445FBD87047704700BF03694A1173
:103E8000934200F1140009DA00EB830302E053F8D7
:103E9000042DA2B98342FAD80020704700EB8203B8
:103EA000F8DD11F01F01F5D010B450F8224024FACB
:103EB00001F28A40944208D0012010BC70470120D2
:103EC000704753F8042D002AF6D18342F9D8002018
:103ED00010BC70472DE9F8430746884616464FF058
:103EE0000009D6E90154013D10D4A389012B08D95A
:103EF000B4F90E3001332146384602D0C04749EAB2
:103F00000009013D6B1C04F16804EED13668002EF7
:103F1000E7D14846BDE8F883F03070470048704765
:103F200034060020004870473406002000000000DE
:103F300001F0FF01102A2BDB10F0070F08D010F85A
:103F4000013B013A8B422DD010F0070F42B3F6D15E
:103F5000F0B441EA012141EA014122F007047FF077
:103F600000070023F0E80256083C85EA010586EACE
:103F7000010685FA47F5A3FA87F586FA47F6A5FA0A
:103F800087F68EB9EED1F0BC01F0FF0102F0070216
:103F900032B110F8013B013A83EA010313B1F8D1C1
:103FA0000020704701387047002D06BF35460338A2
:103FB000073815F0010F07D1013015F4807F02BFDB
:103FC000013015F4C03F0130F0BC0138704700BF2C
:103FD00010B4034CD4F8E440A44610BC604700BFC2
:103FE0004405002082B049B15AB16BB113780B601F
:103FF0001278101E18BF012002B0704701A9002AD4
:10400000F3D1104602B070476FF00100F4E700BF33
:10401000014B1868704700BF0000002008B506205B
:1040200000F0CCFB012002F035FB00BF38B5A1FB4E
:10403000021454BBFDF732FB054650B350F8042C74
:1040400022F00302043A242A10D8132A13D91B2A77
:10405000C0E9004416D9242AC0E902440ABFC0E9D5
:10406000044400F1100200F1180205E02146FFF7B8
:1040700073F9284638BD02460023C2E90033936035
:10408000284638BD00F10802F6E7FFF7C1FF0C2310
:1040900003600025284638BD2DE9F0478F681D468E
:1040A000AF420B680C46164636D8B1F90CC01CF46A
:1040B000906F0ED13D46184631462A4600F008FD65
:1040C000A368DF1B2368A7602B4400202360BDE8A2
:1040D000F0874A69096902EB42025F1A02EBD27269
:1040E0006B1C52103B44934292BF914699461A462C
:1040F0001CF4806F804611D01146FDF7CFFA82463E
:1041000000B321693A46FEF7A7FEA38923F4906322
:1041100043F08003A38105E02F46CCE700F0E8F8E8
:10412000824658B10AEB0703A9EB0707A760C4F85A
:1041300010A0C4F8149023602F46BCE721694046C4
:10414000FEF78EFDA3890C2243F04003C8F800203F
:104150004FF0FF30A381BAE70CB400B583B004ABD5
:1041600053F8042B019300F033FD03B05DF804EB2A
:1041700002B070470EB410B583B005AB064C53F8CF
:10418000042B01930146206800F022FD03B0BDE836
:10419000104003B0704700BF0000002070B539B177
:1041A00006460C4608B1436B83B3B4F90C3013B91F
:1041B0000025284670BD2146304600F0BBFBE36A6F
:1041C000054633B1E169304698470028B8BF4FF043
:1041D000FF35A3891B061CD4216B41B104F14003B8
:1041E000994202D03046FEF73BFD00232363616C09
:1041F00021B13046FEF734FD00236364FEF7D2FFA1
:104200000023A381FEF7D0FF284670BDFEF7BAFF5A
:10421000CBE721693046FEF723FDDDE7024B01467F
:104220001868FFF7BBBF00BF0000002010B4034CAC
:10423000D4F8E040A44610BC604700BF440500200D
:1042400049B1FF2A02D80A70012070478A2303600F
:104250004FF0FF3070470846704700BF10B50C465E
:10426000B1F90E1001F054FA002803DB236D03446A
:10427000236510BDA38923F48053A38110BD00BF23
:10428000002070472DE9F0410C46B1F90C101F4693
:10429000CB05054616460BD421F48051A1813B463F
:1042A000B4F90E1032462846BDE8F04100F0C2B91C
:1042B000B4F90E100223002201F0A2FAB4F90C1096
:1042C000EAE700BF10B50C46B1F90E1001F098FAFC
:1042D000B4F90C30421C0EBF23F4805343F48053D6
:1042E0002065A38110BD00BFB1F90E1000F0B8B970
:1042F0002DE9F84F1646002900F096800C468046BE
:1043000006F10B05FEF750FE54F8041C162DA4F11F
:10431000080921F0030758D81025AE4258D8AF42FB
:1043200060DABE4B9A6809EB070C6245DCF80400C2
:1043300000F0908020F0010363445B68DB0768D4E1
:1043400020F003003B189D4247DDCB0712D454F800
:10435000083CA9EB030BDBF8043023F00302104404
:1043600000EB070A554540F3F68007EB020A554576
:1043700040F3CC8031464046FDF790F906460028D0
:1043800000F0208154F8043C23F001034B44A0F1D9
:104390000802934200F0B4803A1F242A00F2D7802A
:1043A000132A00F2A2800346224611681960516860
:1043B000596092689A6021464046FEF751FC40469B
:1043C000FEF7F4FD3046BDE8F88F35F00705A4D5BB
:1043D0000C23C8F80030002618E01F46DCE9022351
:1043E000D3609A60D9F804307A1B0F2A03F00103D6
:1043F00009EB07001DD83B43C9F80430436843F07C
:10440000010343604046FEF7D1FD26463046BDE835
:10441000F88FC907AED454F8083CA9EB030BDBF8BE
:10442000043023F00302A0E7BDE8F84F1146FDF782
:1044300035B909EB05012B4342F00102C9F80430FC
:104440004A60436843F00103436008314046FEF789
:1044500007FCD7E720F00300C21905F1100C6245F4
:1044600080F29180CA0785D454F8082CA9EB020B7E
:10447000DBF8042022F00302104400EB070AD445C5
:104480003FF773AF5E46DBF80C1056F8080F3A1F83
:10449000242AC160886000F2AE80132A40F2A9800D
:1044A0002168CBF808106168CBF80C101B2A00F2C9
:1044B000A88008340BF11002216811606168516016
:1044C000A16891600BEB0501AAEB050242F0010225
:1044D00099604A60DBF8043003F001032B43404647
:1044E000CBF80430FEF762FD90E723680360636851
:1044F00043601B2A3CD804F1080200F1080354E78A
:1045000050F8043C23F003031F446BE73A1F5E4658
:10451000DBF80C3056F8081F242ACB60996022D8AB
:10452000132A1ED92368CBF808306368CBF80C3007
:104530001B2A3BD808340BF1100322681A6062680A
:104540005A60A2689A6034465746D9464AE72146DF
:1045500000F0BEFA2FE7DCE902133A1FCB60996046
:10456000D5E73346E9E72146304600F0B1FAEAE7FD
:10457000A3688360E368C360242A27D004F1100293
:1045800000F1100311E709EB05019960531B43F09B
:1045900001034B6054F8043C03F001032B434046F5
:1045A00044F8043CFEF702FD26462FE7A368CBF84B
:1045B0001030E368CBF81430242A10D010340BF1FB
:1045C0001803BAE74046FEF7F1FC04E723690361EC
:1045D0006169416104F1180200F11803E5E62369FD
:1045E000CBF818306369CBF81C3018340BF120037A
:1045F000A3E7324660E72146304600F069FA074BF0
:1046000060E7A168CBF81010E168CBF81410242AF9
:1046100006D010340BF118024EE700BF280100202D
:104620002269CBF818206269CBF81C2018340BF1F2
:10463000200241E738B50C46084D84461146204615
:104640001A4600232B60644602F01CF8431C00D07D
:1046500038BD2B68002BFBD0236038BD200800201C
:1046600038B5074D0022044608462A6001F0C4FF11
:10467000431C00D038BD2B68002BFBD0236038BD15
:104680002008002038B5D0F818410CB1002038BD02
:1046900080210546FDF702F80246C5F8180130B141
:1046A000031F7C3243F8044F9342FBD1EEE74FF0F7
:1046B000FF3038BD30B51F2983B0054609D8D0F882
:1046C00018310C4653B153F8240043F8242003B0AA
:1046D00030BD162303604FF0FF30F8E780210192D0
:1046E000FCF7DCFF019AC5F8180103460028F2D058
:1046F000011F00F17C05002041F8040FA942FBD105
:10470000E1E700BF1F2938B505461FD8D0F81821AA
:104710000C466AB152F8213053B1012B06D0591C16
:1047200010D0002142F8241020469847002038BDC0
:10473000284600F0FDF8224601462846BDE83840EC
:1047400000F0E0B816230360012038BD1623036093
:104750004FF0FF3038BD00BF1F292CD838B5D0F836
:1047600018310C460546A3B153F8242003EB84030B
:104770004AB1511C0BD0012A07D0002520461D60EC
:104780009047284638BD012038BD032038BD02209F
:1047900038BD8021FCF782FF0346C5F8180138B107
:1047A000021F00217C3042F8041F8242FBD1DBE76C
:1047B0004FF0FF3038BD4FF0FF30704738B5144B25
:1047C0001F281D681ED8D5F81821044662B152F87A
:1047D00020304BB1012B05D0591C0FD0002142F8DD
:1047E00020109847002038BD284600F0A1F8224646
:1047F00001462846BDE8384000F084B816232B60F7
:10480000012038BD16232B604FF0FF3038BD00BFAC
:1048100000000020124B1F2870B51E6809D8D6F87A
:10482000183104460D464BB153F8240043F8245088
:1048300070BD162333604FF0FF3070BD80213046CD
:10484000FCF72CFF0346C6F818010028F3D0021F1E
:1048500000217C3042F8041F8242FBD1E4E700BF14
:104860000000002038B50C4B1D68D5F818410CB17C
:10487000002038BD80212846FCF710FFC5F818013C
:1048800038B1031F00F17C0243F8044F9342FBD17F
:10489000EEE74FF0FF3038BD0000002038B5184B70
:1048A0001F281D6828D80446D5F81801A0B150F873
:1048B000243000EB84004BB15A1C0BD0012B07D0E5
:1048C0000025056020469847284638BD012038BDA0
:1048D000032038BD022038BD80212846FCF7DEFECB
:1048E000C5F8180140B1031F00F17C01002243F814
:1048F000042F8B42FBD1DAE74FF0FF3038BD00BF09
:104900000000002070B50C46084D034600262046E6
:1049100011461C462E6001F08FFE431C00D070BD76
:104920002B68002BFBD0236070BD00BF2008002047
:1049300001F072BEB1F90C20F8B516070C46074617
:1049400049D4496842F400630029A3815FDDA56A68
:10495000002D3ED0002112F480523E683960E1699A
:1049600061D101233846A847451C02466BD0B4F9F3
:104970000C30A56AE169580705D56368D21A236B24
:104980000BB1E36BD21A00233846A847411C4CD127
:104990003968B4F90C301D293FD82F4ACA40D207D4
:1049A0003BD52269226023F40062A281DD044FF02E
:1049B0000002626001D5002943D0216B3E6041B105
:1049C00004F14003994202D03846FEF749F900232A
:1049D00023630020F8BD0E69002EFAD00D680E602A
:1049E00092070CBF4B690023AD1B8B600CE0D4F821
:1049F00024C0E1692B4632463846E047B0F1000C4E
:104A0000A5EB0C05664406DD002DF0DCE1E7E16B6B
:104A100000299CDCDDE7B4F90C3043F04003A381AE
:104A20004FF0FF30F8BD226DA5E7B4F90C302269D4
:104A3000226023F40062A281DB044FF00002626076
:104A4000BBD52065B9E73B68002B90D01D2B01D06A
:104A5000162BE0D13E60BCE70100402010B50446B3
:104A600082B008B1436B53B1B1F90C0008B902B080
:104A700010BD204602B0BDE81040FFF75BBF0191BA
:104A8000FEF780FB0199EFE7A0B138B50C4B1D682C
:104A900004460DB16B6B4BB1B4F90C0000B938BDD5
:104AA00021462846BDE83840FFF744BF2846FEF7B8
:104AB00069FBF1E7034A04490448FFF70BBA00BF5A
:104AC00000000020380500205D4A00080800002092
:104AD00088420ED98B1883420BD900EB020C002AB6
:104AE0006ED0624613F801CD02F801CD9942F9D19A
:104AF00070470F2A0FD8034602F1FF3C002A5FD00F
:104B00000CF1010C013B8C4411F8012B03F8012F2F
:104B10006145F9D1704740EA01039B0751D1A2F1E9
:104B2000100370B501F1200C23F00F0501F1100EF8
:104B300000F11004AC441B095EF8105C44F8105CF2
:104B40005EF80C5C44F80C5C5EF8085C44F8085CA9
:104B50005EF8045C44F8045C0EF1100EE64504F1C6
:104B60001004E9D1013312F00C0F01EB031102F034
:104B70000F0400EB031328D0043C24F003064FEA93
:104B8000940C1E441C1F8E465EF8045B44F8045FC0
:104B9000B442F9D10CF1010402F0030203EB8403E7
:104BA00001EB840102F1FF3C4AB10CF1010C013B25
:104BB0008C4411F8012B03F8012F6145F9D170BD28
:104BC000704702F1FF3C03469AE72246EAE700BF3E
:104BD0002DE9F04FADB0CDE907301C460291934668
:104BE00018B1436B002B00F003850299B1F90C203A
:104BF0004B6E950405D442F4005223F400538A818D
:104C00004B66980400F12485029BB3F90C20110730
:104C100040F1D3801B69002B00F0CF8002F01A0214
:104C20000A2A00F0D9800023CDE910330DF1700974
:104C3000CDF83C900993CA4605939BF80030002BB1
:104C400000F0F4805C4604E014F8013F002B00F013
:104C5000D280252BF8D1B4EB0B0540F0CF80237820
:104C6000002B00F0E3804FF000038DF837304FF059
:104C7000FF320023CDE90323617804F1010B98464C
:104C80000BF1010BA1F12003582B00F2DC80DFE8CF
:104C900013F0B201DA00DA00AD01DA00DA00DA006E
:104CA000DA00DA00DA007601A701DA008101860174
:104CB000DA00A20159005900590059005900590061
:104CC000590059005900DA00DA00DA00DA00DA0097
:104CD000DA00DA00DA00DA00DA006800DA00DA0076
:104CE000DA00DA00DA00DA00DA00DA00DA00DA00F4
:104CF0001902DA00DA00DA00DA00DA00EA01DA0092
:104D0000DA001D04DA00DA00DA00DA00DA00DA008C
:104D1000DA00DA00DA00DA00DD016A00DA00DA002F
:104D2000DA00D8016A00DA00DA00CB01DA00BD014E
:104D30001B047F027A02DA005902DA001904DA0051
:104D4000DA004204A1F1300300221BF8011B02EB40
:104D5000820203EB4202A1F13003092BF5D9049240
:104D600090E748F0100818F0200F00F0D780079B5C
:104D7000073323F007031A46596852F8083B079295
:104D80000A460029C0F2DE8003999DF837500029B9
:104D9000C0F2E38053EA020128F0800840F0DD8091
:104DA000039B002B40F0598401934C46002D00F0EA
:104DB000BE81019A01320192B9E1029D089829460B
:104DC00000F0BCFC002840F04384B5F90C2002F050
:104DD0001A020A2A7FF427AF029BB3F90E30002B88
:104DE000FFF621AF0299089823465A462DB0BDE838
:104DF000F04F00F057BCB4EB0B0517D0119B2B44C0
:104E00001193109B0133072BCAE900B5109305DC01
:104E10000AF1080A059B2B44059320E7029908989C
:104E20000FAA00F003FD28B9CA46F3E7119B002B37
:104E300040F00084029B9B895B0600F10984059881
:104E40002DB0BDE8F08F0029F0D000238DF8373069
:104E500001238DF84810019312AC002203920692B0
:104E600018F08407DDE9102105D10498019D451B48
:104E7000002D00F34F829DF8370080B101320DF113
:104E800037000131CAF80000072A4FF00100CDE9D0
:104E90001021CAF8040000F377820AF1080A069884
:104EA00078B101320EA80231CAF80000072A4FF08B
:104EB0000200CDE91021CAF8040000F373820AF160
:104EC000080A802F00F09B810398C51A002D00F37B
:104ED000D58101321944072ACDE91021CAF80040D2
:104EE000CAF8043000F302820AF1080A18F0040F2D
:104EF00005D0049B019A9C1A002C00F36182DDE925
:104F0000042301988242ACBF9B181B18059300290B
:104F100040F0F78100231093CA468EE6079A18F0F6
:104F2000100F52F8043B079207D118F0400F04D03D
:104F300043F3C03211461BB223E7DA1711460029AA
:104F4000BFF622AF03995B4262EB42022D25002996
:104F50008DF8375001DB28F080080A2B72F1000130
:104F600080F0F3823033DBB28DF86F30039B012B7E
:104F7000B8BF012301930DF16F04012316E7079BCE
:104F800053F8042B0492002A80F28882049A079333
:104F9000524204929BF8001048F0040870E658460C
:104FA00010F8011B2A2900F05A83A1F13003092BC4
:104FB00098BF002200F2478310F8011B02EB820227
:104FC00003EB4202A1F13003092BF5D942EAE27367
:104FD0000393834656E69BF8001048F080084FE69E
:104FE0002B239BF800108DF8373049E69BF8001012
:104FF00048F0010844E69DF837309BF80010002B7C
:105000007FF43EAE20238DF8373039E618F0200FBC
:1050100000F04D82079B059A1B681A60D2175A60F0
:10502000079B0433079308E69BF800106C2903BF25
:105030009BF8011048F020080BF1010B48F0100814
:105040001EE69BF8001048F0400819E6079B002276
:105050008DF8372053F8042B079301238DF848204F
:10506000019312ACF9E648F0100111F0200200F0B3
:10507000DE81079B073323F0070318465A6850F870
:10508000083B079003980025A8428DF83750C0F2DE
:10509000A782012553EA020021F0800840F09480A5
:1050A0000398002840F09E82002D40F0F38111F01B
:1050B000010300F0F88130228DF86F2001930DF18B
:1050C0006F0434E048F0100111F0200200F0BE81BE
:1050D000079B073323F0070318465A6850F8083B2C
:1050E000079003980025A8428DF83750D2DA8846F9
:1050F0004C4603F00701DB0843EA4273D208303123
:1051000053EA0205204604F8011DF2D118F0010F00
:105110006DD030296BD0039A0238302304F8013C5B
:10512000A9EB00039A42B8BF1A460446019218F050
:10513000020206923FF494AE019A023201920222D8
:1051400006928DE6079D039B55F8044B00218DF8D0
:105150003710002C00F05E82002BC0F2DF811A466F
:105160002046FEF7E5FE002800F06B82031B9DF849
:10517000372023EAE3710191002A00F052820022D5
:105180000795039215E69BF8001048F0200877E594
:10519000079A52F8043B079247F63002ADF83820E0
:1051A000B24A099248F00208002200218DF8371017
:1051B000039900290DDB414653EA02004FF0020536
:1051C00021F080083FF46CAF012D00F05482022DD5
:1051D0008ED109984C4603F00F011B09415C04F87D
:1051E000011D43EA0273120953EA0201F3D1039A43
:1051F000A9EB04039A42B8BF1A46019297E70498B4
:10520000019D451B002D7FF75FAE102D984E23DDCD
:1052100006945046089C10279A4604E0103D102D35
:1052200000F1080015DD01321031072AC0E90067DE
:10523000CDE91021F2DD02990FAA204600F0F6FA1E
:1052400000287FF4F7AD103D102DDDE91021484610
:10525000E9DC069C5346824601322944072ACDE9FF
:105260001021CAF80060CAF8045000F3C581039801
:10527000C51A002D0AF1080A7FF72BAE102D7C4EBF
:1052800026DD03945046089CB24610271E4604E0D3
:10529000103D102D00F1080016DD0132744B103165
:1052A000072AC0E90037CDE91021F1DD02990FAAE4
:1052B000204600F0BBFA00287FF4BCAD103D102D55
:1052C000DDE910214846E8DC039C33465646824619
:1052D00001322944072ACDE91021CAF80060CAF832
:1052E000045000F3C9800AF1080AF2E5029908980F
:1052F0000FAA00F09BFA00287FF49CAD1199CA46D2
:10530000F4E5029908980FAA00F090FA00283FF4FB
:1053100001AE8FE5102D574E28DDCDE90A745046B9
:105320003746089C029E9A4604E0103D102D00F17D
:10533000080016DD013210311023072ACDE91021B3
:1053400007604360F1DD0FAA3146204600F06EFA97
:1053500000287FF46FAD103D102DDDE91021484687
:10536000E8DC3E460B9C0A9F5346824601322944A4
:10537000072ACDE91021CAF80060CAF8045000F3EA
:1053800021810AF1080A76E5029908980A930FAA82
:1053900000F04CFA00287FF44DADDDE910210A9BA6
:1053A000CA467CE50299089806930FAA00F03EFAD7
:1053B00000287FF43FADDDE91021069BCA4680E559
:1053C000102C109B2B4E1FDD089FDDF80880102548
:1053D00004E0103C102C0AF1080A15DD01331031ED
:1053E000072BCAE90065CDE91031F2DD0FAA41466D
:1053F000384600F01BFA00287FF41CAD103C102C3E
:10540000DDE91031CA46E9DC01332144072BCAE942
:105410000064CDE910317FF772AD029908980FAAA8
:1054200000F004FA00287FF405AD119967E50798AC
:1054300050F8043B079011F010007FF423AE11F0F8
:1054400040023FF41FAE9BB202461BE6079850F89D
:10545000043B079011F010007FF443AE11F04002BE
:105460003FF43FAE9BB202463BE600BFE47C00083F
:105470008C7500087C7500080299089803930FAAA0
:1054800000F0D4F900287FF4D5ACDDE91021039BAE
:10549000CA461EE5039B01934C4648E69BF8001064
:1054A0000793FFF7EDBB039A01924C463FE618F0D5
:1054B000100F38D118F0400F35D0079B059A1B68A4
:1054C0001A80ADE54146D0E54146FDE56B4B0993B9
:1054D00018F020022CD0079B073323F0070318464F
:1054E0005A6850F8083B079018F0010F3FF45DAE82
:1054F00053EA02003FF459AE8DF8391030218DF88F
:10550000381000218DF837100399002980F28D8022
:1055100048F002085DE65A4B0993D9E72046FDF7AB
:10552000AFFE034623E6079B059A1B681A6077E5E2
:10553000079850F8043B079018F01000D4D118F0E9
:1055400040021CBF9BB20246CEE74E4ECDF804A0EF
:105550004C464FF0050E991841F10001A6FB0107DA
:1055600027F0030000EB9700091A581A9A46944650
:1055700062F100034FF0CC3202FB00F206FB032283
:10558000A0FB063003F001070244A7FB0E074018FA
:10559000BAF10A0F4FEA530300F130007CF1000C1E
:1055A00043EAC27304F8010D4FEA5202D3D2039AC0
:1055B000DDF804A0A9EB04039A42B8BF1A46019291
:1055C000FFF7F4BB029908980A930FAA00F02EF98E
:1055D00000287FF42FACDDE910210A9BCA464AE47B
:1055E0008846BAE4012D7FF4F2AD00253023BBE4F8
:1055F000FDF7C8FDFFF7F9BA0299089806930FAABC
:1056000000F014F900287FF415ACDDE91021069BA9
:10561000CA4659E4062B28BF06231B4C0795019365
:105620001BE4CDE9062503921AE428F0800141F03D
:105630000208CEE5029908980FAA00F0F7F8FFF7E4
:10564000F9BB039B93E5002383460393FFF71ABB43
:105650004FF0FF330593FFF7F2BB302384E4079B41
:105660009BF8011053F8042B079342EAE272834639
:105670000392FFF705BB00256FE400BFD07C000854
:10568000E47C0008CDCCCCCCF87C000810B4044CF1
:1056900084461346206810BC0A466146FFF798BA54
:1056A0000000002070B50C468989ADF58D6D21F0A4
:1056B0000201ADF80C101AA9009104914FF4806119
:1056C00002910591616E1991E189ADF80E10E169C1
:1056D0000791616A09910021069169460646FFF724
:1056E00077FA051E07DB69463046FFF7B7F9002851
:1056F00018BF4FF0FF35BDF80C305B0603D5A3890A
:1057000043F04003A38128460DF58D6D70BD00BFA9
:1057100038B50C46084D8446114620461A460023EB
:105720002B60644600F098FF431C00D038BD2B6806
:10573000002BFBD0236038BD2008002038B52F4B4C
:105740001B6805460C4613B15A6B002A4BD0B4F9BE
:105750000C3018071CD5226922B313F0010107D0C1
:10576000616900204942A060A1613AB1002038BDC2
:10577000980758BF6169A160002AF7D1190658BF80
:105780001046F4D543F04003A3814FF0FF3038BDFD
:10579000D9062CD55A0712D4226943F00803A381F5
:1057A000002ADAD103F42071B1F5007FD5D021466B
:1057B000284600F04BF8B4F90C302269CDE7216B94
:1057C00051B104F14002914204D02846FDF748FA55
:1057D000B4F90C300022226322690021C4E90021BF
:1057E00023F02403D9E71846FDF7CCFCAFE70922E4
:1057F00043F040032A60A381C7E700BF00000020F8
:1058000038B50C46084D8446114620461A460023FA
:105810002B60644600F018FF431C00D038BD2B6895
:10582000002BFBD0236038BD20080020936810B502
:1058300014461BB918460023636010BD00F0CCF875
:105840000023A3600023636010BD00BF2DE9F04179
:10585000B1F90C300C46990796B008D504F1430312
:105860000122C4E90432236016B0BDE8F081B4F926
:105870000E100029064626DB6A4600F085F800284F
:105880001FDB019D05F47045A5F50055B5FA85F5BA
:105890004FF480686D094FF4006741463046FBF7CE
:1058A000FDFEE8B1B4F90C30C4F8148043F0800375
:1058B00020602061A3813DBB3B43A38116B0BDE8BE
:1058C000F081B4F90C3013F0800519D04FF0400886
:1058D0000025414630462F46FBF7E0FE0028E1D187
:1058E000B4F90C309A05BFD423F0030304F143024A
:1058F00043F002030121C4E90421A3812260B3E73C
:105900004FF480682F46C8E7B4F90E10304600F017
:1059100051F810B9B4F90C30CEE7A38923F0030392
:1059200043F001031BB2C7E770B50C46B1F90E1086
:10593000002996B015461E4614DB6A4600F024F88E
:1059400000280FDB019901F47041A1F50051B1FA73
:1059500081F14FF4806349094FF4006031602B609E
:1059600016B070BDA18911F0800106D0002140233E
:10597000084631602B6016B070BD4FF48063084656
:1059800031602B6016B070BD70B50C46084D0346F3
:105990000026204611461C462E6000F035FE431CB2
:1059A00000D070BD2B68002BFBD0236070BD00BF02
:1059B0002008002038B5074D0022044608462A601A
:1059C00000F032FE431C00D038BD2B68002BFBD00A
:1059D000236038BD200800209368002B00F0F6807B
:1059E0002DE9F04FB1F90CC01CF0080F83B09046C0
:1059F00081460C4631D00B697BB31CF00207D8F806
:105A0000006038D00027D4F824B0E169DFF8BCA2E8
:105A10003D4655452B463A4628BF53464846C5B1F4
:105A2000D847002840F3C880D8F808301B1A07442C
:105A30002D1AC8F80830002B00F0B48055452B46CD
:105A4000D4F824B0E16928BF53463A464846002DB1
:105A5000E6D1D6E900750836DBE721464846FFF770
:105A60006DFE002840F0AD80B4F90CC0D8F800609D
:105A70001CF00207C6D11CF0010A63D12368A1689B
:105A8000574618468B46002F58D01CF4007F00F074
:105A9000B180B9420A4600F2DD801CF4906F2FD02D
:105AA000216962695D1A02EB420202EBD2726B1C41
:105AB00052103B44934292BF93469B461A461CF4B5
:105AC000806F00F0E68011464846FBF7E7FD0028AE
:105AD00000F0F5802A4621690190FDF7BDF9A28901
:105AE000019B22F4906242F08002A2815819ABEB34
:105AF0000505C4F814B02361A5602060BB463A4692
:105B000051460192FEF7E4FFA1682368019AA1EBD8
