:020000040800F2
:1000000000500020B9050008ED000008ED000008D0
:10001000ED000008ED000008ED0000080000000001
:10002000000000000000000000000000ED000008DB
:10003000ED00000800000000ED000008F1000008DD
:10004000ED000008ED000008ED000008ED000008DC
:10005000ED000008ED000008ED000008ED000008CC
:10006000ED000008ED000008ED000008ED000008BC
:10007000ED000008ED000008ED000008ED000008AC
:10008000ED000008ED000008ED000008ED0000089C
:10009000ED000008ED000008ED000008ED0000088C
:1000A000ED000008ED000008ED000008ED0000087C
:1000B000ED000008ED000008ED000008ED0000086C
:1000C000ED000008ED000008ED000008ED0000085C
:1000D000ED000008ED000008ED000008ED0000084C
:0C00E000ED000008ED000008ED00000835
:1000EC00FEE700BF024A136801331360704700BF7C
:1000FC0000000020017841B1044A13681B06FCD5AE
:10010C00516010F8011F0029F7D1704700380140E9
:10011C00002807DB0CD11A4A13681906FCD53023CA
:10012C0053607047164A13681B06FCD52D23536089
:10013C0030B585B080EAE07301ACA3EBE07300212D
:10014C002046104D9C46A5FB03E2D20802EB820E22
:10015C00A3EB4E033033BCF1090F00F8013B01F166
:10016C0001011346EED8064A214411F8010D13681B
:10017C001B06FCD5A1425060F7D105B030BD00BFC5
:10018C0000380140CDCCCCCC38B5031E23DB642128
:10019C001C4AD81782FB0354C0EB641001FB1034CB
:1001AC0001FB04F43234A2FB04246409FFF7B0FF12
:1001BC00154A13681906FCD52E23092C536005DC4F
:1001CC00114A13681B06FCD5302353602046BDE84A
:1001DC003840FFF79DBF0C490A681006FCD54FF05C
:1001EC00640C2D25074A5B42A2FB034040090CFB23
:1001FC0010340CFB04F43234A2FB04244D6064096B
:10020C00D4E700BF1F85EB5100380140034A136847
:10021C00184413688342FCD3704700BF00000020D1
:10022C000221584A2DE9F04F574B11601A688BB0D8
:10023C0042F480321A601A689003FCD55A6852480E
:10024C0022F4701242F4E81242F480625A601A6886
:10025C0042F080721A6003689901FCD543684A49E0
:10026C0023F0030343F0020343604B6803F00C03D9
:10027C00082BFAD14FF0E02E42F2273A4FF000094A
:10028C004FF00308CEF814A0CEF81890CEF81080DA
:10029C00D1F818E03D4C4EF01C0EC1F818E0D4F823
:1002AC0004E03B4A2EF4700EC4F804E0D4F804E0E9
:1002BC0040F2712C4EF4001EC4F804E0D2F804E0B5
:1002CC000C272EF0F00EC2F804E0D2F804E04FF444
:1002DC0000564EF0B00EC2F804E0D2F804E02D4BFC
:1002EC002EF4706EC2F804E0D2F804E02A4D4EF4FD
:1002FC00806EC2F804E01A68284822F070621A6016
:10030C001A6842F070621A601A6822F070421A6021
:10031C001A6842F070421A608B6943F480438B6117
:10032C00C5F808C0EF60EB683343EB606661FFF71C
:10033C00E1FE1B4D1B48FFF7DDFE1B48FFF7DAFE05
:10034C0000F01EFA2B680A332A689342FCD817482F
:10035C00FFF7D0FE00F0D4FA074658B31448FFF765
:10036C00C9FE4FF40050094908612A68C8322B684D
:10037C009A42FCD848612A68C8322B689A42FCD849
:10038C00F2E700BF002002400010024000100140C4
:10039C0000080140000C014000380140C809000869
:1003AC0000000020F8090008240A0008540A00087C
:1003BC00680A00087148FFF79DFE7148FFF79AFE26
:1003CC007048FFF797FE7048FFF794FE4FF06408F3
:1003DC005B266E4C0DF12603019309AB009308AA22
:1003EC000DF122030DF11E0107A800F0ABFABDF9C7
:1003FC002210DFF89CE108FB01F1BDF924208EFBF3
:10040C0001C008FB02F2BDF91CB0C91708FB0BFBBD
:10041C00C1EB6011BDF91EA0BDF9263003918EFB16
:10042C00020108FB0AFA08FB03F3BDF92090BBF1AB
:10043C00000F08FB09F94FEAE272B8BF0BF57F5BBE
:10044C00C2EB6112B8BF0BF13F0B0492BAF1000F73
:10045C008EFB0312BCBF0AF57F5A0AF13F0AB9F1B1
:10046C00000FB8BF09F57F594FEAE373B8BF09F124
:10047C003F09C3EB621301374FEAAB3B4FEAAA3A91
:10048C004FEAA939059323681A06FCD538466660ED
:10049C00FFF73EFE5D223F4923681B06FCD56260D8
:1004AC0011F8012F002AF7D141223B492368180685
:1004BC00FCD5626011F8012F002AF7D15846DFF8FD
:1004CC00DCB0FFF761FE2022594623681B06FCD5E1
:1004DC00626011F8012F002AF7D15046DFF8C0A056
:1004EC00FFF752FE2022514623681806FCD56260A5
:1004FC0011F8012F002AF7D14846FFF745FE2022BC
:10050C00284923681B06FCD5626011F8012F002ACC
:10051C00F7D10398FFF738FE202223681806FCD584
:10052C0062601BF8012F002AF7D10498FFF72CFE0C
:10053C00202223681906FCD562601AF8012F002AC4
:10054C00F7D10598FFF720FE0D22174923681B06EB
:10055C00FCD5626011F8012F002AF7D102F180421C
:10056C0002F58832D36883F40053D3602A6802F50D
:10057C007A722B689A42FCD82CE700BF900A0008CC
:10058C00980A0008C00A0008F40A00080038014064
:10059C003DCB883E2C0B0008300B0008400B0008AC
:1005AC00440B0008480B0008280B0008124A13499A
:1005BC0008B58A420DD2124801390346891A21F036
:1005CC0003010431014453F8040B8B4242F8040B31
:1005DC00F9D10C4A0C498A420BD200200139891AF4
:1005EC0021F00301043113460A4443F8040B9A42E8
:1005FC00FBD1FFF715FE00BF00000020000000201B
:10060C00580B0008000000200400002070B5D02515
:10061C00594C8C46594B1146256101E0013B02D0E7
:10062C0062699607FAD5544C544BA269206101E0DB
:10063C00013B02D062691506FAD5504B4E4801E0D9
:10064C00013B02D042695407FAD54B4A4B4B106818
:10065C0040F48070106001E0013B02D05069C0078B
:10066C00FAD5D120444A454B106101E0013B02D040
:10067C0050698607FAD5012954D0022923D03E4A65
:10068C009369B9B164464FF0000ECD1E8E1EAE4577
:10069C003AD0B645394B02D15AE0013B02D05069F1
:1006AC004006FAD5136923700EF1010E8E4504F144
:1006BC000104ECD1304A136843F4806313609369EE
:1006CC009B07FCD470BD2C492C4B0A6842F4006289
:1006DC000A608A690A6822F480620A6001E0013BC0
:1006EC0002D04A695407FAD5234B1A6842F40072B7
:1006FC001A601A698CF800201A698CF801201A68A3
:10070C0022F400621A60D5E71C4B01E0013B02D0D9
:10071C0050694007FAD5136823F48063136013699A
:10072C002370C1E71449154B0A6822F480620A60F1
:10073C008A690A6842F400720A6001E0013B02D047
:10074C004A695506FAD50C4B1B698CF80030B1E799
:10075C00094901E0013B02D04A695407FAD5064B1E
:10076C000CEB0E011A6842F400721A601A690CF84C
:10077C000E201B694B709DE700540040A0860100C1
:10078C0010B4B420242425210C4AD36943F400135B
:10079C00D3610B4B1A6842F400421A601A6822F4B7
:1007AC0000421A605C60D86119621A6842F001025A
:1007BC001A609A699207FCD410BC70470010024072
:1007CC000054004010B41D4C1D4B226842F4807242
:1007DC00226001E0013B02D06269D207FAD5D02237
:1007EC00164C174B226101E0013B02D06269920763
:1007FC00FAD5124C124BA269206101E0013B02D0E8
:10080C0062691006FAD50D480D4B016101E0013B00
:10081C0002D042691106FAD5094B084901E0013BA7
:10082C0002D04A695207FAD5044A136843F400739C
:10083C00136093699B07FCD410BC704700540040B4
:10084C00A08601002C492D4B0A6842F480720A6084
:10085C0001E0013B02D04A69D207FAD5D0222649E1
:10086C00264B0A6101E0013B02D04A699207FAD596
:10087C002149224B8A69086101E0013B02D04A6997
:10088C001206FAD51D4B1C4901E0013B02D04A6906
:10089C005007FAD51849194B0A6842F480720A605D
:1008AC0001E0013B02D04A69D207FAD5D1221249A4
:1008BC00124B0A6101E0013B02D04A699007FAD55C
:1008CC000D490E4B0A6822F480620A608A690A6834
:1008DC0042F400720A6001E0013B02D04A69520600
:1008EC00FAD5054A10691368C0B243F480631360EB
:1008FC0093699B07FCD4704700540040A08601000C
:10090C00752008B5FFF79EFF682818D101216B20D0
:10091C00FFF758FF6420FFF779FC00211920FFF73F
:10092C0051FF06211A20FFF74DFF00211B20FFF776
:10093C0049FF00211C20FFF745FF002008BD4FF0A8
:10094C00FF3008BD2DE9F0471A4E824634688946BF
:10095C0044F48074346090461F46174C84B001E018
:10096C00013C02D07569EB07FAD569460E223B2093
:10097C00FFF74CFEBDF80030BDF80A205BBAAAF8B0
:10098C000030BDF802300C995BBAA9F80030BDF804
:10099C00043052BA5BBAA8F80030BDF808305BBA24
:1009AC003B80BDF80C300A800D9A5BBA138004B002
:1009BC00BDE8F08700540040A08601000D0A3D3DC3
:1009CC003D3D3D3D3D3D3D3D3D3D3D3D3D3D3D3D4B
:1009DC003D3D3D3D3D3D3D3D3D3D3D3D3D3D3D3D3B
:1009EC003D3D3D3D3D3D3D3D0D0A00002020535415
:1009FC004D333246313033202B204D505536303567
:100A0C003020426172652D4D6574616C20447269B1
:100A1C007665720D0A0000003D3D3D3D3D3D3D3D7E
:100A2C003D3D3D3D3D3D3D3D3D3D3D3D3D3D3D3DEA
:100A3C003D3D3D3D3D3D3D3D3D3D3D3D3D3D3D3DDA
:100A4C003D3D0D0A0D0A00004D5055363035302015
:100A5C00696E69742E2E2E20000000004641494C10
:100A6C0045442028636865636B20776972696E67FB
:100A7C00202F204932432061646472657373290D01
:100A8C000A0000004F4B0D0A0D0A0000526561640C
:100A9C00696E672073656E736F7220646174612078
:100AAC0065766572792031207365636F6E642E2EC6
:100ABC002E0D0A00466F726D61743A20697465726E
:100ACC00207C20416363656C2867292058205920BD
:100ADC005A207C204779726F286470732920582023
:100AEC0059205A0D0A0000002D2D2D2D2D2D2D2DA8
:100AFC002D2D2D2D2D2D2D2D2D2D2D2D2D2D2D2D1A
:100B0C002D2D2D2D2D2D2D2D2D2D2D2D2D2D2D2D09
:100B1C002D2D2D2D2D2D2D2D2D2D0D0A0D0A0000D9
:100B2C005D200000416363656C2867293A20583DBD
:100B3C000000000020593D00205A3D00202047793C
:0C0B4C00726F28647073293A20583D0035
:04000005080005B931
:00000001FF
